:020000040800F2
:10000000080C0020390200083F280008612500087C
:100010003D280008B30B0008E12D00080000000097
:10002000000000000000000000000000432800085D
:10003000B90C00080000000041280008452800080D
:10004000530200085302000853020008530200083C
:10005000530200085302000853020008530200082C
:10006000530200085302000853020008530200081C
:10007000B50B000853020008C10B0008530200082A
:10008000CD0B0008D90B00085302000853020008EA
:1000900053020008530200085302000853020008EC
:1000A00053020008530200085302000853020008DC
:1000B00053020008530200085302000853020008CC
:1000C00053020008530200085302000853020008BC
:1000D00053020008B12D0008BD2D0008C92D0008ED
:1000E000530200085302000853020008530200089C
:1000F000530200085302000853020008530200088C
:10010000530200085302000853020008530200087B
:10011000530200085302000853020008530200086B
:1001200053020008E50B0008F10B00085302000819
:10013000530200085302000853020008530200084B
:10014000530200085302000853020008530200083B
:1001500053020008FD0B0008090C0008D52D00080B
:10016000530200085302000853020008530200081B
:100170005302000853020008530200080000000068
:10018000530200085302000800F002F800F045F89E
:100190000AA090E8000C82448344AAF10107DA45E2
:1001A00001D100F03AF8AFF2090EBAE80F0013F0EF
:1001B000010F18BFFB1A43F001031847084600005F
:1001C00028460000103A24BF78C878C1FAD85207F0
:1001D00024BF30C830C144BF04680C6070470000C1
:1001E0000023002400250026103A28BF78C1FBD840
:1001F000520728BF30C148BF0B6070471FB504F0DD
:10020000BDFA00F08BFC04000020002103F0D0FEBA
:10021000401C60601FBD10B510BD00F043FC1146CE
:10022000FFF7ECFF02F0A2FF00F06AFC03B4FFF757
:10023000F2FF03BC00F076FC0948804709480047FC
:10024000FEE7FEE7FEE7FEE7FEE7FEE7FEE7FEE786
:10025000FEE7FEE704480549054A064B70470000E3
:10026000DD2800088901000808060020080C00208D
:10027000080800200808002053EA020C00F06980FA
:100280002DE9F04B4FF00006002B1FBFB3FA83F5AA
:1002900003FA05F424FA05F65E4012BF1643B2FADB
:1002A00082F502FA05F4C5F120051EBF22FA05FC0D
:1002B00044EA0C04203556EA044C4FEA144418BFB3
:1002C000641C4FF000084FF00009904271EB030CE2
:1002D00039D3002919BFB1FA81F701FA07F6B0FA4C
:1002E00080F700FA07F6C7F120071EBF20FA07FCC7
:1002F00046EA0C062037B6FBF4FCA7EB0507103FD7
:1003000007F01F0BCBF120060CFA0BFB2CFA06F6BC
:1003100044BFB3460026202FA4BF5E464FF0000B1B
:100320005BEA060C08BF4FF0010B19EB0B09ABFBA6
:10033000027C48EB0608C01B06FB02CC0BFB03CC7F
:1003400071EB0C01C1E70B46024641464846BDE849
:10035000F08B13B54FF000004FF00001AFF30080B9
:10036000BDE81C40704700000FB400B58DB010A967
:10037000099000910B904FF0FF300A9000200C90F4
:10038000064878440690064878446A4607900F99D4
:1003900009A800F031F90DB05DF814FB93020000DC
:1003A000AB0200002DE9FF5F4FF0000899461446AC
:1003B00046469169D2E901A7DDF838B0019888472F
:1003C000054659EA0B0005D009E0A1690198761CA1
:1003D00088470546216A284688470028F5D1681CC9
:1003E00003D05FEACA7005D015E04FF0FF3004B0CB
:1003F000BDE8F09F2068011D2160D0F800800AE070
:100400005FEACA7001D108F8015BA169761C019806
:100410007F1E88470546002F1ADD681C18D0B9F1E9
:10042000000F0DD0E81705EBD060421120F01F003F
:1004300059F822102A1A012090400142E0D107E029
:10044000BBF1000FDCD12846216A88470028D7D0AD
:10045000E16901988847BBF1000F07D1002E05DD47
:100460005FEACA7002D1002188F80010A068B84283
:1004700003DDBBF1000F03D017B16FF00100B6E749
:100480003046B4E7014A00F0E7B80000440000201D
:1004900010B5431C02E010F8011B71B18107FAD1BD
:1004A0004FF0013202C88C1A8C4314EAC211F9D001
:1004B000C01A0A0603D0C01E10BDC01A10BD0A041F
:1004C00001D0801E10BD0902FCD0401E10BD10B529
:1004D000203AC0F00B80B1E81850203AA0E818503C
:1004E000B1E81850A0E81850BFF4F5AF5FEA027CFD
:1004F00024BFB1E81850A0E8185044BF18C918C06C
:10050000BDE810405FEA827C24BF51F8043B40F80C
:10051000043B08BF7047D20728BF31F8023B48BFF1
:1005200011F8012B28BF20F8023B48BF00F8012B2F
:10053000704702F0FF0343EA032242EA024200F05E
:10054000AFB84FF0000200B51346944696462039E6
:1005500022BFA0E80C50A0E80C50B1F12001BFF47C
:10056000F7AF090728BFA0E80C5048BF0CC05DF8E2
:1005700004EB890028BF40F8042B08BF704748BF30
:1005800020F8022B11F0804F18BF00F8012B7047A4
:1005900010B5044610F0030F08BF11F0030F40F030
:1005A00015804FF0013E121FC0F20E8051F8043B3F
:1005B000A3EB0E0C2CEA030C1CEACE1C08BF40F87F
:1005C000043BF0D0A1F1040102F10402521E08DB49
:1005D00011F8013B002B00F8013BF7D1114600F068
:1005E0005DF8204610BD704770477047026811449F
:1005F0001378016018467047D1600549794451610C
:1006000004497944116200211161114600F072B869
:10061000EDFFFFFFDB000000426842B1016811F806
:10062000013B23B1521EC0E9001218467047012158
:10063000C160881E704742685AB1C368016843B9F7
:1006400083688B4205D0491E521CC0E9001200206D
:1006500070474FF0FF3070472DE9F04115460E46C8
:10066000040002D12C6804B90BA4204600F00CFA57
:100670000444207870B127463146384600F0F4F93A
:100680000444207810B1002004F8010B38462C6097
:10069000BDE8F0810027F9E7000000004FF00002FC
:1006A0000429C0F0128010F0030C3FF44CAFCCF1E1
:1006B000040CBCF1020F18BF00F8012BA8BF20F8F2
:1006C000022BA1EB0C01FFF73EBF5FEAC17C24BF08
:1006D00000F8012B00F8012B48BF00F8012B7047F0
:1006E00010B5044600F004FA0068005D00F0010057
:1006F00010BD00002DE9F34F4FF0000A0C4656469E
:100700008DB001200C9001F10C000B9062690B98E8
:1007100001219047051E2DD0252D2CD0216A884718
:10072000C0B162690B9801219047216A884700286F
:10073000F7D16269411E0B98904700E0761CA169D1
:100740000D988847216A88470028F7D1E1690D98FC
:100750008847DBE7A1690D988847A842074601D181
:10076000761CD3E7E1690D9888477F1C02D1BAF166
:10077000000F6FD06CE162690B9800273D46394647
:1007800090472A2804D162690B98012190470125DE
:10079000DFF8D08262690B9801219047A0F1300107
:1007A0000A290AD24745E5DC07EB870100EB410740
:1007B000303FDFD445F01005ECE7E90601D46FF0D7
:1007C00000476C280AD04C2814D0682815D06A2815
:1007D0000DD074281CD07A281AD01DE062690B98BD
:1007E000012190476C2802D045F0040514E045F043
:1007F00002050DE045F020050AE062690B98012131
:100800009047682802D045F0080505E045F40065EA
:1008100062690B9801219047C4E9015765283DD0D2
:1008200019DC58287AD00CDC452837D004DC252880
:1008300026D041289ED131E046282FD0472899D193
:100840002CE05B2877D0612828D063287CD06428EE
:1008500023D15AE0F7E06F2848D008DC66281DD085
:1008600067281BD0692821D06E2816D127E0702870
:1008700045D0732868D0752847D078280DD14DE031
:10088000A1690D988847252805463FF469AFE169BD
:100890000D9888476D1C3FF46AAFD9E00D99234647
:1008A0006A466FF00100AFF30080C6E045F04000FB
:1008B00023464FF000026060A80736D43EE0E80708
:1008C0007FF447AF2068011D21600068290501D52C
:1008D00006701BE7290701D5068017E7A90703D58E
:1008E000F117C0E9006111E706600FE745F040002D
:1008F00023464FF008026060A80716D41EE040F6B9
:100900000E0125EA0100606016E045F04000234634
:100910004FF00A026060A80707D40FE045F04000DE
:100920006060A80708D5234610220D996FF00100DA
:10093000AFF3008081E007E0102223460D996FF0AD
:100940000100AFF3008078E04FF0000963284F46C4
:10095000C8464B46CB4602D05B2807D039E0207909
:10096000C00601D40120A060012732E06269D4F8FA
:100970000CB00B98012190475E2807D14FF0010978
:1009800049466269D4F80CB00B989047216939B98F
:1009900000210A4603AB43F82120491C0829FADB51
:1009A000D8B3216949B308F1010862690B980121A4
:1009B00090475D28F4D1B9F1000F09D0002003A9B8
:1009C00051F82020D24341F82020401C0828F7DBB2
:1009D00003AB2069002820794FEA40701ED05B46A7
:1009E0002246CDF80080CDE901970D9900286FF0DF
:1009F000010020DAAFF300801FE0C11703AA00EB6B
:100A0000D1614B1121F01F0102EB8302411A1368DF
:100A10000120884003431360C7E719E00D9922467F
:100A200000286FF00100009702DAAFF3008004E0C5
:100A3000FFF7B8FC01E0AFF3008000280ADA401CA1
:100A400006D10C9820B14FF0FF300FB0BDE8F08F09
:100A50005046FAE7E90701D10AF1010A06440020ED
:100A60000C9053E6CCCCCC0C30B503461D781DB1B0
:100A70000A4603E0AC4201D1181A30BD12F8014B0E
:100A8000002CF7D15B1CF1E730B503461D783DB172
:100A90000A4612F8014B1CB1AC42FAD15B1CF5E7D7
:100AA000181A30BD754600F035F8AE4605006946A7
:100AB000534620F00700854618B020B5FFF7CAFB63
:100AC000BDE820404FF000064FF000074FF000084F
:100AD0004FF0000B21F00701AC46ACE8C009ACE8D0
:100AE000C009ACE8C009ACE8C0098D4670470000F9
:100AF00010B500F013F8001D10BD00BFB5340000A4
:100B000010B50446AFF300802046BDE81040FFF763
:100B10008DBB000000487047A405002000487047C6
:100B2000C405002001491820ABBEFEE726000200E4
:100B30004FF0013C50F8042B51F8043B9A4221D16C
:100B4000A2EB0C03934313EACC1317D150F8042BF8
:100B500051F8043B9A4215D1A2EB0C03934313EADC
:100B6000CC130BD150F8042B51F8043B9A4209D115
:100B7000A2EB0C03934313EACC13DBD04FF000003D
:100B8000704700BFD01A01BAB1FA81F101F0180123
:100B900022FA01F0CB40C1F12001DBB2C0B2C01A91
:100BA0002CFA01F3D11A914311EAC311E6D170472F
:100BB0007047FEE7014800F0DDB800002404002083
:100BC000014800F0D7B8000084040020014800F07C
:100BD000D1B80000C4030020014800F0CBB80000E9
:100BE00064030020014800F0C5B80000E4040020C0
:100BF000014800F0BFB8000004030020014800F0E5
:100C0000B9B8000044050020014800F0B3B8000066
:100C1000A402002001681823CAB2103AB2FBF3F212
:100C2000054B6FF30901032A9B5CC36500D9091DBD
:100C300081650846704700008647000810B50146E8
:100C400000208B698A6A4FF0C07453B1B3F5005F1E
:100C500015D072B1012A0CD0022A0AD0032A09D178
:100C600004E01AB1012A06D0022A03D1C96AC901D7
:100C700000D5012010BDC96AA142FAD010BD002ADA
:100C8000F7D0012AF2D0022AF3D0032AF3D010BD04
:100C900030B50468256825F4802525600468636004
:100CA0008368402B036803D099600068C26030BD40
:100CB0009A600068C16030BD704772B6FEE72DE9EA
:100CC000F0410446876D00F0E3FA064694F83500DB
:100CD0000025022806D08020606584F83450012069
:100CE000BDE8F0812068016821F0160101602068EC
:100CF000416921F080014161206C08B9A06C20B1EC
:100D00002068016821F0080101602068016821F075
:100D1000010101600CE000F0BBFA801B052807D937
:100D200020206065032084F8350084F83450D7E72C
:100D300020680068C007EED194F85C103F2088401E
:100D4000B860012084F8350084F834500020C7E7EB
:100D500090F83510022903D08021416501207047A9
:100D6000052180F835100068016821F0010101605B
:100D7000002070472DE9F84304464FF00009CDF8F4
:100D8000009063484FF41651A56D0068B0FBF1F771
:100D90002E6894F85C10082000FA01F131420FD05F
:100DA00021680A6852070BD50A6822F004020A601B
:100DB00094F85C108840A860606D40F001006065A8
:100DC00094F85C104FF0010808FA01F0304208D0A6
:100DD00021684969090604D5A860606D40F00200E9
:100DE000606594F85C1004208840304208D0216887
:100DF0000968890704D5A860606D40F0040060654B
:100E000094F85C1010208840304218D0216809689E
:100E1000090714D5A86020680168490304D5006853
:100E2000000308D5A16C07E00168C90503D4016877
:100E300021F008010160216C09B12046884794F82F
:100E40005C1020208840304231D021680968C906F2
:100E50002DD5A86094F8350005282068016806D0D3
:100E6000490347D5006800031DD4616C1CE021F0E4
:100E7000160101602068416921F080014161206C08
:100E800008B9A06C20B12068016821F00801016058
:100E900094F85C103F208840A86084F8358084F87E
:100EA0003490216D1FE0E16B09B120468847606DE9
:100EB00000282BD0606DC00714D0052084F83500C1
:100EC0002068016821F0010101600098401C009039
:100ED000B84203D820680068C007F6D184F835808E
:100EE00084F83490E16C002910D001B02046BDE8B0
:100EF000F04308470168C905D5D4016821F0100105
:100F0000016084F8358084F83490CCE7BDE8F8833C
:100F10003C0000202DE9F041044600F0B9F90646F6
:100F20005CB1022084F83500002584F83450206834
:100F3000016821F0010101600DE00120BDE8F081B0
:100F400000F0A6F9801B052805D920206065032044
:100F500084F83500F2E720680068C007F0D1226805
:100F6000116820480140D4E901031843D4E903364D
:100F70003343184363691843A3691843E36918436B
:100F8000236A18430843616A042903D1D4E90B1387
:100F900019430843106020684069666A20F0070121
:100FA00030460E43012704280CD1A06A0643E06AAC
:100FB00040B12046FFF742FE20B14020606584F832
:100FC0003570BAE7206846612046FFF723FE94F8A3
:100FD0005C203F2191408160656584F83570002078
:100FE000ACE700003F8010F02DE9F0410446866D2B
:100FF00090F83400002501280DD0012084F8340039
:1010000094F835700020012F07D084F834000225B1
:101010002846BDE8F0810220FBE7022784F83570FE
:1010200060652046FFF734FE94F85C103F2088404E
:10103000B0602068016841F016010160206C20B1A9
:101040002068016841F0080101602068016841F0F2
:1010500001010160DCE7000070B5044600F018F9FA
:101060000546601C02D004480078044400F010F9E2
:10107000401BA042FAD370BD300000202DE9F84F8C
:10108000DFF8BCA10022012503264FF00F090AF169
:10109000040BAAF1040E00BF0B6805FA02F423400A
:1010A000A34270D10F7907F00307012F01D0022F5F
:1010B00016D187684FEA420806FA08FC27EA0C07AF
:1010C000D1F80CC00CFA08FC4CEA070CC0F808C0B8
:1010D0004768A7430C79C4F3001494403C43446030
:1010E0000C79E443A4070AD0C4684FEA420C06FA1C
:1010F0000CF7BC438F6807FA0CF72743C7600C79DD
:1011000004F00304022C12D1D40800EB840CDCF8A8
:1011100020405707FF0E09FA07F824EA0804D1F81F
:10112000108008FA07F848EA0408CCF82080046820
:101130004FEA420C06FA0CF7BC430F7907F003079D
:1011400007FA0CF7274307604C6814F4403F70D04F
:101150003C4C276847F480472760246822F0030747
:1011600004F480440094384C07EB040CDCF8084885
:1011700097074FEA177809FA08F7BC43334FB8428C
:1011800002D1002724E054E0314FB84201D10127B9
:101190001EE0304FB84201D1022719E02E4FB8426D
:1011A00001D1032714E02D4FB84201D104270FE0ED
:1011B0002B4FB84201D105270AE02A4FB84201D18E
:1011C000062705E0284FB84201D1072700E008278D
:1011D00007FA08F72743CCF80878DAF800405746B2
:1011E000D1F804C09C435FEACC2C00D51C433C6082
:1011F000DBF800405F46D1F804C09C435FEA8C2CCA
:1012000000D51C433C60DEF800407746D1F804C0AE
:101210009C435FEA8C3C00D51C433C60084F083F70
:101220003C68D1F804C09C435FEACC3C00D51C4329
:101230003C60521C102AFFF42FAFBDE8F88F00006D
:10124000083C0140443802400030014000000240A8
:101250000004024000080240000C0240001002405E
:101260000014024000180240001C024000690840BF
:1012700000D001207047426921EA02030A4043EA94
:101280000241816170470AB1816170470904FBE73F
:1012900001488068704700003000002002488168E3
:1012A0000278114481607047300000200B4810B56F
:1012B000016841F400710160016841F480610160DE
:1012C000016841F480710160032000F06FF80F2085
:1012D00000F006F800F024F8002010BD003C0240A9
:1012E00070B50D4D04464FF47A712878B1FBF0F0DB
:1012F0000A490968B1FBF0F000F00AFB48B9102C6C
:1013000007D200222146501E00F030F800206C6009
:1013100070BD012070BD0000300000203C000020A6
:101320000A4808B5016841F480410160006800F492
:10133000804000900548001F016841F08051016025
:10134000006800F08050009008BD00004438024062
:10135000002809DB00F01F020121914040098000B4
:1013600000F1E020C0F8001170470000F0B40E4B0F
:101370001B680C46C3F30223C3F10705042D00D9F3
:101380000425191D072901D2002300E0DB1E0126D8
:1013900006FA05F1491E214099409E40761E1640EE
:1013A0003143F0BC01F01DBD0CED00E0064900F03A
:1013B000070208684FF6FF03184040EA0220034A7C
:1013C00010430860704700000CED00E00000FA05D3
:1013D0002DE9F0470E46050065D0DFF81481D8F8F6
:1013E0000000F7B200F00700B04207D288F80070A2
:1013F000D8F8000000F00700B04254D128683D4CF6
:10140000810712D5400703D5206840F4E0502060E2
:101410002878000703D5206840F4604020602068E9
:10142000A96820F0F000084320602878C0072DD07C
:10143000304968680839012812D0022813D00328DF
:1014400011D00968890700292DDA216821F00301EC
:1014500001432160FFF71CFF814641F2883A0EE00C
:1014600009688903EFE709688901ECE7FFF710FFD6
:10147000A0EB0901514502D90320BDE8F08720689F
:10148000696800F00C00B0EB810FEFD1D8F80010C4
:10149000404601F00701B14207D90770006800F02B
:1014A0000700B04201D00120E7E72878400705D5C2
:1014B0002068E96820F4E05008432060287800079D
:1014C00006D52068296920F4604040EAC100206008
:1014D00000F038F82168084AC1F30311515CC84094
:1014E0000649086006480068FFF7FAFE0020C4E7D6
:1014F000003C0240083802408E4700083C000020B3
:10150000340000200448054900680968044AC1F312
:101510008221515CC84070473C00002008380240DE
:101520009E4700080448054900680968044AC1F359
:101530004231515CC84070473C00002008380240EE
:101540009E470008154810B5006810F00C021448BA
:1015500013D04110042A0FD0082A0ED10F4C241F9B
:101560002268236802F03F025B0207D52068C0F3BF
:101570008810A0FB010106E0084610BD2168C1F3F8
:101580008811A1FB00010023FEF776FE2168C1F35C
:101590000141491C4900B0FBF1F010BD0838024080
:1015A0000024F4002DE9F84F04006ED02078DFF815
:1015B0004C93C007A9F104054AD009F10400016861
:1015C000C1F38101012908D00068C0F3810002281D
:1015D0000AD1D9F80000400206D52868800337D523
:1015E00060680028E1D033E06068B0F5803F10D03B
:1015F000B0F5A02F286810D020F48030286028682B
:1016000020F4802028606068A8B1FFF741FE0646FC
:101610000DE0286840F48030F4E740F48020286032
:10162000F7E700BFFFF734FE801B642873D82868F3
:101630008003F7D50CE0FFF72BFE064605E000BF60
:10164000FFF726FE801B6428F0D828688003F7D4B3
:101650002078DFF8AC8280074FF0000A3ED5A7481B
:10166000001D016811F00C0F08D00068C0F3810064
:1016700002280BD1D9F80000400207D4286880075F
:1016800016D5E068012800D112E033E1E068B8B176
:101690000120C8F80000FFF7FBFD064605E000BF8B
:1016A000FFF7F6FD801B0228C0D828688007F7D511
:1016B0002868216920F0F80040EAC10028600DE0A8
:1016C000C8F800A0FFF7E4FD064604E0FFF7E0FDE0
:1016D000801B02281FD828688007F7D420780007CD
:1016E00022D5864F87486169703771B10121016049
:1016F000FFF7CEFD064604E0FFF7CAFD801B022877
:1017000009D838688007F7D50EE0C0F800A0FFF7C9
:10171000BFFD064605E082E0FFF7BAFD801B022808
:101720007DD838688007F7D42078400768D5DFF87F
:10173000CCB100270BF13C0BDBF80000C0000BD450
:10174000DBF8001041F08051CBF80010DBF800000E
:10175000012700F0805000906B4E3068C00510D417
:10176000306840F480703060FFF792FD009005E033
:10177000FFF78EFD0099401A022850D83068C00546
:10178000F6D55E4EA0686C3601280FD0052830686B
:1017900010D020F001003060306820F0040030608C
:1017A000A068B8B1FFF774FD00900FE0306840F01A
:1017B0000100F4E740F004003060F7E7FFF768FD50
:1017C0000099411A41F28830814266D8306880071A
:1017D000F4D50EE0FFF75CFD009007E0FFF758FD41
:1017E0000099411A41F28830814256D8306880070A
:1017F000F4D42FB1DBF8001021F08051CBF80010A9
:10180000A069C8B33D49091D0968C1F381010229D6
:101810004AD00228504607D0C8F8600000E03CE0FB
:10182000FFF736FD04463BE04746C8F86000FFF787
:101830002FFD064605E000BFFFF72AFD801B0228AA
:101840002BD828688001F7D4D4E907010843A16A9E
:101850002E4A490802EB0141626A41EA82110843BB
:1018600094F82C1040EA0161C9F800100120386694
:10187000FFF70EFD044606E03EE000BFFFF708FD5F
:10188000001B022809D828688001F7D534E000BF82
:10189000FFF7FEFC001B022802D90320BDE8F88FE9
:1018A00028688001F4D427E00128F7D0D9F8000097
:1018B000E26900F4800191421CD1226A00F03F01EC
:1018C000914217D147F6C071626A0140B1EB821FA5
:1018D00010D1A26A4FF0FF3300F4403103EB520203
:1018E000B1EB024F06D194F82C1000F07060B0EB11
:1018F000016F01D00120D1E70020CFE7043802407A
:1019000000004742800E4742007000400000FFFF89
:1019100010B5401EB0F1807F01D3012010BD4FF003
:10192000E02460610F21601701F05BFA0020A061E4
:1019300007202061002010BD70B590F83C20012ADE
:1019400032D0012480F83C40022280F83D20036818
:101950005A689D6822F070060A6832435A60134B39
:1019600002689A4214D0B2F1804F11D0104B9A42C3
:101970000ED0104B9A420BD00F4B9A4208D00F4B0F
:101980009A4205D00E4B9A4202D00E4B9A4204D195
:10199000496825F080031943916080F83D4000219B
:1019A00080F83C10084670BD022070BD0000014068
:1019B0000004004000080040000C0040000401400A
:1019C000004001400018004010B5040003D094F816
:1019D0003D0010B107E0012010BD002084F83C005C
:1019E000204600F01FF8022084F83D00211D2068E9
:1019F00000F07CFF012084F8460084F83E0084F863
:101A00003F0084F8400084F8410084F8420084F8E4
:101A1000430084F8440084F8450084F83D00002029
:101A200010BD000008B50068B0F1804F08D105482E
:101A3000016841F001010160006800F001000090C0
:101A400008BD00004038024090F83D10012901D047
:101A500001207047022180F83D100068114988423A
:101A600014D0B0F1804F11D00F4988420ED00F49E9
:101A700088420BD00E49884208D00E49884205D0D2
:101A80000D49884202D00D49884204D1816801F095
:101A90000701062903D0016841F00101016000201F
:101AA00070470000000001400004004000080040B2
:101AB000000C0040000401400040014000180040BC
:101AC00070B5044690F83C000025012817D0012687
:101AD00084F83C60022084F83D002068826822F08F
:101AE000770222F47F4282600868502838D00DDCEB
:101AF00020284FD005DC90B3102811D14AE00220F5
:101B000070BD302846D040280AD13BE060282FD055
:101B100070280DD0B0F5805F03D0B0F5005F12D013
:101B2000012584F83D60002084F83C00284670BD03
:101B3000CB68D1E90121206800F03CFF2068816872
:101B400041F0770109E0CB68D1E90121206800F07C
:101B500031FF2068816841F480418160E1E719E04C
:101B6000CA684968206800F037FF5021206806E005
:101B7000CA684968206800F040FF6021206800F0D2
:101B800023FFCEE7CA684968206800F025FF40219E
:101B90002068F4E7226801461046F0E7704700002D
:101BA000006882B001684168009101684168009155
:101BB0000168416800910168416800910C498842C0
:101BC00003D101220B490C480DE00C4A094990420F
:101BD00003D101220A48891C05E00A4A904205D136
:101BE00001220948C91C02B000F0C0BB02B0704716
:101BF0000010014014000020940100200048004023
:101C00001C0200200014014060020020F8B50168A9
:101C100004460868CA684B6910F00F0F4FF00005C2
:101C200059D003F0010602F49077374365D0C1071D
:101C300005D0D10503D5216C41F001012164410794
:101C400005D5D90703D0216C41F002012164810739
:101C500005D5D90703D0216C41F0040121640107A7
:101C600007D502F02001314303D0216C41F0080177
:101C70002164216C00293AD0800604D5900602D553
:101C8000204600F054FF20684069216CC0F38010AA
:101C9000090700D460B3204600F014FF20684069B3
:101CA000400621D52068143050E8001F21F0400183
:101CB00040E80012002AF5D1A06BA8B16C4901657B
:101CC000A06BFFF745F8002811D0A06B016D01B0A3
:101CD000BDE8F040084783060FD593060DD5204692
:101CE000BDE8F84000F023BF2046FFF759FFF8BDDC
:101CF0002046FFF755FF2564F8BD266B2023012EF3
:101D000079D1C60677D5D60675D50868486800909B
:101D10004869400640D5A16B086840680004000C83
:101D2000EAD0A28D8242E7D9E085C869B0F5807F0C
:101D30002DD020680C3050E8001F21F4807140E85D
:101D40000012002AF5D12068143050E8001F21F05D
:101D5000010140E80012002AF5D12068143050E853
:101D6000001F21F0400140E80012002AF5D184F85C
:101D70003E30256320680C3050E8001F21F0100130
:101D800040E80012002AF5D1A06BFEF798FFA08D65
:101D9000E18D401A81B229E0A08DE18D401A81B217
:101DA000E08D0028A8D00029A6D020680C3050E88B
:101DB000002F22F4907240E80026002EF5D1206812
:101DC000143050E8002F22F0010240E80026002ED7
:101DD000F5D184F83E30256320680C3050E8002FA0
:101DE00022F0100240E80023002BF5D12046FFF737
:101DF000D5FEF8BDFFE705062BD5150629D594F8C5
:101E00003D002128F5D1A068B0F5805F01D120699F
:101E1000B0B1206A411C2162216800784860E08CE2
:101E2000401E0004000CE084E3D12068C16821F06A
:101E30008001C1602068C16841F04001C160D8E7FD
:101E4000206A0088C0F308004860206A801C206275
:101E5000E5E74006CDD55006CBD5CA68204622F02E
:101E60004002CA6084F83D3000F078FBC1E7000012
:101E70001F2A000870B5040004D094F83D00002526
:101E800010B106E0012070BD84F83C50204600F0FF
:101E900023F8242084F83D002068C16821F4005113
:101EA000C160204600F0A4FE2068016921F4904141
:101EB00001612068416921F02A0141612068C168FF
:101EC00041F40051C1602564202084F83D0084F86D
:101ED0003E00002070BD00002DE9F04F87B00546A0
:101EE00014216846FEF72DFBE248E14B2A68E149E0
:101EF000103800244FF002094FF0080A9A4231D1FD
:101F00000A6842F480120A60096801F480110591A0
:101F1000016841F004010160016801F004010591CC
:101F2000016841F0080101600068032600F0080024
:101F300005909814CDE90009CDE902465546694659
:101F4000CDF810A0CC48FFF799F80420CDE900099E
:101F5000CDE9024669460495C848FFF78FF807B0F7
:101F6000BDE8F08FC64B40271E154FF001084FF01B
:101F7000070C4FF0006B9A425AD1BE49091D0A68FE
:101F800042F010020A60096801F010010591016831
:101F900041F001010160006802AA00F00100059013
:101FA0005815CDE90009E24682E810056946B548B2
:101FB000FFF764F83046CDE90009CDF80880CDE997
:101FC000038A6946AF48FFF759F8B04EAE48B7608C
:101FD000C6E9000B0015C6E903407461B461F46101
:101FE000346230467462FEF795FF08B1FEF765FE75
:101FF0006E63B563A54EA448603678383060C6E994
:1020000001B40015C6E903407461B461F46134623F
:1020100030467462FEF77EFF08B1FEF74EFEAE63F7
:10202000002211462520B563FFF7A0F9252062E0C4
:10203000974B9A4262D10A6842F400320A600968FA
:1020400001F400310591016841F00101016000686F
:1020500001AA00F001000590042000900220E14652
:1020600082E8110369468748FFF708F80220CDF897
:1020700000A0CDE901086946CDE903898148FEF752
:10208000FDFFDFF80882834908F1C0084046C8F820
:102090000870C0E90346C8F81440C8F81840C8F8EA
:1020A0001C40C8F82040C8E9001BC8F82440FEF7CF
:1020B00031FF08B1FEF701FE7648774FC5F834804E
:1020C0001838C8F838503860C7E901B4C7E9034682
:1020D0007C61BC61FC613C6238467C62FEF71AFFA1
:1020E00008B1FEF7EAFDAF63002211462620BD636A
:1020F000FFF73CF92620FFF72BF930E7674B9A42B0
:1021000058D10A6842F480220A60096801F48021EB
:102110000591016841F0020101600068B24600F0DB
:102120000200CDE904C0CDE90248CDE900A9664628
:1021300069465B48FEF7A2FF4FF400600090CDE9CE
:102140000198CDE9038669465548FEF797FF524E40
:102150005048603678383060C6E901B4C6E9034AB1
:102160007461B461F461346230467462FEF7D2FE89
:1021700008B1FEF7A2FDAE63B563474E4548C036D1
:102180004838C6E90274C6E904A4B461F461346253
:102190007462C6E9000B3046FEF7BCFE08B1FEF7DC
:1021A0008CFD6E63002211462720B563FFF7DEF831
:1021B0002720A0E73B498A429FD12E49091D0A6882
:1021C00042F020020A60096801F0200105910168CF
:1021D00041F0040101600068BB4600F00400CDE955
:1021E00004A0254FCDE90248CDE900B9694638463B
:1021F000FEF744FF80200090CDE90198CDE9038AE5
:1022000069463846FEF73AFF1F48274F90384FF08F
:1022100020683860C7E90184C7E903467C61BC6176
:10222000FC613C6238467C62FEF774FE08B1FEF742
:1022300044FDAF63BD631C4F134860371838C7E9CE
:1022400003467C61BC61FC613C627C6287E80109F9
:102250003846FEF75FFE08B1FEF72FFD6F630022E0
:1022600011464720BD63FFF781F8472043E7000090
:10227000005000404038024000080240000C02407C
:102280000010014000000240B8640240A402002097
:1022900000440040A0600240C40300200048004009
:1022A0000004024000140140E40400202DE9F84F2E
:1022B000044690F83E009A4616460D46202853D113
:1022C000FDB1F6B194F83C0001284DD0012084F80E
:1022D0003C0000272764222084F83E002763FEF795
:1022E000D7FFA6858146E685A0684FF48058404513
:1022F00001D1206940B12E465FF0000584F83C70A2
:1023000027E00120BDE8F88F0026F7E74B460022C2
:1023100020212046CDF800A000F00DFD08B10320DB
:10232000F0E726B1A06840451BD038B108E020682E
:102330004068C0F3080025F8020B07E0206980B16F
:102340002068406800F07F0006F8010BE08D401E19
:10235000E085E08D0028D9D1202084F83E000020BF
:10236000D0E720684068EFE70220CBE790F83E30E6
:10237000202B0ED159B152B190F83C30012B08D02E
:10238000012380F83C300023036300F0B7BC012038
:10239000704702207047000070B50646FEF778FFD0
:1023A000054617493068174C884208D16068401CC0
:1023B0006060012204F114011348FFF7D7FF1149AF
:1023C000124A3068143190420BD12069281A04D483
:1023D000A068401CA060AD1C256101220C48891C2E
:1023E00008E00C4A904209D1E068401CE0600122FC
:1023F0000948C91CBDE87040FFF7B8BF70BD0000B8
:10240000001001400000002094010020004800401E
:102410001C02002000140140600200202DE9F84356
:10242000044690F83D001F4616460D4620284CD124
:10243000C5B1BEB194F83C00012846D0012084F813
:102440003C004FF00008C4F84080212084F83D0093
:10245000FEF71EFFA6848146E684A068B0F5805F83
:1024600003D004E00120BDE8F883206928B12E469E
:102470005FF0000584F83C800EE00026FAE780213A
:10248000204600F058FCA0B9AEB116F8010B216847
:102490004860E08C401EE084E08C4B464FF0000228
:1024A00000970028EBD14FF04001204600F043FC9C
:1024B00030B10320D7E735F8020BC0F30800E6E798
:1024C000202084F83D000020CDE70220CBE700006B
:1024D00070B5044690F83D00202836D191B38AB3F8
:1024E00094F83C00012830D0012084F83C0021629F
:1024F000A284E28400252564212084F83D00636BDA
:102500001348D863636B13481864636B1248D8642C
:10251000606B134605652668606B321DFEF764FD2F
:1025200021686FF04000086084F83C502068143047
:1025300050E8001F41F0800140E80012002AF5D168
:10254000002070BDFFE70120FBE70220F9E7000053
:10255000792A0008BB2A00082F2A00087047704714
:10256000FEE70000294808B5016841F480010160D8
:10257000016801F480010091016841F400110160DB
:102580000068002200F40010009011460C20FEF7B5
:10259000EDFE0C20FEF7DCFE002211460E20FEF7B9
:1025A000E5FE0E20FEF7D4FE002211461020FEF7B5
:1025B000DDFE1020FEF7CCFE002211461120FEF7B2
:1025C000D5FE1120FEF7C4FE002211463920FEF789
:1025D000CDFE3920FEF7BCFE002211463A20FEF760
:1025E000C5FE3A20FEF7B4FE002211464520FEF754
:1025F000BDFE4520FEF7ACFE002211464620FEF748
:10260000B5FEBDE808404620FEF7A2BE30380240C5
:10261000F0B587B014216846FDF793FF21480025E7
:10262000016841F080010160016801F080010591BD
:10263000016841F001010160016801F001010591AB
:10264000016841F002010160016801F00201059199
:10265000016841F004010160016801F00401059185
:10266000016841F00801016000680F4F00F00800A8
:102670000590012202213846FEF705FE01260224BC
:102680000096CDE9015469463846FEF7F7FCCDE9DE
:10269000004669463846CDE90245FEF7EFFC07B033
:1026A000F0BD0000303802400000024010B586B096
:1026B00000241648009401940294039404944FF06B
:1026C00080410594016044F29F11C0E90114611E2C
:1026D000C0E903148461FFF777F908B1FEF7EDFA5A
:1026E0004FF48050009069460848FFF7E9F908B1B7
:1026F000FEF7E3FA049404A904480594FFF71CF9D3
:10270000002801D0FEF7D9FA06B010BD080100205C
:102710000D4810B50B4901604FF41651416000217E
:102720004FF40052C0E902120C22C0E90412816188
:10273000C161FFF79FFB002803D0BDE81040FEF702
:10274000BCBA10BD00500040500100200D4810B52B
:102750000B4901604FF41651416000214FF40052C3
:10276000C0E902120C22C0E904128161C161FFF7C5
:1027700081FB002803D0BDE81040FEF79EBA10BDD3
:1027800000100140940100200D4810B50B49016074
:102790004FF41651416000214FF40052C0E902127B
:1027A0000C22C0E904128161C161FFF763FB0028BC
:1027B00003D0BDE81040FEF780BA10BD00440040D1
:1027C000D80100200D4810B50B4901604FF4165197
:1027D000416000214FF40052C0E902120C22C0E90E
:1027E00004128161C161FFF745FB002803D0BDE8F9
:1027F0001040FEF762BA10BD004800401C020020E5
:102800000D4810B50B4901604FF41651416000218D
:102810004FF40052C0E902120C22C0E90412816197
:10282000C161FFF727FB002803D0BDE81040FEF789
:1028300044BA10BD0014014060020020FEE7FEE72C
:1028400070477047FEF72ABD30B593B03021684617
:10285000FDF777FE14210CA8FDF773FE1D48002537
:10286000016841F080510160006800F080501190D3
:102870001948016841F4804101600068022400F4B5
:102880008040119001200090000401908001CDE96A
:10289000064008AA0420A82182E813000B9068468D
:1028A000FEF780FE08B172B6FEE70CA90F2081E8A2
:1028B00031004FF4A0500F904FF48050109005213C
:1028C0000CA8FEF785FD002801D072B6FEE713B014
:1028D00030BD0000403802400070004002480168EE
:1028E00041F470010160704788ED00E0F0B50268C6
:1028F000254C264D264E274F274B4FF0804CA042AB
:1029000009D0604507D0A84205D0B04203D0B842F4
:1029100001D0984204D122F0700E4A6842EA0E02B9
:10292000A0421BD0604519D0A84217D0B04215D0A4
:10293000B84213D0984211D0184DA8420ED0184D6D
:10294000A8420BD0174DA84208D0174DA84205D079
:10295000164DA84202D0164DA84203D122F440756C
:10296000CA682A434D6922F080022A4302608A68BD
:10297000C2620A688262A04201D0984201D109690C
:10298000016301214161F0BD0000014000040040ED
:1029900000080040000C00400004014000400140DD
:1029A000004401400048014000180040001C004065
:1029B0000020004010B5846842EA032224F47F44DA
:1029C0000A432243826010BD826822F070020A43EB
:1029D00042F007018160704710B5036A046A24F071
:1029E00001040462846924F0F00444EA021423F030
:1029F0000A020A438461026210BD10B5036A23F023
:102A0000100303628369046A23F4704343EA0232C9
:102A100024F0A00343EA01118261016210BD10B5E8
:102A2000806B0021C185C184FFF7BAF810BD70B575
:102A3000846B2068406994F83D10C0F3C0100025F5
:102A4000212904D118B1E584204600F062F82068FD
:102A5000406994F83E10C0F38010222904D118B1C7
:102A6000E585204600F02EF8206C40F01000206430
:102A70002046FFF795F870BD10B50146806B0968D8
:102A80000968C90516D40021C1840168143151E8D0
:102A9000002F22F0800241E80023002BF5D10168CD
:102AA0000C3151E8002F42F0400241E80023002B96
:102AB000F5D110BDFFF752FD10BD10B5806BFFF7CB
:102AC0004EFD10BD01680C3151E8002F22F49072C8
:102AD00041E80023002BF5D10168143151E8002FA3
:102AE00022F0010241E80023002BF5D1016B0129FE
:102AF00009D101680C3151E8002F22F0100241E8A1
:102B00000023002BF5D1202180F83E100021016325
:102B1000704701680C3151E8002F22F0C00241E8F3
:102B20000023002BF5D1202180F83D10704708B517
:102B300090F83E10222901D0022008BD82684FF48F
:102B400080539A4201D1016921B1816A9A421BD016
:102B50004AB10AE00268816A5268C2F308020A8038
:102B6000816A891C08E0026972B10268526802F049
:102B70007F020A70816A491C8162C18D491E090465
:102B8000090CC18503D019E002685268F1E70168B9
:102B9000CA6822F02002CA600168CA6822F4807202
:102BA000CA6001684A6922F001024A61202180F866
:102BB0003E10016B012903D0FFF7EEFB002008BD9A
:102BC0000021016301680C3151E8002F22F010024E
:102BD00041E80023002BF5D101680A68D20602D52E
:102BE0000A6849680091818DFEF7D8FFE6E700008A
:102BF00070B5044600680169E26821F44051114350
:102C000001612169A068E2690843616911430843D1
:102C10002168CA6849F20C639A430243CA6020687B
:102C20004169A26921F44071114341613149206831
:102C3000884202D03049884202D1FEF773FC01E09D
:102C4000FEF760FCE2690023192164253226B2F503
:102C5000004F626828D0A0FB0101930F9200FDF79E
:102C60000BFB0146B0FBF5F06FF01802504301EB8F
:102C7000800006EB0010B0FBF5F000F0F002B1FBB5
:102C8000F5F002EB0012B1FBF5F06FF018035843BA
:102C900001EB800006EB0010B0FBF5F000F00F0038
:102CA00021681044886070BDA0FB010192185B414F
:102CB000FDF7E2FA0146B0FBF5F00201B1FBF5F0D9
:102CC0006FF01803584301EB800006EBC000B0FB27
:102CD000F5F000F0F80002EB4002B1FBF5F05843CC
:102CE00001EB800006EBC000B0FBF5F000F0070040
:102CF000D6E7000000100140001401408162828587
:102D0000C28500210164222280F83E2080F83C1018
:102D1000016921B10168CA6842F48072CA60016821
:102D20004A6942F001024A610068C16841F020012D
:102D3000C160002070472DE9F041984617460E46C5
:102D40000446069D27E0681C25D02DB1FEF7A0FAA9
:102D5000A0EB0800A8421ED920680C3050E8001FE4
:102D600021F4D07140E80012002AF5D12068143017
:102D700050E8001F21F0010140E80012002AF5D1BF
:102D8000202084F83D0084F83E00002084F83C00B8
:102D90000320BDE8F0812068006836EA000004D016
:102DA0000020B842CFD00020F3E70120F9E700006F
:102DB0000148FEF72BBF0000940100200148FEF7F8
:102DC00025BF0000D80100200148FEF71FBF00000A
:102DD0001C0200200148FEF719BF0000600200201D
:102DE000FEE70907090E002804DB00F1E02080F867
:102DF0000014704700F00F0000F1E02080F8141D6F
:102E0000704700002DE9FC430024651E2346274639
:102E1000009426462146EC464FF00109CDF80440C7
:102E200000EB81029269B2F1FF3F0BD06AB1A2F1CF
:102E30000108B8F1050F17D81CF80280B8F1000F8F
:102E400012D104E00D46641C04E05B1C02E00CF8A7
:102E50000290761C491C0629E2DB012B04DC012CC4
:102E600002D10BB9052E02D00020BDE8FC8300EB97
:102E7000850087610120F8E7FCB500256C1E0095F0
:102E8000294601266B46019550F82120571C05D094
:102E9000571E052F11D89F5C7FB902E00C466D1CB0
:102EA00000E09E54491C0629EEDB012D05D10122CC
:102EB000995C21B1521C062AFADD0020FCBD40F8C5
:102EC00024200120FCBD000010B5FEF7E1F901F05F
:102ED00091FA41EC100B0B4880ED000B0A4890ED85
:102EE000001B51EC100B53EC112B01F05DFB9FED1F
:102EF000071B53EC112B01F025F9064AC2E900012A
:102F000010BD00002800002020000020000000006C
:102F100000408F40180000200A498B6B4A6F934293
:102F200004D0094B0122C86643F82020486E0122D4
:102F3000401C486605490620087002210448FEF737
:102F4000A2B900006000002048000020010000201D
:102F500000000240F0B52B4B586E03EB8000006C74
:102F600003EB800103288D6A0DD002280DD00222C8
:102F70004FF0FF30014652B1012A0CD0022A0ED088
:102F80000026374637E00022F2E70122F0E701246D
:102F90000220032106E002240320012102E0042490
:102FA00003200221184F57F82460012E19D04FF04A
:102FB000000C461C03D057F82060012E00D00026DC
:102FC000B1F1FF3F03D057F82170012F00D0002747
:102FD000BCF1000F0FD066B15FB12AB1022A06D052
:102FE00007E04FF0010CE4E7022D03DA01E0032DC6
:102FF00000DD2046F0BD002EFCD10FB10846F0BD2B
:10300000D86EF0BD6000002048000020F0B588B008
:103010000024009401940294214602AD6B464FF0C7
:10302000010C039450F82120561E052E01D89E5CF9
:103030003EB16C54491C0629F4DB0022A95C29B17D
:103040000AE003F802C005F801C0F3E701215E5C65
:103050000EB3491C0629FADD521C062AEEDB0023BA
:10306000049405940694194606AD04AECDF81C40B0
:1030700000EB8102926952EA030711D0571E052F17
:1030800001D8B75C77B16C54491C0629F0DB0021EC
:103090006A5C62B112E040F8221003F801C0DBE77D
:1030A000012301E006F802C005F801C0ECE753B1C6
:1030B0000122B75C67B1521C062AFADD491C0629B9
:1030C000E6DB08B0F0BD00EB810201239461F5E777
:1030D00000EB8107BA6106F802C0EFE701280BD0C8
:1030E000042809D0022809D0052807D0032807D0D2
:1030F000062805D000207047012070470220704745
:1031000003207047F0B5002688B03246049604AB21
:103110000124059650F822104D1E062D21D25D5C2B
:10312000FDB9521C5C54062AF4DB0023009601967C
:103130001D461A464FEA0D0600EB8201896929B146
:103140004F1E052F0DD8775C5FB901E05B1C01E0D5
:1031500074546D1C521C062AEEDB012B01D1052D87
:1031600002D0002008B0F0BD0120FBE72DE9F04FB0
:103170002DED028B85B0FEF799F8FFF765FBFFF7A1
:1031800047FAFFF7EFF9FFF7E1FAFFF7FDFAFFF76C
:1031900019FBFFF735FBFFF7BBFAFFF787FA4FF490
:1031A0004870FDF759FFFE480068416941F0010190
:1031B00041610122FB49FA48FFF7D8F8FA48006854
:1031C000416941F001014161F64C0122A11CF64820
:1031D000FFF7CCF8F5480068416941F00101416111
:1031E0000122E11CF148FFF7C1F8F14800F0E8FCCA
:1031F000F048FEF7E9FBF04E012202213046FEF7CF
:1032000042F8DFF8B8A34FF001084FF00009AAF127
:1032100078059FEDEB8B4FF0020B01213046FEF756
:1032200025F801280AD1DF481438417831B9042142
:103230004170012202213046FEF725F8D94C143C9A
:1032400060781F28E9D2DFE800F010111F2D353B10
:1032500042496B90959BB9BDD8EFEEEDECEBEAE9F6
:10326000E8E7E6E5E4E3E2E1E000D6E7D3487821E9
:103270007838FDF766F9C4F80890C4F80C90C4F8E3
:10328000049084F801B0C8E7CF4A0721CDE9008156
:10329000CDE90282CDA36422CFA1C84800F0F0FBA3
:1032A0000320C9E1C549C548783900F07BFB84F8A3
:1032B0000190DBE200F07EFDC4F804800520BBE154
:1032C00060680128A9D1C4F804900620B4E1686EB2
:1032D000032801DB1B20AFE10720ADE1696FA86B7C
:1032E000814201D1E96E06E0686E05EB8000006C5A
:1032F00005EB8000816A686E05EB8000006C0AEBCC
:10330000800293686B6752F8042C2A67C4F80C900B
:10331000C4F8049000F0D2FC00F034FE08208BE1E9
:10332000FFF7D2FDE06801280DDB606801280ADBA9
:10333000C4F80890C4F80C90C4F804900A20607097
:1033400084F8008025E09FEDA70B53EC102B94ED43
:10335000060B51EC100B01F0F1F886D2002202218D
:103360003046FDF790FF092066E1C4F80C80C4F8F0
:103370000480D1E700F034FD00F004FE0B205BE197
:10338000FFF7A2FDA068012805DBC4F808900D2016
:1033900067E1012272E19FED950B53EC102B94ED48
:1033A000060B51EC100B01F0C9F83FF65EAF00229E
:1033B00002213046FDF767FF0C203DE1C4F808808C
:1033C0000B2070E0A96B286F884202D1FFF7C2FD85
:1033D00006E0686E05EB8000006C05EB8000C069BC
:1033E00038B1052805D003202178814203D00E2072
:1033F00022E10220F8E711201EE1A96B286F884224
:1034000013D1FFF7A7FD074616E05DE256E243E25F
:1034100031E22DE206E2C3E1BDE187E16DE135E194
:1034200031E19DE07BE075E03FE0686E05EB8000F8
:10343000006C05EB8000C769F7B1052F1CD0032095
:10344000C4F80C90C4F80490394600F00DFC032237
:1034500068A16948FFF73CF84FF4FA60FDF7FCFDFE
:1034600067B1012F0DD0022F0ED0032F0FD0042FE4
:1034700010D0052F11D015E00220E1E706225FA150
:103480000DE006225FA10AE0062260A107E0032208
:1034900060A104E0052260A101E0052260A143488B
:1034A000FFF716F80F206070B9E1FFF70DFD6068B7
:1034B000012821DBE06801281EDBC4F80C90C4F869
:1034C0000490012202213046FDF7DDFEA96B286F32
:1034D000884202D1FFF73EFD06E0686E05EB8000F2
:1034E000006C05EB8000C06920B1052802D00320E4
:1034F000207080E70220FBE79FED3A0B53EC102B86
:1035000094ED060B51EC100B01F018F83FF6ADAE40
:103510001020AAE1C4F80480C4F80C80C2E72F6F21
:10352000A86BB84203D1FFF715FD02460BE001205E
:1035300055F82010B94203D105EB8000C26902E0C2
:10354000401C0628F4DDC4F80890C4F80C90C4F8B8
:1035500004901A493846783900F068FC1220A2E736
:10356000FFF7B2FC686EAA6B05EB8000296F006C58
:103570008A4205EB8000C06901D1FFF7EBFC411ED8
:1035800003295BD8A168022958DBC4F80890AA6B0C
:10359000296F8A424AD0094AE866903A44E000001E
:1035A00094010020140000201C0200206002002072
:1035B000500100200801002000000240D800002037
:1035C0009A99999999990940905F010052455155EE
:1035D0004553540A00000000504552464543540AE2
:1035E0000000000000000000000018400000000083
:1035F0000000084076313800D8010020412D3435D4
:103600002E300000412D36382E320000412D32334D
:103610002E320000413233004136382E3300000094
:103620004134352E3200000042F820800122022170
:103630003046FDF728FE14206070EEE508B105283D
:1036400011D1A16802290EDBC4F80890C4F80490D7
:10365000AA6B296F8A4203D09F4AE86642F820800D
:103660001420607095E694ED060B53EC182B51EC8A
:10367000100B00F063FFE0D81320F6E00221304683
:10368000FDF701FEC9E5C4F808B067E7A96B686FEC
:10369000884201D1EF6E06E0686E05EB8000006C99
:1036A00005EB8000876A1520607000F0A5FA6FB105
:1036B000012F0FD0022F14D0032F16D0042F18D0B3
:1036C000052FBAD10522AFF2A80106E00622AFF21B
:1036D000D40102E00622AFF2D4018048FEF7F8FEE2
:1036E0009BE50622AFF2DC01F7E70322AFF2DC0133
:1036F000F3E70522AFF2E001EFE7A96B686F8842BC
:1037000001D1E96E06E0686E05EB8000006C05EB08
:103710008000816A41B1052906D00320C4F80490D5
:1037200000F0A2FA1620BEE60220F7E7FFF7CCFB76
:103730006068012822DBE06801281FDBC4F80C90D8
:10374000C4F80490A96B686F884201D1E86E06E066
:10375000686E05EB8000006C05EB8000806A58B154
:10376000052809D003202070182060700122022152
:103770003046FDF788FD52E00220F4E79FED580B3C
:1037800053EC102B94ED060B51EC100B00F0D6FE11
:10379000A6D8172069E0C4F80480C4F80C80C1E7FB
:1037A0006F6FA86BB8420BD1686EE96E05EB8000B5
:1037B000006C05EB8000C06981420FD100910DE0E3
:1037C0005FF0010055F82010B94204D105EB8000EC
:1037D000C069009002E0401C0628F3DDC4F80C909C
:1037E000C4F80490FFF770FBA068022809DBC4F856
:1037F0000890394938461831009A00F017FB192013
:1038000051E69FED390B53EC102B94ED060B51EC68
:10381000100B00F093FEBFF428ADC4F808B000F020
:10382000B1FBFAE4FFF750FBA068022813DBC4F8F1
:103830000890C4F80490696FA86B884201D1E86EC3
:1038400006E0686E05EB8000006C05EB8000806A86
:10385000FFF762FBE1E494ED060B53EC182B51ECFF
:10386000100B00F06BFEDCD81A206070002205E718
:10387000C4F808B0C3E704221DA11F48FEF728FEC4
:1038800002221EA11548FEF723FE02221CA11D489C
:10389000FEF71EFE1C2006E6FFF716FB60680128F7
:1038A00001DB1D20C8E61FEDB10B53EC102B94ED8E
:1038B000060B51EC100B00F041FEB2D205B0002017
:1038C000BDEC028BBDE8F08F02213046FDF7D3FC42
:1038D000C820FDF7C1FBF7E7480000206002002088
:1038E0000000000000001440000000000000104034
:1038F00065313030000000009401002041300000AC
:1039000076300000D801002070B50D4604464FF017
:10391000FF3692B0324630212846FCF70AFE3F229D
:1039200021466846FCF734FE00208DF83F0004462F
:1039300019A1684626E011AB10AA18A1FCF714FDE6
:1039400002281DD19DF8441078290CD0B1F1300126
:103950009DF84000A0F13102052A06D805EB800051
:1039600040F8C41C0BE03146F2E7A0F16102052AE1
:1039700006D805EB8000A0F58050C0F8941E641CAA
:1039800005A10020FCF77EFD0028D4D10C2C01D02D
:1039900012B070BD0120FBE72C00000025633A2522
:1039A00063000000F0B587B00C4605461C22334981
:1039B0006846FCF78CFD00204FEA0D0305EB800103
:1039C000896909B143F82100401C0628F6DB002272
:1039D0000120A26353F82010491C4CD0401C06283B
:1039E000F8DD00210327481C55F8216044F82060C9
:1039F00004EB800E53F826C0CEF81CC0D4F838C0B3
:103A0000B44506D1401E90FBF7F607FB1600401C9C
:103A1000E063491C0629E6DBE06BFFF75FFB03462A
:103A200000210120984203D004EB8106491C306438
:103A3000401C0328F6DDE06B00210B46C4F848006B
:103A400004EB830004EB8107006C491CC61C05EBEA
:103A500080005B1C50F8040CF86405EB860004EB56
:103A6000810650F8040C491CF064032BE8DB626605
:103A7000E26607B0F0BDA063B3E70000A847000806
:103A80002DE9FF4FB5B0984640216846DDF810A1FA
:103A9000FCF757FD0024621E302128A8FCF749FDE1
:103AA0000027BB46FDF7F4FB8146002536982E46DD
:103AB00028B100F08BF8FDF7EBFB064607E0012587
:103AC000B8F1000009D000F081F806E02DB9FDF74B
:103AD000DFFB811B37988142F1D2BAF1000F1AD077
:103AE000FDF7D6FBA0EB09014598814213D92FB110
:103AF000302228A93598FCF7EAFC05E04FF0FF32A8
:103B000030213598FCF715FD3598FFF77FFA002036
:103B100039B0BDE8F08F29480A23012234A9006892
:103B2000FEF7C4FB0028D1D19DF8D0000A2808D0A8
:103B30000D28CBD03F2C3BD20DF80400641CE4B21E
:103B4000C4E700210DF80410684610A9FFF7DCFE59
:103B500070B30127302210A928A8FCF7B8FC0BF19C
:103B6000010B10A8FFF7CEFA10B1302210A91AE00D
:103B70004298E8B1302210A91CA8FCF7A8FC002448
:103B80001CA8FFF73FF900B1012443998B4503D3EB
:103B90001CA8FFF771F900B954B11CA8FFF7B2FADD
:103BA00030B130221CA93598FCF791FC0120AFE719
:103BB000002440216846FCF7C4FC87E74000002051
:103BC00001490860704700004000002070B5094DB1
:103BD0000446286800280CD0002C0AD02046FCF7A8
:103BE00057FC82B221462868BDE870406423FEF786
:103BF00015BC70BD4000002070B502222DED028B77
:103C000012A11348FEF764FC00F0BCF99FED118B84
:103C1000124D134C0EE000BFFFF756F995ED000B67
:103C200053EC182B51EC100B00F088FC02D2012051
:103C3000206002E020680028EED0BDEC028B032259
:103C4000BDE8704007A10248FEF742BC66300000A4
:103C50001C020020000000000000004018000020AE
:103C600008000020673137000D4A1278824207D1E0
:103C7000012905DB042903DC0A490120086070479B
:103C8000022806D00328FAD1062207A10848FEF729
:103C90001FBC09B10529F2D1062206A1F6E70000F2
:103CA0000000002004000020613238352E31000071
:103CB00094010020613236342E39000070B52E4C4C
:103CC00006460025606E40B104EB8000C06B04EB3B
:103CD0008000856A681C00D1E56E0A20FDF7BCF9FA
:103CE000022226A12648FEF7F3FB0A20FDF7B4F9CD
:103CF000012E04D0022E05D0032E06D00AE00322A6
:103D000020A104E0022220A101E006221FA12148F7
:103D1000FEF7DEFB606E4FF0020288B11EA11F4865
:103D2000FEF7D6FB0A20FDF797F903221CA11448E1
:103D3000FEF7CEFB4FF4487025B1012D02D007E00D
:103D400018A1ECE7616E04EB8101096C012909D02F
:103D5000042D01D0052D07D1616E04EB8101096CA2
:103D6000032901D1FDF778F9BDE8704004220EA1C6
:103D70000F48FEF7ADBB0000600000207633000066
:103D8000D80100204135300041300000412D353050
:103D90002E35000060020020663100001C02002069
:103DA000682D32006630000061392E3000000000BE
:103DB0009401002010B5012206A10748FEF788FBF8
:103DC0003220FDF749F9BDE81040012201A1034866
:103DD000FEF77EBB730000001C020020D80100200B
:103DE00010B503220BA10C48FEF772FB3220FDF741
:103DF00033F9042209A10B48FEF76AFB4FF47A70ED
:103E0000FDF72AF9BDE81040032207A10548FEF797
:103E10005FBB0000673335001C02002068302E3184
:103E200000000000D8010020763130002DE9F0417B
:103E30000E462DED048B07464FF001089FED419B88
:103E4000424D434C62B1501E9FED428B01283CD83D
:103E5000052242A14348FEF73BFB00F093F830E017
:103E6000032241A13F48FEF733FB00F08BF80EE040
:103E7000FFF72AF895ED000B53EC192B51EC100BC2
:103E800000F05CFB03D200BFC4F8008050E0206863
:103E90000028EDD04CE035A100E035A1BDEC048B4D
:103EA000BDE8F0412F48FEF713BB00BFFFF70CF849
:103EB00095ED000B53EC182B51EC100B00F03EFB72
:103EC000E2D320680028F1D032E0032817D804227A
:103ED00028A12448FEF7FCFA00F054F80BE000BFDC
:103EE000FEF7F2FF95ED000B53EC182B51EC100B85
:103EF00000F024FBC8D320680028F1D018E0052A80
:103F00001CD104221DA11748FEF7E2FA00F03AF88E
:103F10000BE000BFFEF7D8FF95ED000B53EC192B1B
:103F200051EC100B00F00AFBAED320680028F1D052
:103F3000B06B4FF00302B842AFD1ACE7BDEC048BDD
:103F4000BDE8F081CDCCCCCCCCCC04401800002016
:103F50000800002033333333333311406E2D3138B2
:103F6000300000001C0200206E3930007032340036
:103F7000703132006E313830000000006E2D393063
:103F800000000000084910B5096800204862FDF7EC
:103F90007FF900F02FFA054AC2E90001BDE81040A0
:103FA0000148FDF751BD000008010020200000205D
:103FB00010B500290AD00878002807D005487844B1
:103FC000FCF7B6FD002801D0002010BD024878445F
:103FD00010BD0000260800001E08000010B591EA80
:103FE000030F48BF83F0004300F1E682841A71EBAF
:103FF000030C05D2121943EB0C03001B61EB0C01FF
:10400000DFF824E14FEA1154A4EB135C1EEA430FDE
:1040100018BF9EEA445F73D023EA0E03DCF1200E42
:1040200021EA045143F4801332D322FA0CFE10EB40
:104030000E0023FA0CFE41EB0E01CCF1200E03FA28
:104040000EFE10EB0E0051F10001B1F5801FCCF116
:10405000200E32D201EB045112FA0EF2BDE81040EC
:1040600058BF7047401C38BF5FEA420218BF704714
:10407000002814BF20F0010041F100014FEA410384
:1040800013F5001F38BF7047A1F1C04100F050BACE
:10409000012A43EB0302ACF1200CDCF11F0E32BF0E
:1040A0004FF0000E23FA0CF310EB030041EB045128
:1040B000B4EB115FD0D0A1EB045101F58011490898
:1040C0005FEA300001EB04510ED350F1000038BF1D
:1040D00012FA0EFE08D1BDE81040C9E7401C38BFF7
:1040E0005FEA4202CAD1C3E7BDE810404FEA41038C
:1040F00013F5001F38BF7047A1F1C04100F018BA96
:104100009EEA445F08D011EA5E0FBDE8104004BF8C
:1041100001F0004100207047BDE8104070B500F08C
:10412000B9F900BF64FBBE3E0000E0FF491058BF74
:10413000C1F140415B1058BFC3F140438B42EFF3E4
:10414000008070472DE9C04130B4DFF8A0C23CEADE
:10415000111418BF3CEA131400F0EC8081EA030547
:104160001CEA111444EAD57418BF1CEA131500F0B8
:10417000C780A4EB05044FF0004545EAC12145EA9C
:10418000C32341EA505143EA525304F17F749942E8
:1041900004F500344FEAC0204FEAC22208BF904223
:1041A00000F09C804FEA13650FF24016765D4FEAEF
:1041B000134506FB05F7C7F1807706FB07F74FEAC3
:1041C000D737A7FB03687642C8F58038A7FB06CE31
:1041D00038BFA8F1010807FB08E64FF0000EA6FB68
:1041E000028CE6FB03CEDCF1000CCEF1004E38BFB2
:1041F000AEF1010EA6FB0C584FF000074FF0000582
:10420000E6FB0E87A1FB08C6A0FB07CE16EB0E0649
:1042100045F10005E1FB076515F1E04E7EBFA4F511
:1042200080345FEA46066D4116F1800745F10005CE
:104230004FEA17274FEA066647EA0567A6F1DE460A
:10424000B6F1805F4FEA15251FD9384624F0010CDE
:1042500005EBC471BCF1FE6F01EB0C1102D8F0BC90
:10426000BDE8008124425CBF01F5801E9EEAC47F48
:1042700002D4F0BCBDE80081244238D4F0BCA1F1E6
:10428000C041BDE8004100F053B94FEAD22242EAF2
:1042900043524FEAD323A7FB02864FEAD02040EADD
:1042A000415007FB03661EEA0E0F4FEAD12105FBC2
:1042B000026658BFA6EB0056B6EB00564FEA520E08
:1042C0004EEAC37E18EB0E0E56EB530EBDD518EB1F
:1042D00002085E417F1C55F10005B6E74FF48015DA
:1042E0004FF000074FF000064FF00008ADE7F0BCBC
:1042F0004FF0000001F1C04101F00041BDE8008134
:1043000011EA0C1F0CEA131500D00CE013EA0C1F85
:1043100000F025804FF00000F0BC81EA030101F0BD
:104320000041BDE80081F0BCBDE8004181EA030125
:1043300000F0FEB8F0BCBDE8004170B500F0AAF88E
:10434000097EFC3E00F007B881EA03014FF000004F
:1043500001F00041704781EA030100F0E9B8F0BCC8
:10436000BDE800414FF0000021497047FFFDFBF917
:10437000F7F5F4F2F0EEEDEBE9E8E6E4E3E1E0DE98
:10438000DDDBDAD8D7D5D4D3D1D0CFCDCCCBCAC80A
:10439000C7C6C5C4C2C1C0BFBEBDBCBBBAB9B8B731
:1043A000B6B5B4B3B2B1B0AFAEADACABAAA9A8A824
:1043B000A7A6A5A4A3A3A2A1A09F9F9E9D9C9C9BF2
:1043C0009A9999989797969595949393929191909D
:1043D0008F8F8E8E8D8C8C8B8B8A8989888887872E
:1043E0008685858484838382828181800000FF07A3
:1043F0000000F87FB0FA80F310FA03F10AD0C3F19D
:104400001D0303F580634FEA41504FEA035202EB6C
:10441000D12170474FF000007047000051EA030CB3
:1044200017D41CF5801F58BFBCF5801F00F1068013
:10443000994218BF704708BF9042704707D711F5DF
:10444000801F58BF13F5801F19D4994270478942C5
:1044500070471CF5801F08D5BCF5801FF7D58B422F
:1044600018BF704708BF824270474FF4001C1CEB16
:10447000410F38BF1CEB430F01D28B42704770B520
:1044800000F008F8922449004FF000514FF080539B
:10449000FFF74CBE0EF1020E2EF0030E5EF8046B19
:1044A000364205D4012A43EB030515F5001F12D847
:1044B000012841EB010C1CF5001F0CD80ED14FEA6E
:1044C000D17C15F5001F0CEB4C0C0CF1020C08BF55
:1044D0004CEBD37C04E04FF0080C01E04FEAD37CB6
:1044E0000CEB4C0526FA05F606F00706B6F1040CAF
:1044F00006D20EEB860CBDE870404CF0010C604714
:10450000DFE80CF0090B02024FF000414FF0000011
:10451000A1F5002170BD19461046012851EB010498
:1045200018BFD4F5001484BF002001F0004170BD15
:104530000808A0F500114FEA3101704753EA010C59
:1045400017D41CF5801F58BFBCF5801F00F10680F2
:104550008B4218BF704708BF8242704707D713F5D8
:10456000801F58BF11F5801F19D48B4270479B42A2
:1045700070471CF5801F08D5BCF5801FF7D5994200
:1045800018BF704708BF904270474FF4001C1CEBE7
:10459000430F38BF1CEB410F01D2994270470FB453
:1045A0000CBC03BCFFF76BBF10B591EA030F48BF0B
:1045B00083F000433FF51AAD841A71EB030C07D268
:1045C00012198CF0004C43EB0C03001B61EB0C0147
:1045D000DFF8A4E14FEA1154A4EB135C1EEA430F89
:1045E00018BF9EEA445F00F0B08023EA6E03524297
:1045F00021EA0451C3EB6E0338BF5B1EDCF1200ED1
:1046000025D322FA0CFE10EB0E0043FA0CFE41EB10
:104610000E01CCF1200E03FA0EFE10EB0E0051F14C
:104620000001CCF1200E29D412FA0EF201EB045154
:10463000BDE8104058BF7047401C1CBFB2F1004F8E
:10464000704700280CBF491C20F00100704712EB96
:10465000020E43EB030218BF4FF0010E4EEA420276
:10466000ACF1200CDCF11E0E54D943FA0CFE10EB19
:104670000E0051F1FF31CCF11E0ED5D50EF1010E19
:1046800012FA0EFE404141EB010101EB445C5FEA8E
:104690005C5C10D910EBDE7001EB045138BFBEF149
:1046A000004FBDE8104018BF704700280CBF491CE0
:1046B00020F00100704730D24FEAD42C11F50011E0
:1046C00024F400641BD0B1FA81F20B3AA41AA41EA0
:1046D000D2F12003914030FA03F31943904001EBEB
:1046E000CC71002C01EB0451BDE81040A8BF70470D
:1046F00001F1C0414FF0000001F000417047B0FAF5
:1047000080F310FA03F100D110BDE41A173C4805FC
:10471000C90AE4E701EB045110BD491001EB045153
:10472000BDE810404FEA300002E04FF00001704752
:104730004A0008BF0042F8D0B2F5001F28BF7047FA
:1047400001F000414FF0000070479EEA445F07D03F
:1047500011EA5E0FBDE8104004BF00210020704741
:10476000BDE8104070B5FFF795FE00BF40DFF63E94
:1047700083F00041104670470000E0FF4FF04070AA
:10478000E1EE100A70470006101600061016000031
:1047900000000000000001020304060708090000F1
:1047A0000000010203040000FFFFFFFFFFFFFFFF07
:1047B000FFFFFFFFFFFFFFFFFFFFFFFFFFFFFFFF09
:1047C000FFFFFFFFF4480008000000204800000041
:1047D000C40100083C49000848000020C00B00004C
:1047E000E00100081001000043000000F8FFFFFF97
:1047F00000404040404040404040414141414140F4
:1048000040404040404040404040404040404040A8
:104810004005020202020202020202020202020237
:10482000022020202020202020202002020202023C
:104830000202909090909090101010101010101094
:1048400010101010101010101010101002020202A0
:1048500002028888888888880808080808080808E4
:1048600008080808080808080808080802020202E0
:1048700040000000000000000000000000000000F8
:104880000000000000000000000000000000000028
:104890000000000000000000000000000000000018
:1048A0000000000000000000000000000000000008
:1048B00000000000000000000000000000000000F8
:1048C00000000000000000000000000000000000E8
:1048D00000000000000000000000000000000000D8
:1048E00000000000000000000000000000000000C8
:1048F00000000000000100000000000000000000B7
:1049000000000000000000000000000000000000A7
:104910000000000000000000000000000000000097
:104920000000000001000000100000000000000076
:0C4930000024F400000000000000000063
:040000050800018965
:00000001FF
