:020000040800F2
:10000000F0090020A1010008E13100086930000872
:10001000DD310008B10A0008513A00080000000074
:1000200000000000000000000000000099320008FD
:100030009B0F000800000000973200089B32000868
:10004000BB010008BB010008BB010008BB010008A0
:10005000BB010008BB010008BB010008BB01000890
:10006000BB010008BB010008BB010008BB01000880
:10007000BB010008BB010008BB010008BB01000870
:10008000BB010008BB010008BB010008BB01000860
:10009000B50A0008BB010008BB010008BB0100084D
:1000A000BB010008BB010008BB010008BB01000840
:1000B000BB010008BB010008BB010008BB01000830
:1000C000BB010008BB010008BB010008BB01000820
:1000D000BB010008BB010008BB010008BB01000810
:1000E000BB010008BB010008BB010008BB01000800
:1000F000BB010008BB010008BB010008BB010008F0
:10010000BB010008BB010008BB010008BB010008DF
:10011000BB010008BB010008BB010008BB010008CF
:10012000BB010008710E0008BB010008BB010008FC
:10013000BB010008BB010008BB010008BB010008AF
:10014000BB010008BB010008BB010008BB0100089F
:10015000BB010008810E0008BB010008413A0008FD
:10016000BB010008BB010008BB010008BB0100087F
:10017000BB010008BB010008BB0100080000000033
:10018000BB010008BB010008DFF810D000F04AF9FD
:1001900000480047553B0008AFF30080F0090020FD
:1001A0000648804706480047FEE7FEE7FEE7FEE711
:1001B000FEE7FEE7FEE7FEE7FEE7FEE75D33000849
:1001C000890100082DE9F05F0546002092469B4614
:1001D00088460646814640241BE02846414647465D
:1001E000224600F088F853465A46C01A914110D36F
:1001F00011461846224600F06FF82D1A67EB0108E9
:100200004F4622460120002100F066F817EB000956
:100210004E41201EA4F10104DFDC484631462A4647
:100220004346BDE8F09FD2B201E000F8012B491E21
:10023000FBD270470022F6E710B513460A46044683
:100240001946FFF7F0FF204610BD00F0004230F0E5
:1002500000400AD0C10D01F56071C0F3160042EAFA
:100260000151C20840071143704700200146704702
:1002700030B5041E71F1000404DB4FF0004440422D
:1002800064EB0101141E73F1000405DB1C464FF002
:100290000043524263EB04038B4208BF824230BDED
:1002A00001F0004330B421F0004150EA010206D0D1
:1002B0000A0DA2F56072C1F31301002A02DC30BC02
:1002C00000207047440F44EAC104C100E01830BC6C
:1002D00000EBC25000F06EB8202A04DB203A00FA8E
:1002E00002F1002070479140C2F1200320FA03F38D
:1002F000194390407047202A04DB203A21FA02F08B
:100300000021704721FA02F3D040C2F1200291404F
:1003100008431946704700000FB4002300B589B0A8
:100320000CA900910B996FF00042CB601E4B069315
:100330001E4B07930423CDE901321D4A0892024661
:100340006B46002000F01AF909B05DF814FB70B597
:1003500086B006464FF0FF300091CDE90101002044
:1003600015460C4604903246694604A8FFF7D4FFB0
:1003700002460498211825B108B1084600E020463D
:100380002860049800280DD0002A02DD00988842D9
:1003900008D0081B0094CDE901043246694604A840
:1003A000FFF7BAFF06B070BDB5070008D307000815
:1003B000490400080029A8BF7047401C490008BF35
:1003C00020F00100704710B4B0FA80FC00FA0CF085
:1003D00050EA010404BF10BC704749B1CCF12004BD
:1003E00021FA04F411FA0CF118BF0121214308434A
:1003F000A3EB0C01CB1D4FEA00614FEA102042BF76
:10040000002010BC704700EBC35010440029A4BF6B
:1004100010BC7047401C490008BF20F0010010BC10
:1004200070470000064C074D06E0E06840F001030D
:1004300094E8070098471034AC42F6D3FFF7A8FEC3
:10044000843D0008A43D0008C0B24FF4F05100F014
:10045000D1B900002DE9FF4F087883B09946FF28F5
:1004600005D0491C2D2804D00024002008E00020DD
:100470000BE00124F9E700EB800003EB4000491C8E
:100480000B78FF2BF7D104B140420023029314787C
:1004900019461D462D2C01D02B2C04D1521C2D2C7D
:1004A00013D000240294AA461478FF2C0FD00A25FA
:1004B000A3FB057801FB05814FF0000C03FB0C1139
:1004C000521CE3194AEB0101EEE70124EAE78144FB
:1004D00053EA010002D019F5C87F06DA039800211B
:1004E000C0E9001107B0BDE8F08F0025AE4E2F46E1
:1004F000DFF8B882184600F072FACDE90001B9F1D0
:10050000000002DAC9F1000400E004460023A74A13
:100510001AEB030B42EB045A12E0E00707D02A461D
:1005200033463846414600F079F9074688462A4660
:1005300033461046194600F071F905460E46641020
:10054000002CEAD1DDE90001B9F1000F5A4653460B
:1005500006DA00F0D5F93A46434600F0D1F905E055
:1005600000F05CF93A46434600F058F9029A0AB1A5
:1005700081F00041039AC2E90001B3E72DE9FF4F82
:100580001F468DB0D7E901464FF0FF382E20454673
:100590004FF000090B90B9696D1C0E988847396AB5
:1005A000824688470028F6D1BAF1FF3F0AD024F4EA
:1005B000D064002E11DDBAF12B0F08D0BAF12D0F47
:1005C0000BD102E0404611B08DE744F48064B96974
:1005D0006D1C0E9888478246761E6946600501D5D7
:1005E0002D2000E02B208DF8000001F1010B0DF112
:1005F000200809E0B9696D1C0E98884782460F985B
:1006000044F40074761E0560002E02DDBAF1300F4E
:10061000F0D00B998A453ED144F0800406E00F9952
:10062000681CA9F1010944F400740860B9696D1CE3
:10063000761E0E98884782463028F0D02BE00B9922
:100640008A4505D1200603D444F08004761E18E0C4
:10065000504603F055FA08B30DF11301761E44F429
:1006600000748B4508D2AAF130000BF8010B20066C
:1006700007D5A9F1010003E0200602D409F1010029
:100680008146A00502D50F99681C0860B9696D1CE8
:100690000E9888478246002ED1DC53E0002E51DDB3
:1006A000BAF1650F02D0BAF1450F4BD1A00549D57B
:1006B000B9696D1C24F44074761E0E9888478246F2
:1006C000002E0CDD2B2804D0BAF12D0F07D144F4F5
:1006D0008074B9696D1C0E9888478246761EE005C5
:1006E00001D52D2100E02B2108F8011BCDF82C802D
:1006F00021E00DF12901761E44F4007488450CD2E6
:10070000AAF1300010F0FF0088F8000002D10B9928
:10071000884509D908F1010806E0E00501D524481B
:1007200001E042F20F708146B9696D1C0E9888474E
:1007300082460F980560002E04DD504603F0E0F974
:100740000028D6D1F9690E988847FF208BF8000061
:1007500088F800000020069007904B466A4608A9DA
:1007600006A8FFF777FEA00502D46FF001002AE784
:1007700014F0240F0AD0E00714D1DDE9061238681E
:10078000031D3B600068C0E900120BE0DDE90601D3
:10079000FFF786FD0146E00704D13868021D3A6084
:1007A0000068016028460EE7000014400000F03F9A
:1007B000F1D8FFFF426842B1016811F8013B23B153
:1007C000521EC0E90012184670470121C160881E00
:1007D000704742685AB1C368016843B983688B4265
:1007E00005D0491E521CC0E90012002070474FF08E
:1007F000FF3070477F2801D9002208E0064A02EB4B
:100800005002C007127800D1120902F00F02012035
:100810009040084070470000413D00082DE9FE4F20
:1008200081EA030404F0004421F0004100944FF0F9
:10083000000B23F0004350EA01045ED052EA0304A7
:100840005BD0C3F30A54C1F30A552C44A4F2F33429
:100850000194A0FB0254C1F3130141F48011C3F3CE
:10086000130343F4801301FB024400FB034E840A8C
:10087000970A44EA815447EA8357A4FB0768029524
:100880008D0A05FB07854FEA932C04FB0C542705C2
:10089000029D4FEA065847EA1637B5EB08056EEB9E
:1008A000070C870E920E47EA811742EA8312A7FBD4
:1008B0000201B6EB0B0164EB00042B0D43EA0C3391
:1008C0005E1844EB1C50DA465146E7FB0201C5F3C3
:1008D00013044FEA0B3343EA14534FEA0432019CEA
:1008E00043EA0603A4F10C040294009CCDE900B491
:1008F00000F090F803B0BDE8F08F00200146F9E762
:100900002DE9F04D81EA030404F0004B21F000458D
:1009100014464FF0000A23F0004150EA050220D0AF
:1009200054EA01021DD0C5F30A570246C5F313036A
:10093000C1F31300C1F30A5640F4801543F4801349
:10094000A7EB0608101BD64608F2FD3873EB05002E
:1009500002D308F1010801E092185B41B8F1000FE1
:1009600003DA00200146BDE8F08D00204FF480112D
:10097000064684460EE0171B73EB050705D3121BD2
:1009800063EB050306434CEA010C49084FEA3000CB
:1009900092185B4150EA0107EDD152EA030012D0F0
:1009A00082EA040083EA0501084305D0101BAB412D
:1009B00006D20122002306E000224FF0004302E0AD
:1009C0006FF0010253101AEB06004CEB085110EBCC
:1009D0000A0041EB0B01BDE8F04D00F00CB80EB57C
:1009E00040F2334202920022CDE90022134600F089
:1009F00011F803B000BD10B5141E73F1000408DA3D
:100A0000401C41F1000192185B411A4301D120F0D2
:100A1000010010BD2DE9F04D92469B4611B1B1FA8F
:100A200081F202E0B0FA80F220329046FFF754FCE7
:100A300004460F4640EA0A0041EA0B0153465A4673
:100A4000084313D0114653EA010019D0C8F14002FF
:100A50005046FFF750FC05460E4650465946424662
:100A6000FFF73AFC084305D0012004E02046394650
:100A7000BDE8F08D0020054346EAE0762C4337437D
:100A80000A986305E40AA0EB08000022FD0A44EA84
:100A900047540A3002D500200146E9E70105101944
:100AA0006941DDE9084500196941BDE8F04DA2E75B
:100AB00000BFFEE710B5024800F09FFC10BD00002B
:100AC0004000002010B58AB0044600200590069032
:100AD0000120079000200090019002900390049064
:100AE000012008900E2009906946204600F01AFB6C
:100AF00008B100F053FA204600F0D1FE08B100F032
:100B00004DFA0221204600F04CFA08B100F046FAF6
:100B100000200AB010BD00000FB410B5049818B939
:100B20000349029800F04CF810BC5DF814FB00007B
:100B3000280000202DE9F04389B081460C46154677
:100B40001E46109F0820079080010390002005900A
:100B50000690200A8DF80400E0B28DF80500280AFE
:100B60008DF80600E8B28DF80700300A8DF808000D
:100B7000F0B28DF80900380A8DF80A00F8B28DF845
:100B80000B004FF47A7800BF484600F01BFC20B9F8
:100B9000B8F10000A8F10108F6D1B8F1000F02D1B8
:100BA00009B0BDE8F083054B01AA03A9484600F04F
:100BB0000DFA08B100F0F2F900BFF1E724000020BF
:100BC00070B505460E46A5F20124002C29DB082C41
:100BD00027DA04EBC400144901EB00104068322806
:100BE00015DA04EBC401104A02EB0110314602F0A1
:100BF0008FFF04EBC4000C4901EB00104068401C5F
:100C000004EBC401084A02EB0111486007E004EB61
:100C1000C401054A02EB0110314600F089F80020BA
:100C200070BD0120FCE700006C010020002069E09D
:100C3000B2EE080A00EBC001344A02EB011181ED6B
:100C40000E0A9FED330A00EBC00102EB011181EDAA
:100C50000F0AB1EE040A00EBC00102EB011181EDB5
:100C6000100A9FED2C0A00EBC00102EB011181ED8F
:100C7000170A9FED290A00EBC00102EB011181ED7B
:100C8000190AB7EE000A00EBC00102EB011181ED79
:100C90001A0A9FED220A00EBC00102EB011181ED5F
:100CA0001B0A9FED1F0A00EBC00102EB011181ED51
:100CB000220A00EBC00102EB0111097841B99FED56
:100CC000190A00EBC00102EB011181ED0C0A0FE0E3
:100CD00000EBC0010D4A02EB01110978012907D18F
:100CE0009FED110A00EBC00102EB011181ED0C0A2E
:100CF0009FED0E0A00EBC001044A02EB011181EDE9
:100D00000D0A401C082893DB704700006C0100208E
:100D1000CDCC4C3E0000FA450000A042000000008F
:100D200000007A462CA099410000104200000046C5
:100D300070B52DED028B04460D466878297840EA9F
:100D4000012000EE100AB8EEC00ADFED450A20EEE1
:100D5000200AD4ED0D0A80EE201A84ED021AE878FC
:100D6000A97840EA012000B200EE100AB8EEC00AED
:100D700084ED030A6879297940EA012000B200EE87
:100D8000100AB8EEC00A84ED040A94ED070A84ED57
:100D9000060A94ED020A84ED070A94ED070AD4EDE1
:100DA000060A30EE600ADFED2F0AB4EEE00AF1EE3B
:100DB00010FA03DD606A401E606216E094ED070AD7
:100DC000D4ED060A30EE600A10EE101A0846FFF75E
:100DD0003CFA41EC180B9FED240B53EC102BFFF762
:100DE00047FA02D2606A401C606294ED090AB8EECC
:100DF000C00ADFED1B0A20EE200A84ED0A0A94EDFA
:100E0000070AD4ED080A30EE600AD4ED0A0A30EE83
:100E1000200A84ED0A0A94ED0A0AD4ED0C0A80EE49
:100E2000201A84ED0A1A94ED030AD4ED0C0A80EE20
:100E3000201A84ED0B1A4FF4B471606A484300EE37
:100E4000100AB8EEC00AD4ED070A30EE200AD4ED3D
:100E5000080A30EE600A84ED050ABDEC028B70BD15
:100E60000000B4430000344300000000008066C06E
:100E700010B5024800F0B4FD10BD0000AC00002029
:100E800010B5024800F0ACFD10BD00000C010020C0
:100E90000146087810381823B0FBF3F20848805C4C
:100EA000C865032A05D908686FF30900001D886525
:100EB00003E008686FF309008865886D70470000DB
:100EC000213D0008014600208A6A8B69CBB932B106
:100ED000012A0DD0022A03D0032A10D10EE000BF50
:100EE000CB6A03F08073B3F1807F00D1012007E06B
:100EF000CB6AB3F1C07F00D1012001E000E000BF68
:100F000034E08B69B3F5005F1AD132B1012A07D002
:100F1000022A03D0032A11D10AE000BF01200EE00B
:100F2000CB6A03F08073B3F1807F00D1012006E02B
:100F3000CB6AB3F1C07F00D1012000E000BF15E013
:100F400032B1012A05D0022A04D0032A0CD103E0D1
:100F500000BF00BF012008E0CB6A03F08073B3F14B
:100F6000807F00D1012000E000BF00BF704730B596
:100F70000468246824F4802405682C600468636095
:100F80008468402C04D10468A2600468E16003E036
:100F90000468A1600468E26030BD704772B600BFAB
:100FA000FEE710B5024692F82030012B01D0022B4B
:100FB00006D110684069084314686061002010BDC4
:100FC000506A40F4802050620120F8E7F0B50446F2
:100FD0000D461E4694F8207020688368A86800B902
:100FE00000E000BF012F01D0022F7CD103F0806010
:100FF00030B903F0006018B903F08050002873D0B6
:10100000C3F30161022905D9606A40F400006062FF
:101010000120F0BD012088403060A86860B9B5F8B3
:1010200000C0E86840EA4C5C206800F5C07000EB46
:101030000110C0F800C00FE0D5E901C040EACC00C3
:10104000D5F80CC040EA0C00D4F800C00CF5C07C08
:101050000CEB011CCCF80000D5F810C0206800F59E
:10106000C07000EB0110C0F804C0287D01280ED12B
:10107000206800F5C07000EB0110406840F4807CEF
:10108000206800F5C07000EB0110C0F804C0D079F2
:10109000000692F806C040EA0C4092F805C040EA0B
:1010A0000C2C10794CEA000C206800F5C07000EBA5
:1010B0000110C0F80CC0D078000692F802C040EAD7
:1010C0000C4092F801C040EA0C2092F800C040EABF
:1010D0000C00D4F800C00CF5C07C0CEB011CCCF863
:1010E0000800206801E016E00FE000F5C07000EB9A
:1010F0000110006840F0010C206800F5C07000EBA2
:101100000110C0F800C0002083E7606A40F40010BE
:10111000606201207DE7606A40F480206062012007
:1011200077E70000F0B504460A46216894F820509D
:10113000012D01D0022D7ED1424901F500710868D0
:1011400040F001000860086820F47C5008600868DE
:10115000566A40EA06200860107D00F01F06012054
:1011600000FA06F3C8699843C861A1F50071D06917
:10117000C8B9D1F80C029843C1F80C02908880B22B
:10118000968940EA064601F51070576940F83760C5
:10119000108880B2168940EA064601F5107057693A
:1011A00000EBC7004660D069012819D1D1F80C02C4
:1011B0001843C1F80C02908880B2168840EA0646AF
:1011C00001F51070576940F83760908980B2168930
:1011D00040EA064601F51070576900EBC70046600B
:1011E000906928B9D1F804029843C1F8040204E0D8
:1011F000D1F804021843C1F80402106928B9D1F8E3
:1012000014029843C1F8140204E0D1F81402184300
:10121000C1F81402106A012804D1D1F81C02184345
:10122000C1F81C02D1F8000220F00100C1F8000250
:101230000020F0BDFFE7606A40F48020606201207A
:10124000F7E7000000640040704770B5044694F86A
:101250002050012D01D0022D7DD151B92068C068E8
:1012600000F0030080B9606A40F400106062012061
:1012700070BD2068006900F0030028B9606A40F47E
:10128000001060620120F3E7206800F5D87000EBE1
:101290000110006800F004009060906840B9206878
:1012A00000F5D87000EB01100068400D106007E0F9
:1012B000206800F5D87000EB01100068C00850608D
:1012C000206800F5D87000EB0110006800F0020003
:1012D000D060206800F5D87000EB0110406800F085
:1012E0000F001061206800F5D87000EB0110406815
:1012F00000F47F40000A9061206800F5D87000EB90
:1013000001104068000C5061206800F5D87000EBB7
:10131000011080681870206800F5D87000EB01108B
:10132000806800F47F40000A5870206800F5D8708B
:1013300000EB0110806800F47F00000C98702068BA
:1013400000F5D87000EB01108068000ED87020689E
:1013500000F5D87000E02FE000EB0110C0681871B4
:10136000206800F5D87000EB0110C06800F47F40E1
:10137000000A5871206800F5D87000EB0110C068B1
:1013800000F47F00000C9871206800F5D87000EB25
:101390000110C068000ED87131B92068C06840F0F3
:1013A00020002668F06005E02068006940F0200019
:1013B0002668306100205BE7606A40F4802060624C
:1013C000012055E70146002091F82020012A01D094
:1013D000022A11D10B689B6803F0806303B1401CA3
:1013E0000B689B6803F0006303B1401C0B689B68AB
:1013F00003F0805303B1401C70472DE9F05F0446B1
:101400000025206846692068D0F804902068876825
:101410002068D0F80CA02068D0F810B02068D0F870
:10142000188006F00100002855D007F00100C0B177
:1014300001202168886007F0020018B1204600F002
:101440005EFA0EE007F0040010B145F4006508E014
:1014500007F0080010B145F4805502E0204600F086
:101460004DFA07F48070C8B14FF48070216888602D
:1014700007F4007018B1204600F043FA0EE007F4BC
:10148000806010B145F4005508E007F4006010B129
:1014900045F4804502E0204600F032FA07F480303F
:1014A000C8B14FF480302168886007F4003018B16B
:1014B000204600F028FA0EE007F4802010B145F431
:1014C000004508E007F4002010B145F4803502E043
:1014D000204600F017FA06F0080038B10AF01000B4
:1014E00020B145F4007510202168C86006F00400A2
:1014F00040B10AF0080028B108202168C8602046E1
:1015000000F0A8F906F0020038B12068C06800F0C9
:10151000030010B1204600F09FF906F0400038B1FA
:101520000BF0100020B145F480651020216808619F
:1015300006F0200040B10BF0080028B10820216817
:101540000861204600F0A8F906F0100038B12068C4
:10155000006900F0030010B1204600F09EF906F487
:10156000003040B109F0100028B110202168486017
:10157000204600F093F906F4803040B109F00800ED
:1015800028B1082021684860204600F0BDF906F423
:10159000004088B309F0040078B306F4807020B1ED
:1015A00008F0010008B145F0010506F4007020B113
:1015B00008F0020008B145F0020506F4806020B191
:1015C00008F0040008B145F0040506F40060A0B17D
:1015D00008F0700088B108F07000402817D006DCD1
:1015E00010280BD020280CD0302819D10CE050281E
:1015F00010D0602814D110E01DE019E045F0080576
:101600000FE045F010050CE045F0200509E045F03D
:10161000400506E045F0800503E045F4807500E0F4
:1016200000BF00BF2068806920F0700021688861D9
:101630000420216848602DB1606A2843606220461A
:10164000FFF702FEBDE8F09F70B504460CB901201B
:1016500070BD94F8200010B9204600F0AFF8206863
:10166000006840F001002168086000F0A7FC054612
:101670000DE000F0A3FC401B0A2808D9606A40F482
:1016800000306062052084F820000120E0E7206837
:10169000406800F001000028EBD02068006820F0CE
:1016A00002002168086000F089FC05460DE000F0AA
:1016B00085FC401B0A2808D9606A40F4003060624B
:1016C000052084F820000120C2E72068406800F06F
:1016D00002000028EBD1207E012806D12068006896
:1016E00040F080002168086005E02068006820F074
:1016F000800021680860607E012806D120680068AB
:1017000040F040002168086005E02068006820F093
:10171000400021680860A07E012806D1206800688A
:1017200040F020002168086005E02068006820F093
:10173000200021680860E07E012806D1206800684A
:1017400020F010002168086005E02068006840F083
:10175000100021680860207F012806D120680068F9
:1017600040F008002168086005E02068006820F06B
:10177000080021680860607F012806D120680068A1
:1017800040F004002168086005E02068006820F04F
:10179000040021680860D4E9020108432169084374
:1017A000616908436168491E08432168C8610020D7
:1017B0006062012084F82000002049E710B586B05F
:1017C0000446142101A8FEF735FD1F492068884210
:1017D00038D100BF002000901C48006840F0007025
:1017E0001A4908600846006800F00070009000BFC9
:1017F00000BF00BF0020009014481038006840F07F
:1018000001001249103908600846006800F0010024
:10181000009000BF00BF4FF4C05001900220029022
:1018200000200390032004900920059001A9084896
:1018300000F0CAFA00220121142000F049FC142013
:1018400000F036FC06B010BD006400404038024095
:10185000000002407047000010B58AB004460C49F1
:1018600020680968884210D10A4B03AA002120464B
:10187000FFF7EBFC08B1FFF791FB07A807C88DE85D
:10188000070003A80FC8FFF747F90AB010BD000012
:10189000400000202800002070477047704770B556
:1018A000044694F82000012822D1022084F8200068
:1018B0002068006820F001002168086000F07EFBCD
:1018C00005460DE000F07AFB401B0A2808D9606A43
:1018D00040F400306062052084F82000012070BDD3
:1018E0002068406800F001000028EBD16062F6E754
:1018F000606A40F4002060620120F0E770477047A2
:101900007047704770477047704770B50446A56DC3
:1019100000F054FB064694F83500022808D08020D9
:10192000606500BF002084F8340000BF012070BD56
:101930002068006820F0160021680860206840696F
:1019400020F0800021684861206C08B9A06C28B1A3
:101950002068006820F0080021680860206800689E
:1019600020F001002168086010E000F027FB801BD8
:1019700005280BD920206065032084F8350000BFBE
:10198000002084F8340000BF0320D0E720680068FE
:1019900000F001000028E8D194F85C103F20884056
:1019A000A860012084F8350000BF002084F83400CE
:1019B00000BF00BFBBE7014691F83500022803D005
:1019C0008020486501207047052081F835000868AF
:1019D000006820F001000A6810600020F3E70000B2
:1019E000F8B50446002000908C4800684FF416516A
:1019F000B0FBF1F7A56D2E6894F85C1008208840C4
:101A0000304098B12068006800F0040070B1206890
:101A1000006820F004002168086094F85C10082039
:101A20008840A860606D40F00100606594F85C102B
:101A300001208840304068B12068406900F0800093
:101A400040B194F85C1001208840A860606D40F0BF
:101A50000200606594F85C1004208840304068B152
:101A60002068006800F0020040B194F85C10042087
:101A70008840A860606D40F00400606594F85C10D8
:101A800010208840304078B32068006800F00800DB
:101A900050B394F85C1010208840A860206800685B
:101AA00000F4802080B12068006800F4002028B98C
:101AB000206CC8B12046216C884715E0A06C98B115
:101AC0002046A16C88470FE02068006800F4807011
:101AD00028B92068006820F0080021680860206CA0
:101AE00010B12046216C884794F85C102020884073
:101AF0003040002865D02068006800F01000002801
:101B00005FD094F85C1020208840A86094F83500DD
:101B1000052828D12068006820F016002168086098
:101B20002068406920F0800021684861206C08B975
:101B3000A06C28B12068006820F0080021680860C7
:101B400094F85C103F208840A860012084F835009C
:101B500000BF002084F8340000BF206D10B1204683
:101B6000216D8847F8BD2068006800F4802080B1AE
:101B70002068006800F4002028B9606C10B120468D
:101B8000616C88471DE0E06BD8B12046E16B884767
:101B900017E02068006800F4807068B92068006869
:101BA00020F0100021680860012084F8350000BF93
:101BB000002084F8340000BFE06B10B12046E16BD8
:101BC0008847606D38B3606D00F00100F0B105200A
:101BD00084F835002068006820F001002168086062
:101BE00000BF0098401C0090B84200D905E0206872
:101BF000006800F001000028F3D100BF012084F844
:101C0000350000BF002084F8340000BFE06C10B144
:101C10002046E16C884700BFA4E7000020000020B8
:101C20002DE9F0410446002500F0C8F9074614B933
:101C30000120BDE8F081606A00B100BF022084F895
:101C4000350000BF002084F8340000BF2068006821
:101C500020F00100216808600AE000F0AFF9C01B25
:101C6000052805D920206065032084F83500E0E7C9
:101C70002068006800F001000028EED120680568A7
:101C800021480540D4E901010843E168084321697E
:101C9000084361690843A1690843E1690843216A6F
:101CA00008430543606A042803D1D4E90B010843C3
:101CB0000543206805602068456925F00705606ACE
:101CC0000543606A04280DD1A06A0543E06A48B163
:101CD0002046FFF7F7F828B140206065012084F81E
:101CE0003500A6E7206845612046FFF7D1F8064693
:101CF00094F85C103F208840B060002060650120AF
:101D000084F83500002094E73F8010F02DE9F0477B
:101D100004460D4616461F464FF00008D4F858906A
:101D200000BF94F83400012802D10220BDE8F087FA
:101D3000012084F8340000BF94F83500012825D133
:101D4000022084F83500002060653B463246294673
:101D50002046FFF70CF994F85C103F208840C9F842
:101D600008002068006840F0160021680860206CB8
:101D700028B12068006840F00800216808602068E9
:101D8000006840F001002168086006E000BF002004
:101D900084F8340000BF4FF002084046C6E7000058
:101DA00070B5044600F00AF906462546681C10B1D5
:101DB00004480078054400BF00F000F9801BA842E9
:101DC000FAD370BD1C000020F8B502460B46002572
:101DD000002400200021D6E0012606FA01F51E6845
:101DE00006EA0504AC4274D11E7906F00306012E02
:101DF00004D01E7906F00306022E13D190684F001E
:101E00000326BE40B0434F00DE68BE4030439060C2
:101E1000506801268E40B0431E79C6F300168E40EE
:101E2000304350601E7906F00306032E09D0D068B7
:101E30004F000326BE40B0434F009E68BE40304373
:101E4000D0601E7906F00306022E13D1CF0802F1EE
:101E5000200656F827004E07F70E0F26BE40B04367
:101E60004F07FF0E1E69BE403043CF0802F1200627
:101E700046F8270010684F000326BE40B0431E7985
:101E800006F003064F00BE40304310605E6806F463
:101E90004036002E76D000BF002600963C4E3668B5
:101EA00046F480463A4F3E603E46366806F4804629
:101EB000009600BF00BF374E8F0856F827008E07E8
:101EC000370F0F26BE40B043334EB24202D1002638
:101ED00024E057E0314EB24201D101261EE0304EDF
:101EE000B24201D1022619E02E4EB24201D10326A0
:101EF00014E02D4EB24201D104260FE02B4EB24227
:101F000001D105260AE02A4EB24201D1062605E09B
:101F1000284EB24201D1072600E008268F073F0F66
:101F2000BE4030431B4E8F0846F82700224E3068D3
:101F3000A0435E6806F4801606B120431E4E306052
:101F4000361D3068A0435E6806F4001606B12043D3
:101F5000194E361D3060184E361F3068A0435E683B
:101F600006F4003606B12043134E361F3060361F8C
:101F70003068A0435E6806F4803606B120430E4EFA
:101F8000083E3060491C1029FFF426AFF8BD000060
:101F9000443802400838014000000240000402407A
:101FA00000080240000C02400010024000140240F1
:101FB00000180240001C0240083C01400148006833
:101FC00070470000140000200348006803490978A6
:101FD0000844014908607047140000201C000020DC
:101FE00010B50D48006840F400700B4908600846C1
:101FF000006840F4806008600846006840F4807023
:102000000860032000F0A2F80F2000F007F800F0AD
:102010002BF8002010BD0000003C024070B50446C3
:102020000E4800784FF47A71B1FBF0F00C49096862
:10203000B1FBF0F5284600F02BFC08B1012070BD83
:10204000102C07D200222146501E00F041F805480E
:10205000046001E00120F2E70020F0E71C0000200E
:10206000200000201800002008B500BF00200090CC
:102070000E48006840F480400C490860084600683B
:1020800000F48040009000BF00BF00BF002000901F
:10209000081F006840F08050091F0860084600686B
:1020A00000F08050009000BF00BF08BD44380240DF
:1020B00001460846002809DB00F01F0301229A4070
:1020C00043099B0003F1E023C3F8002100BF7047E0
:1020D0002DE9F05F80460D461646002701F0BAFC58
:1020E000074639462A46334601F00700C0F1070A81
:1020F000BAF1040F02D94FF0040A01E0C0F1070A57
:10210000D14600F1040ABAF1070F02D24FF0000ADB
:1021100001E0A0F1030AD4464FF0010A0AFA09FAD5
:10212000AAF1010A0AEA020A0AFA0CFA4FF0010BB4
:102130000BFA0CFBABF1010B0BEA030B4AEA0B04A5
:102140002146404601F08EFCBDE8F09F00BF00F044
:102150000702064B19684FF6FF031940044B0B4367
:1021600043EA0221014B196000BF70470CED00E00B
:102170000000FA0570B504460D460CB9012070BD8B
:102180005848006800F00700A84209D255490D7070
:102190000846006800F00700A84201D00120EEE7E1
:1021A000207800F0020002281DD1207800F0040001
:1021B000042805D14C48006840F4E0504A490860C2
:1021C000207800F00800082805D14748006840F44E
:1021D0006040454908604448006820F0F000A1686C
:1021E000084341490860207800F00100A8B3606806
:1021F000012807D13C4808380068C0F34040B8B90E
:102200000120BCE76068022802D06068032807D17B
:10221000354808380068C0F3406048B90120AEE78F
:10222000314808380068C0F3400008B90120A6E72B
:102230002D48006820F00300616808432A490860BF
:10224000FFF7BCFE064609E0FFF7B8FE801B41F22F
:102250008831884202D9032091E707E022480068CC
:1022600000F00C006168B0EB810FEDD11D480068F3
:1022700000F00700A84209D91A490D700846006805
:1022800000F00700A84201D0012078E7207800F094
:102290000400042807D11448006820F4E050E168E5
:1022A000084311490860207800F00800082808D188
:1022B0000D48006820F46040216940EAC1000A49E5
:1022C000086000F03FF808490968C1F30311074AA4
:1022D000515CC8400649086006480068FFF79EFE4A
:1022E00000204CE7003C024008380240293D00082D
:1022F00020000020180000200148006870470000FE
:102300002000002000B5FFF7F7FF04490968C1F37A
:102310008221034A515CC84000BD000008380240D9
:10232000393D000800B5FFF7E7FF04490968C1F32C
:102330004231034A515CC84000BD000008380240E9
:10234000393D00082DE9F047002400250026A1466C
:102350002548006800F00C0020B1042805D00828AA
:102360003AD105E0DFF8849039E0DFF8849036E078
:102370001D48001F006800F03F041B48001F006854
:1023800000F4800078B11A481749091F0968C1F3A1
:102390008811A0FB01700146224600233846FDF754
:1023A00011FF05460EE011480F49091F0968C1F3E6
:1023B0008811A0FB01700146224600233846FDF734
:1023C00001FF05460848001F0068C0F30140401C9B
:1023D0004600B5FBF6F902E0DFF8109000BF00BF41
:1023E0004846BDE8F0870000083802400024F400A9
:1023F00000127A00F8B504460CB90120F8BD207827
:1024000000F00100002874D0F948006800F00C00CA
:1024100004280DD0F648006800F00C00082813D1FD
:10242000F348001F006800F48000B0F5800F0BD166
:10243000EF4808380068C0F34040002859D0606871
:10244000002856D10120D9E700BF6068B0F5803F71
:1024500008D1E7480838006840F48030E44908397A
:1024600008601EE06068B0F5A02F0DD1E048083884
:10247000006840F48020DE4908390860084600689A
:1024800040F4803008600CE0D9480838006820F437
:102490008030D749083908600846006820F4802059
:1024A000086000BF606890B1FFF788FD054606E050
:1024B000FFF784FD401B642801D903209EE7CC4828
:1024C00008380068C0F340400028F1D011E0FFF761
:1024D00075FD054606E0FFF771FD401B642801D934
:1024E00003208BE7C24808380068C0F3404000284A
:1024F000F1D1207800F0020002285FD1BC480068CA
:1025000000F00C0058B1BA48006800F00C00082830
:102510001CD1B748001F006800F48000B0B9B4486F
:1025200008380068C0F3400020B1E068012801D0FD
:10253000012063E7AE480838006820F0F800216900
:1025400040EAC100AA490839086037E0E06800B3F2
:102550000120A8490860FFF731FD054606E0FFF7B6
:102560002DFD401B022801D9032047E7A048083869
:102570000068C0F340000028F1D09D48083800688A
:1025800020F0F800216940EAC10099490839086043
:1025900014E0002097490860FFF710FD054606E0AB
:1025A000FFF70CFD401B022801D9032026E79048C5
:1025B00008380068C0F340000028F1D1207800F00E
:1025C000080008282CD16069A8B101208A49086058
:1025D000FFF7F4FC054606E0FFF7F0FC401B02287D
:1025E00001D903200AE782486C300068C0F340003C
:1025F0000028F1D014E000207F490860FFF7DEFCDE
:10260000054606E0FFF7DAFC401B022801D903204B
:10261000F4E677486C300068C0F340000028F1D140
:10262000207800F00400042870D10027704838306A
:10263000006800F0805090B900BF002000906C4806
:102640003830006840F080506949383108600846E9
:10265000006800F08050009000BF00BF012767486D
:10266000006800F48070B0B96448006840F480707D
:1026700062490860FFF7A2FC054606E0FFF79EFCF2
:10268000401B022801D90320B8E65C48006800F42A
:1026900080700028F2D000BFA068012808D15448FB
:1026A0006830006840F001005149683108601DE061
:1026B000A06805280DD14E486830006840F004003D
:1026C0004B49683108600846006840F00100086026
:1026D0000CE047486830006820F001004449683148
:1026E00008600846006820F00400086000BFA06889
:1026F000A8B1FFF763FC054609E0FFF75FFC401B4C
:1027000041F28831884202D9032077E626E0384832
:1027100068300068C0F340000028EED013E0FFF7F7
:102720004DFC054608E0FFF749FC401B41F28831AB
:10273000884201D9032061E62D4868300068C0F363
:1027400040000028EFD1012F07D129483830006818
:1027500020F0805026493831086000BFA069002869
:1027600045D02348006800F00C0008285DD0A0691F
:10277000022845D100201F490866FFF71FFC0546C7
:1027800006E0FFF71BFC401B022801D9032035E6B9
:10279000174808380068C0F340600028F1D1D4E938
:1027A00007010843616A40EA81110122A06AC2EB75
:1027B000500041EA00412C20005D41EA00600C49D4
:1027C000091F086001200B490866FFF7F7FB054663
:1027D00006E0FFF7F3FB401B022801D903200DE6BA
:1027E000034808380068C0F340600028F1D049E091
:1027F0000838024000004742800E47420070004007
:10280000002021490866FFF7D9FB054606E0FFF7DF
:10281000D5FB401B022801D90320EFE51B480068C7
:10282000C0F340600028F2D12CE0A069012800D15B
:10283000E4E51648001D0668A069012820D006F4CA
:102840008001E06981421BD106F03F01206A81428C
:1028500016D147F6C0703040616AB0EB811F0FD1CE
:1028600006F440310122A06AC2EB5000B1EB004FE8
:1028700006D106F070612C20005DB1EB006F01D035
:102880000120BBE50020B9E50000474200380240C6
:1028900070B504462546681EB0F1807F01D3012043
:1028A0000FE0681E4FF0E02148610F214FF0FF302C
:1028B00001F0D8F800204FF0E0218861072008617E
:1028C000002070BDF8B504460E46174694F83E0049
:1028D000202836D106B10FB90120F8BD00BF94F809
:1028E0003C00012801D10220F7E7012084F83C00D8
:1028F00000BF20633A463146204600F0BFFF054640
:10290000EDB9206B012819D100BF0020009020688C
:102910000068009020684068009000BF00BF00BFC2
:1029200000BF21680C3151E8001F41F01000216800
:102930000C3141E80002002AF3D100E001252846CD
:10294000CBE70220C9E7000070B52DED028B0646EB
:102950000C46204886423BD1022C0EDA0A221E4940
:10296000FFF7B0FF1D480068006820F008001B4911
:1029700009680860BDEC028B70BD0A2C03D20020F0
:102980001549085502E0002013494872124805789D
:10299000412D0FD1401C01F07BF8B0EE408AF0EEE3
:1029A000608A0F4880ED008B0E48057001200E49AB
:1029B000087000BF0A2208490648FFF783FF07484E
:1029C0000068006820F0080004490968086000BF3A
:1029D00000BFCFE76800002034000020AC000020DA
:1029E00008000020000000200100002070B504460F
:1029F000002520684069C0F3C01594F83D002128E7
:102A000017D1B5B100BF00BF2168143151E8001FD4
:102A100021F080002168143141E80002002AF3D13E
:102A200000BF606B10B1606BFEF76FFF204600F0D7
:102A30007FFD20684069C0F3801594F83E0022288D
:102A400017D1B5B100BF00BF2168143151E8001F94
:102A500021F040002168143141E80002002AF3D13E
:102A600000BFA06B10B1A06BFEF74FFF204600F037
:102A700019FD002070BD000038B504462648844288
:102A800049D1256C05F0080050B100BF002000902E
:102A900020680068009020684068009000BF00BF78
:102AA00005F0040050B100BF0020009020680068CD
:102AB000009020684068009000BF00BF05F0010052
:102AC00050B100BF0020009020680068009020688E
:102AD0004068009000BF00BF05F0020050B100BF89
:102AE00000200090206800680090206840680090F6
:102AF00000BF00BF2046FFF779FF0A2207490648BA
:102B0000FFF7E0FE06480068006820F0080004496E
:102B10000968086000BF38BD68000020340000204C
:102B2000AC0000202DE9F84F0446206805682068B5
:102B3000C668206847694FF00009CA4605F00F09CA
:102B4000B9F1000F0AD105F0200038B106F02000DD
:102B500020B1204600F0FFFCBDE8F88FB9F1000F6E
:102B60007CD007F0010018B906F49070002875D0E9
:102B700005F0010030B106F4807018B1206C40F00F
:102B80000100206405F0040030B107F0010018B125
:102B9000206C40F00200206405F0020030B107F024
:102BA000010018B1206C40F00400206405F008001A
:102BB00048B106F0200010B907F0010018B1206CF0
:102BC00040F008002064206C002846D005F020006A
:102BD00028B106F0200010B1204600F0BCFC2068AF
:102BE0004069C0F3801A206C00F0080010B9BAF1F7
:102BF000000F2DD0204600F055FC2068406900F001
:102C00004000402820D100BF00BF2168143151E8A6
:102C1000001F21F040002168143141E80002002A21
:102C2000F3D100BFA06B50B17548A16B0865A06BD4
:102C3000FEF7C1FE88B1A06B016D88470DE020460C
:102C4000FFF71AFF09E009E02046FFF715FF04E04F
:102C50002046FFF711FF002020647DE7206B01284C
:102C600076D105F01000002872D006F01000002880
:102C7000FAD000BF00200090206800680090206813
:102C80004068009000BF00BF2068406900F040002D
:102C900040285ED1A06B006840681FFA80F8B8F148
:102CA000000F54D0A08D404551DDA4F82E80A06BBC
:102CB000C069B0F5807F43D000BF00BF21680C31F0
:102CC00051E8001F21F4807021680C3141E80002B6
:102CD000002AF3D100BF00BF00BF2168143151E8C2
:102CE000001F21F001002168143141E80002002A90
:102CF000F3D100BF00BF00BF2168143151E8001FAD
:102D000021F040002168143141E80002002AF3D18B
:102D100000BF202084F83E000020206300BF00BFD9
:102D200021680C3151E8001F21F0100021680C319E
:102D300041E80002002AF3D100BFA06BFEF7E5FDD9
:102D4000A08DE28D801A81B22046FFF7FDFD03E7DA
:102D500040E0A08DE18D401A1FFA80F8E08DC0B3ED
:102D6000B8F1000F35D000BF00BF21680C3151E829
:102D7000001F21F4907021680C3141E80002002A04
:102D8000F3D100BF00BF00BF2168143151E8001F1C
:102D900021F001002168143141E80002002AF3D13A
:102DA00000BF202084F83E000020206300BF00BF49
:102DB00021680C3151E8001F21F0100021680C310E
:102DC00041E80002002AF3D100BF41462046FFF748
:102DD000BBFDC1E605F0800030B106F0800018B1FF
:102DE000204600F0B3FDB7E605F0400030B106F034
:102DF000400018B1204600F08BFBADE600BFABE60B
:102E00007133000810B504460CB9012010BDA0694B
:102E100000B100E000BF94F83D0028B9002084F81C
:102E20003C00204600F028F8242084F83D0020686B
:102E3000C06820F400502168C860204600F008FCFB
:102E40002068006920F4904021680861206840698A
:102E500020F02A00216848612068C06840F40050D2
:102E60002168C86000202064202084F83D0084F898
:102E70003E000020CAE7000010B586B004461421C9
:102E800001A8FDF7D7F93C492068884272D100BFFC
:102E9000002000903948006840F020003749086061
:102EA0000846006800F02000009000BF00BF00BF8F
:102EB0000020009031481438006840F004002F4989
:102EC000143908600846006800F00400009000BF54
:102ED00000BFC0200190022002900020039001203A
:102EE00004900820059001A92548FEF76DFF2548AC
:102EF0002549086080054860002123488160C16041
:102F00004FF480610161002141618161C161016211
:102F10004162FEF785FE08B1FEF740F800BF1A488F
:102F2000A063846300BF17487830184908604FF0E9
:102F3000206048604021154881600021C1604FF445
:102F400080610161002141618161C1610162416271
:102F5000FEF766FE08B1FEF721F800BF0B4860637C
:102F6000846300BF002211464720FFF7B1F84720D5
:102F7000FFF79EF806B010BD00140140443802402F
:102F80000008024028640240AC0000200C01002030
:102F9000704770472DE9F84F04460E46174699468C
:102FA0004FF0000A94F83D0020285AD106B117B915
:102FB0000120BDE8F88F00BF94F83C00012801D142
:102FC0000220F6E7012084F83C0000BF00202064C6
:102FD000212084F83D00FEF7F1FF8246A784E784B4
:102FE000A068B0F5805F04D1206910B90025B04613
:102FF00002E035464FF0000800BF002084F83C0096
:1030000000BF1BE05346002280212046CDF80090EF
:1030100000F0CCFC08B10320CBE745B9B8F80000BC
:10302000C0F308002168486008F1020803E028782E
:10303000216848606D1CE08C401EE084E08C002814
:10304000E0D15346002240212046CDF8009000F008
:10305000ADFC08B10320ACE7202084F83D0000203F
:10306000A7E70220A5E7704700BFFEE7084991EDFA
:103070001E0ABDEEC00A10EE100A002801DB014650
:1030800000E04142322901DC012070470020FCE7CA
:103090006C01002010B501200549087081F89000EE
:1030A00081F8200181F8B001FDF7C0FD10BD0000DE
:1030B0006C01002010B50D480D49086006204860DD
:1030C00000210B488160C1604FF480210161002123
:1030D0004161017641768176C17601774177FEF7CD
:1030E000B3FA08B1FDF75AFF10BD000000640040BC
:1030F0004000002008B500BF002000900E48006886
:1031000040F480000C4908600846006800F4800024
:10311000009000BF00BF002211463920FEF7D8FF03
:103120003920FEF7C5FF002211464520FEF7D0FFEB
:103130004520FEF7BDFF08BD3038024008B500BF8E
:10314000002000901548006840F080001349086096
:103150000846006800F08000009000BF00BF00BF7C
:10316000002000900846006840F00400086008460F
:10317000006800F00400009000BF00BF00BF002006
:1031800000900846006840F00100086008460068AA
:1031900000F00100009000BF00BF08BD30380240C1
:1031A00010B50C480C4908604FF4165048600021D7
:1031B000094881604FF40051C160002101610C2178
:1031C000416100218161C161FFF71CFE08B1FDF77B
:1031D000E5FE10BD001401406800002000BFFEE7BE
:1031E00000BFFEE790ED040AD0ED030A30EE600A5E
:1031F00080ED050A90ED050AD0ED070A30EE600A71
:10320000D0ED000A20EE200AD0ED010A90ED051A5B
:1032100000EE810AD0ED050A90ED071AF0EE001AD3
:1032200041EEC10A90ED061A70EE810A90ED021A85
:1032300001EE200AD0ED080A30EE200A80ED080ADF
:1032400090ED070A80ED060A90ED040AD0ED030A1E
:1032500030EE600A80ED070A90ED080AD0ED090A09
:10326000B4EEE00AF1EE10FA03DD90ED090A80ED0C
:10327000080A90ED080AD0ED090AF1EE600AB4EEF2
:10328000E00AF1EE10FA05D290ED090AB1EE400A1B
:1032900080ED080A70477047704710B5FEF794FE3E
:1032A00010BD000000B593B0302107A8FCF7C2FFA5
:1032B000142102A8FCF7BEFF00BF002001902548A2
:1032C000006840F08050234908600846006800F01C
:1032D0008050019000BF00BF00BF002001901E4839
:1032E000006840F480401C4908600846006800F40B
:1032F0008040019000BF00BF0220079001200A908B
:1033000010200B9002200D9000210E9108210F91AA
:10331000A8211091022111910421129107A8FFF711
:1033200069F808B1FDF73AFE0F20029002200390E1
:10333000002004904FF4A05005904FF48050069068
:10334000052102A8FEF716FF08B1FDF727FE13B00E
:1033500000BD000040380240007000400348006893
:1033600040F47000014908607047000088ED00E0FB
:1033700070B50546AC6B0020E085E0842046FFF781
:103380007BFB70BD70B506460025B46B20684069B4
:10339000C0F3C01594F83D00212805D125B10020C7
:1033A000E084204600F0C4F820684069C0F380152E
:1033B00094F83E00222805D125B10020E085204662
:1033C00000F070F8206C40F0100020642046FFF7F9
:1033D00053FB70BD70B50546AC6B2868006800F4FF
:1033E0008070002842D1E08500BF00BF21680C3109
:1033F00051E8001F21F4807021680C3141E800027F
:10340000002AF3D100BF00BF00BF2168143151E88A
:10341000001F21F001002168143141E80002002A58
:10342000F3D100BF00BF00BF2168143151E8001F75
:1034300021F040002168143141E80002002AF3D154
:1034400000BF202084F83E00206B01280ED100BF71
:1034500000BF21680C3151E8001F21F010002168E5
:103460000C3141E80002002AF3D100BF206B012893
:1034700004D1A18D2046FFF767FA02E02046FFF74E
:1034800087FD70BD70B50546AC6B206B012805D17A
:10349000A08D41082046FFF757FA02E02046FFF7CB
:1034A00078FD70BD00BF00BF02680C3252E8002FEB
:1034B00022F4907102680C3242E80013002BF3D121
:1034C00000BF00BF00BF0268143252E8002F22F094
:1034D00001010268143242E80013002BF3D100BF4F
:1034E000016B01290ED100BF00BF02680C3252E807
:1034F000002F22F0100102680C3242E80013002B6A
:10350000F3D100BF202180F83E10002101637047F5
:1035100010B504462068C06820F040002168C860EB
:10352000202084F83D002046FFF79DFD002010BDBF
:1035300000BF00BF02680C3252E8002F22F0C00129
:1035400002680C3242E80013002BF3D100BF2021A7
:1035500080F83D107047F8B5044694F83E002228E4
:1035600073D1A068B0F5805F0CD1206950B90025F7
:10357000A66A20684068C0F308003080A06A801CFA
:10358000A06215E0A56A0026A068B0F5805F03D0B0
:10359000A06828B9206918B920684068287004E03C
:1035A0002068406800F07F002870A06A401CA0627C
:1035B000E08D401E80B2E085002844D12068C068BC
:1035C00020F020002168C8602068C06820F4807066
:1035D0002168C8602068406920F0010021684861C6
:1035E000202084F83E00206B012826D10020206393
:1035F00000BF00BF21680C3151E8001F21F010000E
:1036000021680C3141E80002002AF3D100BF206894
:10361000006800F0100010280AD100BF00200090C0
:1036200020680068009020684068009000BF00BFDC
:10363000A18D2046FFF788F902E02046FFF7A8FC9D
:103640000020F8BD01E00020FBE70220F9E70000C0
:103650002DE9F84F04462068006920F44050E168E5
:103660000843216808612169A0680843616908432B
:10367000E169084300902068C06849F20C61884302
:10368000009908432168C8602068406920F44070B0
:10369000A16908432168486176492068884203D0BF
:1036A00075492068884203D1FEF73CFE814602E05E
:1036B000FEF728FE8146E069B0F5004F6CD102208C
:1036C0006168A0FB015003461920A9FB0070014668
:1036D0002A463846FCF776FD6421B0FBF1F04FEA4C
:1036E000001A02206168A0FB01510B461920A9FBBA
:1036F00000712A463846FCF765FD83460220616862
:10370000A0FB015003461920A9FB00712A46384648
:10371000FCF758FD6421B0FBF1F000EBC00101EBB8
:103720000010ABEB8000322101EBC0006421B0FB44
:10373000F1F000F0F8000AEB400A02206168A0FBFB
:10374000015003461920A9FB007001462A4638465D
:10375000FCF738FD834602206168A0FB0150034658
:103760001920A9FB00712A463846FCF72BFD64217D
:10377000B0FBF1F000EBC00101EB0010ABEB8000FF
:10378000322101EBC0006421B0FBF1F000F0070032
:103790005044216888606AE004206168A0FB015001
:1037A00003461920A9FB007001462A463846FCF75B
:1037B00009FD824604206168A0FB015003461920E0
:1037C000A9FB007001462A463846FCF7FBFC642141
:1037D000B0FBF1F000EBC00101EB0010AAEB8000A0
:1037E000322101EB00106421B0FBF1F000F0F00A8F
:1037F00004206168A0FB017003461920A9FB005159
:103800003A462846FCF7DEFC6421B0FBF1F00AEBF7
:10381000001A04206168A0FB01510B461920A9FB86
:1038200000712A463846FCF7CDFC834604206168C7
:10383000A0FB015003461920A9FB007001462A464F
:103840003846FCF7BFFC6421B0FBF1F000EBC0018F
:1038500001EB0010ABEB8000322101EB0010642182
:10386000B0FBF1F000F00F00504421688860BDE823
:10387000F88F0000001001400014014077B581B0BE
:10388000044615460298A062A585002020642220E7
:1038900084F83E002A48A16BC8632A48A16B0864DB
:1038A0002948A16BC8640020A16B086502AE32688C
:1038B0002368191D2B46A06BFEF728FA00BF0020D5
:1038C000009020680068009020684068009000BF69
:1038D00000BF00BF002084F83C0000BF206970B129
:1038E00000BF00BF21680C3151E8001F41F4807017
:1038F00021680C3141E80002002AF3D100BF00BF6B
:1039000000BF2168143151E8001F41F00100216817
:10391000143141E80002002AF3D100BF00BF00BF0C
:103920002168143151E8001F41F040002168143132
:1039300041E80002002AF3D100BF002004B070BDAE
:10394000D53300088534000885330008014691F816
:103950003D00212828D18868B0F5805F0BD1086927
:1039600048B90A6A1088C0F308000B685860086AF2
:10397000801C086205E00B6A581C086218780B6806
:103980005860C88C401E80B2C88458B90868C068A6
:1039900020F080000B68D8600868C06840F04000E4
:1039A0000B68D860002070470220FCE72DE9F04149
:1039B00004460D4617469846069E34E0701C88B3B0
:1039C0002EB1FEF7FBFAA0EB0800B0422BD900BFE6
:1039D00000BF21680C3151E8001F21F4D07021682C
:1039E0000C3141E80002002AF3D100BF00BF00BF44
:1039F0002168143151E8001F21F0010021681431C1
:103A000041E80002002AF3D100BF202084F83D00E5
:103A100084F83E0000BF002084F83C0000BF032073
:103A2000BDE8F081FFE7206800682840A84201D186
:103A3000012000E00020B842C0D00020F0E70000E4
:103A400010B50248FFF76EF810BD000068000020B6
:103A500000BFFEE702480068C0F302207047000084
:103A60000CED00E010B5002804DB0A07130E054A30
:103A7000135406E00A07140E034A00F00F031B1F3D
:103A8000D45410BD00E400E018ED00E00000000098
:103A900030B583B0044600F017F89FED090B0546DA
:103AA0008DED000B002221466846FCF750FC2846AD
:103AB00000F020F89DED000B03B030BD00000000C9
:103AC000000000000000000001480068704700008E
:103AD0003000002002E008C8121F08C1002AFAD1F5
:103AE00070477047002001E001C1121F002AFBD17E
:103AF0007047000001490860704700003000002056
:103B000030380A2801D20120704700207047000099
:103B10004A780B7842EA032200EE102AB8EEC00A77
:103B2000DFED0B0A20EE200AD0ED0D0A80EE201A00
:103B300080ED021A90ED020A80ED060A90ED060A69
:103B400080ED070A90ED020A80ED080A7047000038
:103B50000000B4432DED028B82B0FEF741FAFFF76F
:103B6000A1FBFFF7EBFAFFF7C5FAFFF7A3FAFFF7A0
:103B700017FB4FF47A70FEF713F93748FCF7A2FFF2
:103B8000FFF788FA35480068406940F00100334982
:103B9000096848610A2232493048FEF793FE3148ED
:103BA0000068006820F008002E490968086052E0AB
:103BB0002D480078012809D129480078412805D1ED
:103BC000002029490870012028490870284890EDF4
:103BD000000B51EC100BFCF763FB08EE100AB0EE83
:103BE000480A00F089F8234890ED820ABDEEC00A29
:103BF00010EE100A00B200901E4890ED5E0ABDEE75
:103C0000C00A10EE100A03B21A4890ED3A0ABDEE4F
:103C1000C00A10EE100A02B2164890ED160ABDEE68
:103C2000C00A10EE100A01B20B48FCF783FFFFF741
:103C30001DFA01280CD10D480078012808D1FF2376
:103C400001220D490548FFF7A5F900200749087032
:103C50000520FEF7A5F8ABE7400000206800002033
:103C600034000020AC0000200100002002000020F1
:103C7000080000206C010020203D000800B5B0EED7
:103C8000402A024682ED1D2A92ED0A0A82ED1C0AA4
:103C900002F16400FFF7A6FA92ED210A82ED120A02
:103CA00092ED030A82ED110A02F13800FFF79AFA49
:103CB00000BD000010B52DED028BB0EE408A0C481F
:103CC000B0EE480AFFF7DAFF09489030B0EE480A34
:103CD000FFF7D4FF0748B0EE480AFFF7CFFF0548CB
:103CE0009030B0EE480AFFF7C9FFBDEC028B10BD63
:103CF0006C0100208C02002010B52DED028BB0EE7F
:103D0000408A9FED060A28EE000AF0EE408AB0EEE7
:103D1000680AFFF7CFFFBDEC028B10BD66667142EB
:103D2000AA00061016000610160000000000000091
:103D30000001020304060708090000000001020355
:103D400004DDDDDDDDDCBBBBDDDDDDDDDDDDDDDDC1
:103D5000DD988888888888888877777777778888D3
:103D600088855555566666666666666666666888C0
:103D700088833333322222222222222222222888BE
:103D80008D000000A43D0008000000203400000069
:103D9000D43A0008D83D000834000020BC090000D7
:103DA000E43A0008300000000000000000000000BD
:103DB00000000000000000000000000010000000F3
:103DC000010000000024F4000000000000000000DA
:083DD0000000000000000000EB
:040000050800018965
:00000001FF
