:020000040800F2
:1000000058110020E5010008D54A0008833B00088C
:10001000D14A0008F9160008C9560008000000007F
:10002000000000000000000000000000854D0008F6
:100030004917000800000000594D0008874D0008CE
:10004000FF010008FF010008FF010008FF01000890
:10005000FF010008FF010008FF010008FF01000880
:10006000FF010008FF010008FF010008FF01000870
:10007000FD1600080D170008FF010008FF01000829
:10008000FF010008FF010008FF010008FF01000850
:10009000FF010008FF010008FF010008FF01000840
:1000A000FF010008F94D0008FF010008FF010008EA
:1000B000094E0008194E0008FF010008FF01000862
:1000C000FF010008FF010008FF010008FF01000810
:1000D000FF01000899560008A9560008B956000803
:1000E000FF010008FF010008FF01000800F002F80E
:1000F00000F068F80AA090E8000C82448344AAF15A
:100100000107DA4501D100F05DF8AFF2090EBAE857
:100110000F0013F0010F18BFFB1A43F0010318473B
:10012000BC8E0000DC8E00000A444FF0000C10F87A
:10013000013B13F0070408BF10F8014B1D1108BF65
:1001400010F8015B641E05D010F8016B641E01F805
:10015000016BF9D113F0080F1EBF10F8014BAD1C55
:100160000C1B09D16D1E58BF01F801CBFAD505E073
:1001700014F8016B01F8016B6D1EF9D59142D6D3CD
:10018000704700000023002400250026103A28BFF5
:1001900078C1FBD8520728BF30C148BF0B607047F9
:1001A0001FB500F01FFC04000020002107F00AFF2B
:1001B000401C60600020002107F0EEFEE0601FBDE3
:1001C00010B510BD00F01AF91146FFF7E9FF05F070
:1001D000BBFE00F0BDFB03B4FFF7F2FF03BC00F071
:1001E000A1FE00000948804709480047FEE7FEE7F6
:1001F000FEE7FEE7FEE7FEE7FEE7FEE7FEE7FEE7D7
:1002000004480549054A064B70470000F54D0008B3
:10021000ED000008580B002058110020580D002058
:10022000580D002010B5203AC0F00B80B1E81850EE
:10023000203AA0E81850B1E81850A0E81850BFF4D0
:10024000F5AF5FEA027C24BFB1E81850A0E818506F
:1002500044BF18C918C0BDE810405FEA827C24BFC3
:1002600051F8043B40F8043B08BF7047D20728BF51
:1002700031F8023B48BF11F8012B28BF20F8023BA0
:1002800048BF00F8012B70474FF0000200B513463D
:1002900094469646203922BFA0E80C50A0E80C50A6
:1002A000B1F12001BFF4F7AF090728BFA0E80C5057
:1002B00048BF0CC05DF804EB890028BF40F8042B50
:1002C00008BF704748BF20F8022B11F0804F18BFBD
:1002D00000F8012B704770477047704710B500F069
:1002E0005BF8006810BD10B5044600F055F80460D6
:1002F00010BD00000FB4002300B589B00CA9009117
:100300000B99CB60214B7B440693214B7B44079395
:1003100004236FF00042CDE901321E4A7A446B4655
:1003200008920246002008F092FD09B05DF814FB27
:1003300070B506464FF0FF3015460C46324686B083
:100340000091CDE9010169460020049004A8FFF75F
:10035000D1FF02460498211825B108B1084600E0F3
:1003600020462860049800280DD0002A02DD00985D
:10037000884208D03246081B69460094CDE9010442
:1003800004A8FFF7B7FF06B070BD0000A900000089
:10039000C10000008100000000487047F80A0020FA
:1003A00010B5044600F050F80068005D00F0010050
:1003B00010BD426842B1016811F8013B23B1521EE1
:1003C000C0E90012184670470121C160881E7047BD
:1003D00042685AB1C368016843B983688B4205D04B
:1003E000491E521CC0E90012002070474FF0FF3038
:1003F0007047000000487047F80A00207546FFF774
:10040000F9FFAE4605006946534620F007008546D1
:1004100018B020B5FFF7F4FEBDE820404FF000060D
:100420004FF000074FF000084FF0000B21F00701DC
:10043000AC46ACE8C009ACE8C009ACE8C009ACE81F
:10044000C0098D467047000010B500F0CBFA001DC2
:1004500010BD00BF717B00002DE9FF4F06468BB039
:100460000878FF2806D0491C2D2805D000244FF01D
:10047000000908E000200CE00124F8E709EB8903FB
:10048000491C00EB43090878FF28F7D114B1C9F1E2
:1004900000008146107800252C46AA4629462D28C2
:1004A00001D02B2804D1521C2D2813D000208246C5
:1004B0008B461078FF280FD04FF0000C0A21521CF9
:1004C000A5FB017804FB018105FB0C11C5194BEB61
:1004D0000104EEE70120EAE7002108464FF00000A2
:1004E000BAF1000F02D000EB80004008C0F3815742
:1004F000012F01DD4FF0FF370E9955EA040009EB9B
:1005000001080BD04FF0020918F5FA7F16DA4FEA0E
:10051000CA70002F706008DD012007E04FEACA7042
:10052000C6E900B00FB0BDE8F08F00203060FFF7E3
:1005300033FFC0F800901821084616E0B8F5FA7F9E
:1005400018DD002F02DAF748784401E0F6487844D5
:10055000D0E90010C6E9001040EACA707060FFF7E9
:100560001BFFC0F80090142108460FB0BDE8F04F03
:1005700008F00ABC002108464FF00000B8F1000165
:10058000099002DAC7F1000200E03A4601DAC8F148
:10059000000106A800F02AFA06AB93E8070003ABB7
:1005A00083E8070044F23E005BEA040100905846ED
:1005B00004D144F21E012C465D460091210C090431
:1005C000014306D10099240444EA15442D0410394E
:1005D000009104F07F41014306D10099240244EACE
:1005E00015642D020839009104F07041014306D1D1
:1005F0000099240144EA15742D01091F009104F0AB
:100600004041014306D10099A40044EA9574AD002D
:10061000891E009104F00041084304D100986D192F
:100620006441401E00904FF001033A466846B8F11D
:10063000000FCDE9014503A902DD00F026FF01E02E
:1006400000F0F9FEBAF1000F04460D4601D084F027
:100650000044002108464FF00000099940F2FF775E
:10066000484010F00C0F07D124F00040284303D07D
:10067000C4F30A50B84212D1FFF78EFEC0F80090C2
:10068000C4F30A50B8420AD1A8487844D0E900100F
:10069000C6E9001004F000410843706042E7C6E973
:1006A00000543FE72DE9FF4F1F464FF0000A4FF07F
:1006B000FF38454691B0D7E90146CDF83CA000F09F
:1006C00091F9C0680168405C1090B96912986D1C7E
:1006D0008847396A814688470028F6D1B9F1FF3F3B
:1006E0000AD0002E24F4D06411DDB9F12B0F08D00C
:1006F000B9F12D0F0BD102E0404615B013E744F4D9
:100700008064B96912986D1C8847761E8146600521
:1007100004A901D52D2000E02B20002E01F1010BB2
:100720000DF130088DF810003FDDB9F1690F08D0E8
:10073000B9F1490F05D0B9F16E0F02D0B9F14E0FE2
:100740001CD13B4601A8009580E85002DDE9121259
:100750006FF0020008F07FFBC11CCED10EE0B9693A
:1007600012986D1C884781461398761E44F40074D5
:1007700005600F98401C002E0F9016DDB9F1300F68
:10078000EDD0B9F1780F02D0B9F1580F0DD10F9813
:1007900001280AD13B46CDE90054DDE91212001FC1
:1007A000029608F056FBC11CA7D1109989453ED18D
:1007B00044F0800406E01399681CAAF1010A44F48D
:1007C00000740860B9696D1C1298761E884730283D
:1007D0008146F0D02BE01099894505D1200603D43D
:1007E000761E44F0800418E0484605F086F808B309
:1007F000761E0DF123018B4544F4007408D2A9F153
:1008000030000BF8010B200607D5AAF1010003E028
:10081000200602D40AF101008246A00502D51399F0
:10082000681C0860B96912986D1C88478146002EC3
:10083000D1DC53E0002E51DDB9F1650F02D0B9F1E2
:10084000450F4BD1A00549D5B9696D1C1298761E8C
:1008500024F440748847002E81460CDD2B2804D0F8
:10086000B9F12D0F07D144F48074B96912986D1C49
:100870008847761E8146E00501D52D2100E02B2119
:1008800008F8011BCDF8008021E0761E0DF139013A
:10089000884544F400740CD2A9F1300010F0FF0038
:1008A00088F8000002D10099884509D908F10108AB
:1008B00006E0E00501D51E4801E042F20F708246D5
:1008C000B96912986D1C8847814613980560002EFF
:1008D00004DD484605F011F80028D6D1F9691298D0
:1008E0008847FF2053468BF8000088F8000000205E
:1008F0000A900B9004AA0CA90AA8FFF7ADFDA00569
:1009000002D46FF00100F8E614F0240F12D0E007D3
:100910001CD13868DDE90A12031D3B600068C0E99C
:10092000001213E0B88A0000AA8A00006E89000055
:10093000F1D8FFFF0AA9684604F06EFFE00705D171
:100940003868009A011D3960006802602846D4E6C4
:1009500010B50446AFF300802046BDE81040FFF715
:100960003ABC00004FF0013C50F8042B51F8043B16
:100970009A4221D1A2EB0C03934313EACC1317D173
:1009800050F8042B51F8043B9A4215D1A2EB0C030A
:10099000934313EACC130BD150F8042B51F8043BCA
:1009A0009A4209D1A2EB0C03934313EACC13DBD098
:1009B0004FF00000704700BFD01A01BAB1FA81F1C0
:1009C00001F0180122FA01F0CB40C1F12001DBB2A5
:1009D000C0B2C01A2CFA01F3D11A914311EAC31123
:1009E000E6D1704700487047180B00202DE9F0470A
:1009F000814616468AB0354878440DC88DE80D000A
:100A000032487844801C03AC0DC884E80D0041F6E0
:100A10009B300844372190FBF1F290FBF1F5A5F1F2
:100A2000800501FB12041B3C02D56442012000E05A
:100A30000020DFF898A080460027FA44AAF1BE0AF9
:100A40000EE0E0070AD03246684607EB4701012373
:100A50000AEB810100F004FD8DE8070064107F1CA3
:100A6000002CEED1194F7F44AE3F19E0E80715D0B6
:100A700007EB04100DF1180A90E80E008AE80E004A
:100A8000C068F04201D1981908903246012306A9A6
:100A900003A800F0E5FC03AB83E807006D10641CBD
:100AA000002DE3D14FF0010332466946B8F1000F43
:100AB00003A802D000F0AAFC01E000F0D1FCC9E9D3
:100AC0000001C9F808200AB0BDE8F087C885000019
:100AD0002DE9FF4F1F464FF03C0987B04FF0004211
:100AE000DDE9141001F10108DDF858A002EA4050D8
:100AF0000390002005908346054604460490B9699A
:100B0000461E08988847AAF1010A0290BAF1000F20
:100B10003BDD02982E2815D0102100F01CFA002889
:100B20002EDB4FF0010B0599014317D0B9F1000FEF
:100B30000BDB4A46C11700F0FBF905430C43A9F152
:100B4000040905E0012004900BE008B145F001051F
:100B500001200590049820B9361D02E0049800B1E8
:100B6000361FB969089808F101088847BBF1000FE2
:100B7000AAF1010A0290C9D00999C1F80080C5E71D
:100B80000298702808D0502806D0F969089888473C
:100B9000BBF1000F14D04FE0002002900120BBF108
:100BA000000F049009D0B969089808F10108884736
:100BB000AAF10109B9F1000F07DCF9690898884723
:100BC0006FF001000BB0BDE8F08F2B2804D02D286A
:100BD0000CD14FF0FF300490B969089808F1010872
:100BE0008847A9F10109B9F1000FE6DD411CE4D005
:100BF0000A2100F0B0F90028DFDB029908F10108B2
:100C000001EB810100EB41000290B9690898884727
:100C10000A2100F0A0F9099AA9F10109B9F1000F20
:100C2000C2F8008001DD0028E7DAF96908988847F2
:100C30000499029800FB016655EA040004D004F010
:100C40004041090002D006E0039898E0A40044EA7D
:100C50009574AD00B61E04F00041080002D16D1974
:100C60006441761E159810F0240F03D04FF00B0945
:100C70005C4803E04FF028096FF07D00824656453E
:100C800007DAAAEB06018944B9F1410F01DD4FF003
:100C9000410901200021A9F1010200F049F90246B1
:100CA00028400B462140084301D0012100E00021EB
:100CB000501E029143F1FF3128402140084301D0EA
:100CC000012000E000200299834651EA0B014FD039
:100CD000002108464FF00000039900F4400039B1AC
:100CE00000EB80004FF4400100EBD07001EA60009F
:100CF0008015012802DD4FF0FF3000E013D0401CCA
:100D000036D0029860B3BBF1000F0CD14A460120E7
:100D1000002100F00DF928402140084301D00120B6
:100D200000E00020E0B101204A46002100F000F977
:100D3000034640190A4661412D1A8C4111D3B9F17D
:100D4000400F09DD159810F0240F02D0AAF13406E7
:100D500003E0AAF1170600E0761C00254FF00044DE
:100D600006E05B1E42F1FF3220EA030521EA02049D
:100D7000CAF10100B04206DA1B490398084301900A
:100D8000002000900EE0039AC4F3D321E80A0A433E
:100D9000164940EA44500A433146CDE9000268460C
:100DA00004F0A0FD159810F0240F0BD01598C00783
:100DB00015D13868DDE90012031D3B600068C0E909
:100DC00000120CE002A8694604F026FD1598C00741
:100DD00005D13868029A011D3960006802604046FA
:100DE000F0E6000002FCFFFF0000F07F0000F03F93
:100DF0002DE9FF4F92461D4685B04FF00041DDE9D9
:100E0000124BDDE914727F1E01EA4B50414940F05C
:100E1000FF4940EA0108002122F0200049280491FE
:100E200002D04E2828D04CE03BA0012607C88DE810
:100E30000700A9690698641C88477F1E014606D4EE
:100E40001DF8060018B121F0200181420BD0E9699C
:100E500006988847032E34D0082E32D06FF0010058
:100E600009B0BDE8F08F761C032E01D0082EE0D12A
:100E7000601CCAF80000DCE7A9690698641C884772
:100E80007F1E2AD420F02000412826D1A969069887
:100E9000641C88477F1E20D420F020004E281CD1DF
:100EA000A9690698641C88477F1E48F4002849F405
:100EB0008009CAF8004001D4282806D0E9690698BC
:100EC00088475FEACB7012D022E0A9690698641CBB
:100ED00088477F1E01D4002803DAE969069888470D
:100EE000BCE72928F1D1641CCAF80040E9E71BF0EF
:100EF000240F07D028680499031D2B600068C0E9FF
:100F0000001805E02868021D2A600068C0F80090FB
:100F10002046A5E70000F07F494E46494E49545906
:100F20000000000001491820ABBEFEE726000200C9
:100F3000B2F120030AD5C2F1200301FA02F120FA2E
:100F400003F300FA02F041EA0301704700FA03F1EB
:100F50004FF0000070473A2800D2303820F02002CD
:100F6000412A01D3A2F13700884201D34FF0FF306C
:100F70007047704720F07F4C80EA030023F07F47E2
:100F8000ACEB070303F57C5300F0004003F1FF03D3
:100F90002DE980494FEA154B09B44FEA144325EA7D
:100FA0000B4E24EA03480FF2042606EB13274908E8
:100FB0003E785FEA320203FB0667C7F5000707FBCE
:100FC00006F64FEA54374FEAD64606F1020607FB0B
:100FD000066CCCF1005C4FEA1C472CEA074C07FB7F
:100FE00006F40CFB06F504EB15464FEA961634BFE3
:100FF00000204FF000404FEAD13706FB07FC4FEAD4
:101000001C4C0CFB0BF7D21B03FB0CF761EB07012D
:101010000CFB0EF7B0EB074072EB17420CFB08F726
:1010200034BFA2EB0742B2EB074261EB17414FEA34
:101030000C444FEA910706FB07FC4FEA1C4C0CFBE3
:101040000BF7B0EBC74072EB573203FB0CF734BF22
:10105000A2EBC742B2EBC74261EB57310CFB0EF774
:10106000B0EBC70072EB57720CFB08F734BFA2EB72
:10107000C702B2EBC70261EB5771039F4FEA816170
:1010800041EA921104EBCC044FEAD1374FEA826275
:1010900006FB07FC42EA90124FEA80604FEA1C4CC4
:1010A0000CFB0BF7D21B03FB0CF761EB07010CFBEE
:1010B0000EF7B0EB074072EB17420CFB08F734BF9A
:1010C000A2EB0742B2EB074261EB17414FEA8C55A6
:1010D0004FEA910704EB9C2406FB07FC4FEA1C4CEB
:1010E0000CFB0BF7B0EBC74072EB573203FB0CF76E
:1010F00034BFA2EBC742B2EBC74261EB57310CFBE6
:101100000EF7B0EBC70072EB57720CFB08F734BF59
:10111000A2EBC702B2EBC70261EB577115EB4C258E
:101120004FEA816141EA92114FEA82624FEAD13778
:1011300042EA901206FB07FC44F100044FEA80608B
:101140004FEA1C4C0CFB0BF7D21B03FB0CF761EBBB
:1011500007010CFB0EF7B0EB074072EB17420CFBDC
:1011600008F734BFA2EB0742B2EB074261EB17412D
:1011700015EB1C154FEA813141EA92414FEA823268
:1011800042EA90424FEA80304FEA0C7644F1000484
:1011900048EA03434EEA0B484FF0000EB2EB080C4E
:1011A00071EB030724BF624639464EEB0E0E4FF03B
:1011B000000B0018524149414BEB0B0BB2EB080CF2
:1011C00071EB03077BF1000B24BF624639464EEBFF
:1011D0000E0E4FF0000B0018524149414BEB0B0B28
:1011E000B2EB080C71EB03077BF1000B24BF6246E6
:1011F00039464EEB0E0E51EA020718BF46F00106C3
:1012000016EB0E7655F1000254F1000103D5BDE84E
:101210008901BDE80088BDE88901BDE80048B6192C
:10122000524141EB0101A3F10103704780807F7EB1
:101230007D7C7B7A7978777676757473727171704C
:101240006F6E6E6D6C6C6B6A6A69686867666665FE
:101250006464636362616160605F5F5E5E5D5D5C8C
:101260005C5B5B5A5A5959585857575656555555FD
:101270005454535352525251515050504F4F4F4E5D
:101280004E4D4D4D4C4C4C4B4B4B4A4A4A494949AB
:1012900048484847474747464646454545444444ED
:1012A00044434343434242424241414146EA0646A7
:1012B000A3F570534FEA164646EA42564FEAD22249
:1012C00042EA415210B54FEAD121A3F1010300F0E7
:1012D0002FF820F0004000F1020C00F0004701EB75
:1012E00000501146BCF5006F40EA070000D210BD67
:1012F000BAF1000F0AD01CB503B44FF004004FF050
:1013000004014FF000000FBCBDE810404FF0000199
:10131000BBF1010FB9BF04484FF0FF310348002172
:1013200040EA070010BD00BFFFFFEF7F0000F07F25
:10133000002B9C4630D477002BD01CB54FEA3707E2
:1013400003B44FF010004FF01001BAF1000F06D0B7
:10135000BCF1000FDCBF40F0080040F008014FF086
:1013600000000FBCBDE810400BF1010BBBF1010FF9
:1013700008BF5FEA170722BF12F1010211F1010154
:101380004FF0004143F1000300F0004043EA000049
:101390007047F9D35708D0E746EA064613F1400FE5
:1013A0004FEA16461FDD13F1200FDFBF16430A4632
:1013B000002120335B42BED0C3F1200746EA064637
:1013C00002FA07F74FEA164646EA0706C3F1200776
:1013D00022FA03F201FA07F721FA03F14FF00003B2
:1013E00042EA0702A7E746EA020646EA06464FEA4D
:1013F000164646EA0106BCBF46EA0646360C4FF0E2
:1014000000034FF000024FF0000194E72DE9804CFB
:101410009A46934670B491E8380007C831EA400C08
:1014200048BF34EA430C03D5FFF7A4FDFFF780FF64
:10143000F0BCBDE8008C2DE9804C9A46934670B410
:1014400091E8380007C831EA400C48BF34EA430C41
:1014500003D5FFF78FFDFFF729FFF0BCBDE8008C37
:101460002DE9804C9A46934670B491E8380007C83D
:1014700010F0804F08BF13F0804F03D100F01AF82E
:10148000FFF756FFF0BCBDE8008C2DE9804C9A4672
:10149000934670B491E8380007C810F0804F08BF39
:1014A00013F0804F03D100F005F8FFF7FFFEF0BC0A
:1014B000BDE8008C20F07F4780EA030023F07F4CDA
:1014C00007EB0C03A3F57C5300F00040A3F1FE03EF
:1014D00092F0000F00F0B38095F0000F00F07780DD
:1014E0002DE901494FEA11404FEA144621EA00482C
:1014F00000FB06FC24EA064708FB06F607FB08F893
:1015000000FB07F718EB06484CEB164C4FEA124B62
:1015100018EB07484FEA15464CEB174022EA0B4EF2
:101520000BFB06FC25EA06470EFB06F607FB0EFE44
:101530000BFB07F71EEB064E4CEB164C4FF000066C
:101540001EEB074E4CEB174B18EB0B0840F100005D
:1015500018EB0E0B58EB000840F100008F1A4FF00B
:1015600000013CBFC943661B14BFB5EB040C00214E
:101570003CBFC943F61B4FEA17444EEA8E0E27EADA
:1015800004454FEA1C4704FB07622CEA074C05FBA5
:1015900007F70CFB05F604FB0CFC16EB074642EBC9
:1015A000174216EB0C4642EB1C421BEB060658EBAF
:1015B0000202414146EA9E0601D5BDE80189B619FD
:1015C000524141EB0101A3F10103BDE801894FEA5A
:1015D00014454FEA114724EA054621EA074C05FB6A
:1015E00007F406FB07F70CFB06F105FB0CFC11EBFF
:1015F000074144EB17444FEA124711EB0C4144EB0F
:101600001C4422EA074C05FB07F206FB07F70CFB1C
:1016100006F605FB0CFC16EB074642EB174216EBF1
:101620000C4642EB1C456A1854F1000148BF704754
:10163000B619524141EB0101A3F10103704795F046
:10164000000F37D04FEA11424FEA144721EA024611
:1016500024EA074C02FB07F106FB07F70CFB06F434
:1016600002FB0CFC14EB074441EB17414FEA154712
:1016700014EB0C4441EB1C4125EA074C02FB07F537
:1016800006FB07F70CFB06F602FB0CFC16EB074605
:1016900045EB174516EB0C4645EB1C42121951F170
:1016A000000148BF7047B619524141EB0101A3F157
:1016B000010370474FEA14454FEA114724EA0546F3
:1016C00021EA074C05FB07F106FB07F70CFB06F2C6
:1016D0004FF0000605FB0CFC12EB074241EB1741F3
:1016E00012EB0C4251EB1C4148BF7047921841EB82
:1016F0000101A3F10103704700BFFEE710B50248E6
:1017000000F0AAF810BD00003406002010B5024811
:1017100000F0A2F810BD0000F005002030B590F8F0
:1017200040500124AC40C56B6C6004686360446841
:10173000102C04D10468A2600468E16003E004682E
:10174000A1600468E26030BD704772B600BFFEE77A
:101750000146002291F82100022808D00420886365
:1017600000BF002081F8200000BF012070470868FA
:10177000006820F00E000B6818600868006820F010
:1017800001000B68186091F8403001209840CB6B45
:101790005860012081F8210000BF002081F820005E
:1017A00000BF1046E2E7000070B50446002594F83B
:1017B0002100022803D00420A063012548E020680E
:1017C000006820F00E00216808602068006820F0A2
:1017D0000100216808601F492068884201D101206A
:1017E00026E01C4914312068884201D110201FE0F6
:1017F000184928312068884201D1801518E0154920
:101800003C312068884201D1801411E011495031E7
:101810002068884202D14FF4803009E00D496431DC
:101820002068884202D14FF4801001E04FF08070B0
:10183000084908394860012084F8210000BF0020D1
:1018400084F8200000BF606B10B12046616B8847B0
:10185000284670BD0800024070B50446E06B05687C
:101860002068066894F8401004208840284000282A
:1018700046D006F00400002842D02068006800F03E
:10188000200028B92068006820F004002168086062
:1018900057492068884201D1042027E05449143177
:1018A0002068884201D1402020E051492831206839
:1018B000884201D1001519E04D493C312068884229
:1018C00002D14FF4804011E04949503120688842EC
:1018D00002D14FF4802009E04549643120688842F4
:1018E00002D14FF4800001E04FF080604049083998
:1018F0004860E06A00287AD02046E16A884776E0AE
:1019000094F84010022088402840A0B306F002005E
:1019100088B32068006800F0200040B920680068A3
:1019200020F00A0021680860012084F82100304975
:101930002068884201D1022028E02D491431206816
:10194000884201D1202021E029492831206888429D
:1019500001D140151AE026493C312068884202D165
:101960004FF4005012E0224950312068884203D1E0
:101970004FF400300AE017E01D49643120688842C6
:1019800002D14FF4001001E04FF0007018490839FF
:10199000486000BF002084F8200000BFA06A30B378
:1019A0002046A16A884722E094F840100820884029
:1019B0002840E0B106F00800C8B12068006820F0B7
:1019C0000E002168086094F8401001208840E16B07
:1019D00048600120A06384F8210000BF002084F843
:1019E000200000BF206B10B12046216B884770BDDE
:1019F000080002400146002209B901207047164B39
:101A00000868C01A1423B0FBF3F080000864124881
:101A10000838C863022081F821000868026843F68C
:101A2000F0708243D1E901031843CB6818430B6976
:101A300018434B6918438B691843CB691843024319
:101A40000868026000208863012081F821000020DE
:101A500081F8200000BFD1E7080002402DE9F041E5
:101A600004460D4616461F464FF0000800BF94F886
:101A70002000012802D10220BDE8F081012084F875
:101A8000200000BF94F8210001282CD1022084F806
:101A900021000020A0632068006820F00100216878
:101AA00008603B46324629462046FFF737FEE06A8B
:101AB00030B12068006840F00E00216808600BE03B
:101AC0002068006820F00400216808602068006831
:101AD00040F00A00216808602068006840F00100BA
:101AE0002168086006E000BF002084F8200000BFE5
:101AF0004FF002084046BFE72DE9F84703460022B1
:101B000094466EE14FF0010808FA02F4D1F8008023
:101B100008EA0400A0427DD1DFF8DCA2D1F80480FD
:101B2000A8EB0A09D0453AD014DCB8F1030F50D025
:101B300009DCB8F1000F31D0B8F1010F1CD0B8F1B9
:101B4000020F49D120E0B8F1110F18D0B8F1120FEF
:101B500042D11EE0B9F5881F25D006DCB9F5803FDB
:101B600020D0B9F5801F37D11AE0B9F5001F18D081
:101B7000B9F5041F30D117E0D1F80CC02DE0D1F831
:101B80000C8008F1040C28E0D1F80C8008F1080C56
:101B900023E0D1F80C8008F10C0C1EE000BF00BF60
:101BA00000BF00BF00BF00BFD1F80880B8F1000F30
:101BB00002D14FF0040C0BE0D1F80880B8F1010F0E
:101BC00003D14FF0080C1C6102E04FF0080C5C617F
:101BD00003E04FF0000C00E000BF00BFFF2801D879
:101BE000984601E003F104084646FF2802D84FEA70
:101BF000820803E0A2F108084FEA88084746D6F8B1
:101C000000804FF00F0909FA07F928EA09080CFAD1
:101C100007F900E088E048EA0908C6F80080D1F832
:101C2000048008F08058B8F1805F7DD100BFDFF8F4
:101C3000CC81D8F8188048F00108DFF8C091C9F8C5
:101C40001880C846D8F8188008F00108CDF8008040
:101C500000BF00BF4FEAB9384FEA920958F829503F
:101C60004FEA82784FEA18794FF00F0808FA09F81E
:101C700025EA0805DFF88881434502D14FF00008C6
:101C800016E0DFF88081434502D14FF001080FE0F4
:101C9000DFF87481434502D14FF0020808E0DFF815
:101CA0006C81434502D14FF0030801E04FF0040876
:101CB0004FEA82794FEA197908FA09F848EA0505E6
:101CC000DFF84C814FEA920948F82950D1F8048096
:101CD00008F48018B8F5801F0AD1DFF83881D8F8E9
:101CE000008048EA0008DFF82C91C9F8008009E07C
:101CF000DFF82081D8F8008028EA0008DFF8149186
:101D0000C9F80080D1F8048008F40018B8F5001F65
:101D100010D1DFF8008108F10408D8F8008048EA03
:101D20000008DFF8F09000E05AE009F10409C9F872
:101D300000800DE0DFF8DC8008F10408D8F80080AE
:101D400028EA0008DFF8CC9009F10409C9F80080FE
:101D5000D1F8048008F40038B8F5003F0ED1DFF860
:101D6000B480A8F10408D8F8008048EA0008DFF839
:101D7000A490A9F10409C9F800800DE0DFF894806F
:101D8000A8F10408D8F8008028EA0008DFF8849059
:101D9000A9F10409C9F80080D1F8048008F480385A
:101DA000B8F5803F0ED1DFF86C80A8F10808D8F8AC
:101DB000008048EA0008DFF85C90A9F10809C9F83A
:101DC00000800DE0DFF84C80A8F10808D8F800800A
:101DD00028EA0008DFF83C90A9F10809C9F800805A
:101DE000521CD1F8008028FA02F8B8F1000F7FF4F5
:101DF00089AEBDE8F8870000000011100010024015
:101E000000080140000C0140001001400014014096
:101E100008000140080401400AB1016101E00B041F
:101E200003617047014800687047000048000020C7
:101E3000034800680349097808440149086070476D
:101E4000480000205000002010B50848006840F00D
:101E5000100006490860032000F0A8F80F2000F0E9
:101E600007F800F02BF8002010BD00000020024011
:101E700070B504460E4800784FF47A71B1FBF0F06B
:101E80000C490968B1FBF0F5284600F0F9FB08B1F0
:101E9000012070BD102C07D200222146501E00F0F8
:101EA00047F80548046001E00120F2E70020F0E770
:101EB00050000020540000204C00002008B500BF56
:101EC0001148806940F001000F4988610846806927
:101ED00000F00100009000BF00BF00BF0846C069CD
:101EE00040F08050C8610846C06900F08050009002
:101EF00000BF00BF00BF0549486820F0E06040F027
:101F00000070486000BF08BD0010024000000140A2
:101F100001460846002809DB00F01F0301229A4011
:101F200043099B0003F1E023C3F8002100BF704781
:101F30002DE9F05F80460D461646002703F0DAFBD8
:101F4000074639462A46334601F00700C0F1070A22
:101F5000BAF1040F02D94FF0040A01E0C0F1070AF8
:101F6000D14600F1040ABAF1070F02D24FF0000A7D
:101F700001E0A0F1030AD4464FF0010A0AFA09FA77
:101F8000AAF1010A0AEA020A0AFA0CFA4FF0010B56
:101F90000BFA0CFBABF1010B0BEA030B4AEA0B0447
:101FA0002146404603F0AEFBBDE8F09F00BF00F0C5
:101FB0000702064B19684FF6FF031940044B0B4309
:101FC00043EA0221014B196000BF70470CED00E0AD
:101FD0000000FA0570B504460D460CB9012070BD2D
:101FE0005A48006800F00700A8420ED2574800681F
:101FF00020F007002843554908600846006800F0B3
:102000000700A84201D00120E9E7207800F0020093
:1020100002281DD1207800F00400042805D14C4886
:10202000406840F4E0604A494860207800F00800C9
:10203000082805D14648406840F46050444948604B
:102040004348406820F0F000A168084340494860D8
:10205000207800F0010078B36068012806D13C4880
:10206000006800F4003090B90120B8E760680228E9
:1020700006D13748006800F0007040B90120AEE793
:102080003348006800F0020008B90120A7E7304893
:10209000406820F00300616808432D494860FFF75D
:1020A000C1FE064609E0FFF7BDFE801B41F2883104
:1020B000884202D9032092E707E02548406800F0F3
:1020C0000C006168B0EB810FEDD12048006800F092
:1020D0000700A8420ED91D48006820F007002843D9
:1020E0001A4908600846006800F00700A84201D0BD
:1020F000012074E7207800F00400042807D1144878
:10210000406820F4E060E1680843114948602078A5
:1021100000F00800082808D10D48406820F46050FD
:10212000216940EAC1000A49486000F03FF80849C7
:102130004968C1F30311074A515CC8400649086069
:1021400006480068FFF794FE002048E700200240A0
:10215000001002409C8E0008540000204C0000201B
:1021600001480068704700005400002000B5FFF7E8
:10217000F7FF04494968C1F30221034A515CC84092
:1021800000BD000000100240AC8E000800B5FFF753
:10219000E7FF04494968C1F3C221034A515CC840C2
:1021A00000BD000000100240AC8E000870B5002198
:1021B0000022002400230020134D696801F00C0563
:1021C000F5B1042D02D0082D19D101E00F4819E016
:1021D0000F4DC1F38346AB5D01F4803555B10A4D17
:1021E0006D68C5F340450B4E725D084D5D43B5FB10
:1021F000F2F402E0084D03FB05F4204602E000BFC4
:10220000024800BF00BF70BD0010024000127A00FB
:102210008A8E00089A8E000800093D00F8B5044631
:102220000CB90120F8BD207800F00100002878D01A
:10223000F848406800F00C0004280CD0F5484068CD
:1022400000F00C00082811D1F248406800F48030FA
:10225000B0F5803F0AD1EF48006800F40030002854
:102260005FD0606800285CD10120DBE700BF6068B8
:10227000B0F5803F06D1E748006840F48030E5497A
:10228000086028E0606858B9E248006820F48030AF
:10229000E04908600846006820F4802008601AE0E1
:1022A0006068B0F5A02F0BD1DA48006840F48020B8
:1022B000D84908600846006840F4803008600AE0A9
:1022C000D448006820F48030D2490860084600688D
:1022D00020F48020086000BF606888B1FFF7A2FD8D
:1022E000054606E0FFF79EFD401B642801D9032048
:1022F00098E7C848006800F400300028F2D010E0E9
:10230000FFF790FD054606E0FFF78CFD401B6428B3
:1023100001D9032086E7BF48006800F40030002898
:10232000F2D1207800F00200022857D1B948406865
:1023300000F00C0050B1B748406800F00C000828CD
:1023400018D1B448406800F4803098B9B1480068AA
:1023500000F0020020B12069012801D0012061E7CE
:10236000AC48006820F0F800616940EAC100A94962
:10237000086033E02069E8B10120A7490860FFF751
:1023800051FD054606E0FFF74DFD401B022801D92F
:10239000032047E79F48006800F002000028F2D0C1
:1023A0009C48006820F0F800616940EAC100994942
:1023B000086013E0002098490860FFF733FD0546E8
:1023C00006E0FFF72FFD401B022801D9032029E773
:1023D0009048006800F002000028F2D1207800F058
:1023E000080008282DD1A069B8B101208B490860E8
:1023F000FFF718FD054606E0FFF714FD401B022815
:1024000001D903200EE78348406A00F0020000284B
:10241000F2D0012002F0A2FC13E000207F49086006
:10242000FFF700FD054606E0FFF7FCFC401B022815
:1024300001D90320F6E67748406A00F00200002840
:10244000F2D1207800F00400042873D100277148ED
:10245000C06900F0805070B900BF6E48C06940F09C
:1024600080506C49C8610846C06900F080500090F7
:1024700000BF00BF01276A48006800F48070B0B94F
:102480006748006840F4807065490860FFF7CAFC3F
:10249000054606E0FFF7C6FC401B642801D903206F
:1024A000C0E65F48006800F480700028F2D000BFEA
:1024B000E068012806D15748006A40F001005549FC
:1024C000086227E0E06858B95248006A20F001002D
:1024D000504908620846006A20F00400086219E0CA
:1024E000E06805280BD14B48006A40F004004949D8
:1024F00008620846006A40F0010008620AE04548A8
:10250000006A20F00100434908620846006A20F092
:102510000400086200BFE068A0B1FFF783FC054635
:1025200009E0FFF77FFC401B41F28831884202D965
:10253000032077E622E03748006A00F00200002816
:10254000EFD012E0FFF76EFC054608E0FFF76AFCEB
:10255000401B41F28831884201D9032062E62D48B0
:10256000006A00F002000028F0D1012F05D12948AF
:10257000C06920F080502749C86100BFE069C8B336
:102580002448406800F00C00082860D0E069022868
:1025900048D1002020490866FFF744FC054606E0C4
:1025A000FFF740FC401B022801D903203AE61948F6
:1025B000006800F000700028F2D1206AB0F5803F7A
:1025C00007D11448406820F40030A168084311493D
:1025D0004860D4E9080108430E49496821F47411A0
:1025E00008430C49486001200B490866FFF71AFCB4
:1025F000054607E03DE0FFF715FC401B022801D926
:1026000003200FE60348006800F000700028F2D0B5
:102610002FE00000001002400000424280044242CD
:1026200000700040002014490866FFF7FBFB0546D8
:1026300006E0FFF7F7FB401B022801D90320F1E574
:102640000E48006800F000700028F2D111E0E06947
:10265000012800D1E6E50948466806F48031206A81
:10266000814204D106F47011606A814201D00120D8
:10267000D8E50020D6E500000000424200100240EC
:1026800070B504462546681EB0F1807F01D3012055
:102690000FE0681E4FF0E02148610F214FF0FF303E
:1026A00003F030F800204FF0E02188610720086136
:1026B000002070BD7047704710B50346002200BF70
:1026C00093F83C00012801D1022010BD012083F8BD
:1026D0003C0000BF22F0FF00CC6840EA040222F474
:1026E00040708C6840EA040222F480604C6840EA42
:1026F000040222F400600C6840EA040222F48050D4
:102700000C6940EA040222F400504C6940EA0402D9
:1027100022F48040CC6940EA04021868426400BF99
:10272000002083F83C0000BF00BFCEE730B5024672
:102730000B4600BF92F83C00012801D1022030BDB9
:10274000012082F83C0000BF022082F83D001068A2
:1027500044681068816824F07004186804431068A5
:102760004460104D1068A8420BD01068B0F1804F43
:1027700007D00D4D1068A84203D00C4D1068A84238
:1027800005D121F080015868014310688160012063
:1027900082F83D0000BF002082F83C0000BF00BF6F
:1027A000CDE70000002C014000040040000800407C
:1027B00010B504460CB9012010BD94F83D0028B9AD
:1027C000002084F83C00204600F026F8022084F81F
:1027D0003D00211D206802F027FB012084F84600FF
:1027E00000BF84F83E0001213F20015540200155E3
:1027F0004120015500BF00BF012084F84200432062
:102800000155442001554520015500BF012084F8A1
:102810003D000020D0E7000038B504460D4920688F
:10282000884215D100BF0C48806940F400600A4915
:1028300088610846806900F40060009000BF00BF16
:10284000002202211920FFF773FB1920FFF760FB1C
:1028500038BD0000002C014000100240014691F8F4
:102860003D00012801D001207047022081F83D0081
:102870000868C06840F001000B68D860124B086817
:1028800098420BD00868B0F1804F07D00F4B086812
:10289000984203D00E4B086898420CD108688068B3
:1028A00000F00702062A0CD00868006840F001001A
:1028B0000B68186005E00868006840F001000B68CC
:1028C00018600020D0E70000002C01400004004008
:1028D000000800402DE9F04104460D46002700BFE6
:1028E00094F83C00012802D10220BDE8F0810120CB
:1028F00084F83C0000BF022084F83D002068866810
:1029000026F0770626F47F462068866028685028DF
:1029100033D00CDC202850D004DC00284BD0102809
:1029200051D149E0302849D040284CD139E06028C5
:102930002DD0702807D0B0F5805F03D0B0F5005FD0
:1029400041D10DE041E0D5E902136A68206802F048
:10295000BEFA2068866846F077062068866034E014
:10296000D5E902136A68206802F0B1FA206880682D
:1029700040F480402168886027E0EA686968206840
:1029800002F076FB5021206802F0ACFA1DE0EA6804
:102990006968206802F07FFB6021206802F0A2FADB
:1029A00013E0EA686968206802F062FB4021206851
:1029B00002F098FA09E000BF00BF00BF2968206854
:1029C00002F090FA01E0012700BF00BF012084F867
:1029D0003D0000BF002084F83C0000BF384684E77B
:1029E0002DE9F04104460D4614B90120BDE8F081FF
:1029F00094F83D0028B9002084F83C00204600F0FF
:102A000051F8022084F83D002068806844F20701F4
:102A1000884321688860211D206802F005FA20683B
:102A2000D0F80880206886692068076A286840EA2C
:102A3000080840F203308643A969A86840EA0120EB
:102A4000064340F60C4086434FF2F0008643E969A6
:102A5000E86840EA0120064328690001296A40EA43
:102A60000130064327F022076969686840EA0110CF
:102A700007432068C0F808802068866120680762E4
:102A8000012084F8460084F83E0001213F200155D2
:102A9000012084F8420043200155012084F83D00C4
:102AA0000020A3E710B586B00446002002900390F2
:102AB000049005902068B0F1804F2CD100BF3448BD
:102AC000C06940F001003249C8610846C06900F0A1
:102AD0000100019000BF00BF00BF0846806940F0C0
:102AE000040088610846806900F00400019000BF7E
:102AF00000BF0320029000200390049002A9254803
:102B0000FEF7FAFF002202211C20FFF711FA1C2019
:102B1000FFF7FEF93AE020492068884236D100BF2D
:102B20001B48C06940F002001949C8610846C069E5
:102B300000F00200019000BF00BF00BF084680699E
:102B400040F0080088610846806900F008000190A4
:102B500000BF00BF3020029000200390049002A923
:102B60000E48FEF7C9FF00BF0D49486820F44060D9
:102B700040F0E06040F40060486000BF00220221A5
:102B80001D20FFF7D5F91D20FFF7C2F906B010BDD3
:102B9000001002400008014000040040000C014009
:102BA000000001402DE9F04304460D4694F83E60D4
:102BB0003F20075D94F84280432010F804906DB9DF
:102BC000012E02D1B8F1010F02D00120BDE8F0833F
:102BD000022084F83E0084F8420025E0042D0CD148
:102BE000012F02D1B9F1010F01D00120EEE702213E
:102BF0003F2001554320015516E0012E07D1012F3A
:102C000005D1B8F1010F02D1B9F1010F01D00120B6
:102C1000DCE7022084F83E0002213F20015502201B
:102C200084F842004320015515B1042D0CD105E074
:102C300001220021206802F039F910E0012204216C
:102C4000206802F033F90AE001220021206802F036
:102C50002DF901220421206802F028F900BF00BFED
:102C60002068006840F00100216808600020ADE79E
:102C7000704770B504462068C5682068066906F08C
:102C80000200022819D105F00200022815D1401FC8
:102C900021680861012020772068806900F0030026
:102CA00018B12046FFF7E4FF05E0204600F0C4F825
:102CB000204600F078F90020207706F00400042870
:102CC00019D105F00400042815D1C043216808611A
:102CD000022020772068806900F4407018B12046F7
:102CE000FFF7C6FF05E0204600F0A6F8204600F0FA
:102CF0005AF90020207706F00800082819D105F0BD
:102D00000800082815D1C0432168086104202077F5
:102D10002068C06900F0030018B12046FFF7A8FF43
:102D200005E0204600F088F8204600F03CF900203D
:102D3000207706F01000102819D105F01000102897
:102D400015D1C04321680861082020772068C06938
:102D500000F4407018B12046FFF78AFF05E02046D6
:102D600000F06AF8204600F01EF90020207706F0F7
:102D7000010048B105F0010030B16FF00100216899
:102D80000861204600F0C8F906F08000802809D1CB
:102D900005F08000802805D1C043216808612046E5
:102DA000FFF788FC06F04000402809D105F04000FC
:102DB000402805D1C04321680861204600F0B6F9DB
:102DC00006F02000202809D105F02000202805D198
:102DD000C043216808612046FFF76DFC70BD00000C
:102DE00010B586B004460020029003900490059030
:102DF0000E492068884217D100BF0D48806940F015
:102E000004000B4988610846806900F004000190C5
:102E100000BF00BF4FF44070029002200390059065
:102E200002A90448FEF768FE06B010BD002C014060
:102E3000001002400008014070472DE9F0410446AF
:102E40000D461646002700BF94F83C00012802D129
:102E50000220BDE8F081012084F83C0000BF36B1BB
:102E6000042E1BD0082E31D00C2E5ED145E0294611
:102E7000206802F041F82068806940F0080021686D
:102E800088612068806920F00400216888612068DA
:102E90008069296908432168886148E029462068DB
:102EA00002F05AF82068806940F400602168886167
:102EB0002068806920F480602168886120688069CA
:102EC000296940EA01202168886130E029462068AC
:102ED00002F076F82068C06940F008002168C861F7
:102EE0002068C06920F004002168C8612068C069BA
:102EF000296908432168C86119E02946206802F061
:102F000093F82068C06940F400602168C8612068B7
:102F1000C06920F480602168C8612068C06929699F
:102F200040EA01202168C86101E0012700BF00BF1D
:102F300000BF002084F83C0000BF384689E710B588
:102F400004460CB9012010BD94F83D0028B90020BA
:102F500084F83C00204600F025F8022084F83D006B
:102F6000211D206801F060FF012084F8460000BFA9
:102F700084F83E0001213F200155402001554120A9
:102F8000015500BF00BF012084F8420043200155D5
:102F9000442001554520015500BF012084F83D0023
:102FA0000020D0E77047704770B504460D4615B94C
:102FB00094F83E000BE0042D02D13F20005D06E0B6
:102FC000082D02D14020005D01E04120005D012874
:102FD00001D0012070BD1DB9022084F83E000EE032
:102FE000042D03D102213F20015508E0082D03D113
:102FF00002214020015502E0022141200155012219
:103000002946206801F052FF19492068884201D101
:10301000012000E0002028B12068406C40F400400E
:10302000216848641249206888420BD02068B0F1BA
:10303000804F07D00F492068884203D00E4920688E
:1030400088420CD12068806800F00706062E0CD05C
:103050002068006840F001002168086005E02068F1
:10306000006840F00100216808600020B2E700001D
:10307000002C0140000400400008004030B5044628
:103080000D4600222946206801F010FF21492068E2
:10309000884201D1012000E0002090B100BF2068EB
:1030A000006A41F21111084050B92068006A891085
:1030B000084028B92068406C20F40040216848642A
:1030C00000BF00BF2068006A41F21111084050B9EA
:1030D0002068006A8910084028B92068006820F03C
:1030E00001002168086000BF1DB9012084F83E007E
:1030F0000EE0042D03D101213F20015508E0082DE9
:1031000003D101214020015502E001214120015558
:10311000002030BD002C014010B504460248844216
:1031200001D103F01BFA10BD400400207047F8B530
:1031300004460D46164694F8420020282DD105B1CC
:103140000EB90120F8BD01202063002060633246E3
:103150002946204602F0A6F90746206B012819D11E
:1031600000BF002000902068006800902068406840
:10317000009000BF00BF00BF00BF21680C3151E8C4
:10318000001F41F0100021680C3141E80002002AC4
:10319000F3D100E001273846D4E70220D2E700004F
:1031A0002DE9F04180460C462049D8F800008842BD
:1031B00039D1022C0EDA0A221D491E48FFF7B7FF4B
:1031C0001D480068006820F004001B490968086079
:1031D000BDE8F0810A2C03DA00201549085502E009
:1031E00000201349487212480578612D01D0652DE1
:1031F0000BD10F48401C02F087FB06460F460F4AD2
:10320000166057600E48057000BF0A220849094839
:10321000FFF78DFF08480068006820F004000649A9
:103220000968086000BF00BFD2E700000048004006
:1032300050010020A8050020F00500200800002013
:103240000400002070B50446002520684069C0F3E2
:10325000C01594F84100212817D1B5B100BF00BFB7
:103260002168143151E8001F21F0800021681431D9
:1032700041E80002002AF3D100BFA06B10B1A06B9F
:10328000FEF766FA204601F0FEFF20684069C0F3B1
:10329000801594F84200222817D1B5B100BF00BFB5
:1032A0002168143151E8001F21F0400021681431D9
:1032B00041E80002002AF3D100BFE06B10B1E06BDF
:1032C000FEF746FA204601F098FF002070BD00008E
:1032D00038B504465B492068884230D100BF0020E1
:1032E000009020680068009020684068009000BF4F
:1032F00000BF00BF00200090206800680090206898
:103300004068009000BF00BF00BF00200090206810
:103310000068009020684068009000BF00BF00BFB8
:1033200000200090206800680090206840680090AD
:1033300000BF00BF01224449444800F04FFB44490C
:103340002068884230D100BF0020009020680068CB
:10335000009020684068009000BF00BF00BF0020C0
:10336000009020680068009020684068009000BFCE
:1033700000BF00BF00200090206800680090206817
:103380004068009000BF00BF00BF00200090206890
:103390000068009020684068009000BF00BF0122D4
:1033A0002C492D4800F01AFB2C48844249D1656C09
:1033B00005F0080050B100BF0020009020680068B0
:1033C000009020684068009000BF00BF05F0040036
:1033D00050B100BF00200090206800680090206875
:1033E0004068009000BF00BF05F0010050B100BF71
:1033F00000200090206800680090206840680090DD
:1034000000BF00BF05F0020050B100BF00200090D7
:1034100020680068009020684068009000BF00BFEE
:103420002046FFF70FFF0A220D490C48FFF77FFEE9
:103430000C480068006820F004000A490968086028
:1034400000BF38BD003801403C00002018050020B6
:10345000004400403D00002060050020A805002039
:1034600050010020F00500202DE9F84F04462068A7
:1034700005682068C668206847694FF00009CA4699
:1034800005F00F09B9F1000F0AD105F0200038B19D
:1034900006F0200020B1204601F008FFBDE8F88FBB
:1034A000B9F1000F7BD007F0010018B906F4907055
:1034B000002874D005F0010030B106F4807018B116
:1034C000606C40F00100606405F0040030B107F06A
:1034D000010018B1606C40F00200606405F0020069
:1034E00030B107F0010018B1606C40F00400606476
:1034F00005F0080048B106F0200010B907F00100FF
:1035000018B1606C40F008006064606C002845D021
:1035100005F0200028B106F0200010B1204601F08F
:10352000C5FE20684069C0F3801A606C00F0080096
:1035300010B9BAF1000F2CD0204601F05EFE2068D1
:10354000406900F0400000B300BF00BF21681431A3
:1035500051E8001F21F040002168143141E80002C9
:10356000002AF3D100BFE06B50B17748E16B4863AC
:10357000E06BFEF719F988B1E06B416B88470DE00D
:103580002046FFF7A5FE09E009E02046FFF7A0FE70
:1035900004E02046FFF79CFE002060647EE7206B7D
:1035A000012877D105F01000002873D006F0100034
:1035B0000028FAD000BF002000902068006800902A
:1035C00020684068009000BF00BF2068406900F09C
:1035D000400000285FD0E06B006840681FFA80F868
:1035E000B8F1000F55D0A08D404552DDA4F82E80D3
:1035F000E06B8069202843D000BF00BF21680C31F8
:1036000051E8001F21F4807021680C3141E800026C
:10361000002AF3D100BF00BF00BF2168143151E878
:10362000001F21F001002168143141E80002002A46
:10363000F3D100BF00BF00BF2168143151E8001F63
:1036400021F040002168143141E80002002AF3D142
:1036500000BF202084F842000020206300BF00BF8C
:1036600021680C3151E8001F21F0100021680C3155
:1036700041E80002002AF3D100BFE06BFEF768F8D2
:1036800002206063A08DE28D801A81B22046FFF790
:1036900087FD03E742E0A08DE18D401A1FFA80F814
:1036A000E08DD0B3B8F1000F37D000BF00BF216864
:1036B0000C3151E8001F21F4907021680C3141E871
:1036C0000002002AF3D100BF00BF00BF21681431FF
:1036D00051E8001F21F001002168143141E8000287
:1036E000002AF3D100BF202084F84200002020638C
:1036F00000BF00BF21680C3151E8001F21F010000D
:1037000021680C3141E80002002AF3D100BF0220F9
:10371000606341462046FFF743FDBFE605F08000A9
:1037200030B106F0800018B1204601F03FFFB5E649
:1037300005F0400030B106F0400018B1204601F01D
:1037400092FDABE600BFA9E6BF50000810B50446E5
:103750000CB9012010BDA06900B100E000BF94F8D1
:10376000410028B9002084F84000204600F02AF8E3
:10377000242084F841002068C06820F400502168AB
:10378000C860204601F010FE2068006920F49040D7
:10379000216808612068406920F02A00216848619A
:1037A0002068C06840F400502168C8600020606450
:1037B000202084F8410084F842000020606300BFAC
:1037C000C8E7000010B586B00446002002900390C0
:1037D000049005907749206888423FD100BF764821
:1037E000806940F48040744988610846806900F42B
:1037F0008040019000BF00BF00BF0846806940F0D4
:10380000080088610846806900F00800019000BF48
:1038100000BF40200290022003900320059002A9DF
:103820006648FEF769F9802002900020039004901A
:1038300002A96248FEF760F900BF6149486840F09C
:10384000E06040F00400486000BF00220121252014
:10385000FEF76EFB2520FEF75BFBA8E059492068C8
:10386000884236D100BF5448C06940F40030524904
:10387000C8610846C06900F40030019000BF00BF75
:1038800000BF0846806940F00400886108468069EE
:1038900000F00400019000BF00BF0420029002204D
:1038A00003900320059002A94748FEF725F9082058
:1038B000029000200390049002A94348FEF71CF9EF
:1038C000002201212620FEF733FB2620FEF720FBF5
:1038D0006DE03E492068884269D100BF3648C06922
:1038E00040F480203449C8610846C06900F4802053
:1038F000019000BF00BF00BF0846806940F008008B
:1039000088610846806900F00800019000BF00BF90
:1039100008150290022003900120059002A9274873
:10392000FEF7EAF84FF40060029000200390049044
:1039300002A92248FEF7E0F8254826490860002041
:1039400048600021234881608021C160002101611D
:1039500041618161C161FEF74DF808B1FDF7F5FEE7
:1039600000BF1C48E063446200BF194814381A497C
:103970000860102048600021174881608021C160E4
:103980000021016141618161C161FEF733F808B135
:10399000FDF7DBFE00BF1048A063446200BF0022B9
:1039A00011462720FEF7C4FA2720FEF7B1FA06B029
:1039B00010BD00000038014000100240000C014022
:1039C0000000014000440040000801400048004061
:1039D00030000240F00500203406002070B5044697
:1039E0000D46164694F8420020280BD105B10EB9B9
:1039F000012070BD0020206332462946204601F098
:103A0000B5FDF6E70220F4E770B5044624492068C6
:103A100088421FD12349B1F80011481CC11700EB9F
:103A200011610912A0EB01218DB21E48B0F802010C
:103A3000A84209D01C4800781A49B1F80011194A67
:103A400050541046A0F80051012217491748FFF7BB
:103A5000C5FF23E01649206888421FD11549B1F8F7
:103A60000011481CC11700EB11610912A0EB0121E4
:103A70008DB21048B0F80201A84209D00E48007873
:103A80000C49B1F800110B4A50541046A0F80051EF
:103A9000012209490948FFF7A1FF00BF70BD0000DE
:103AA00000380140F00800203C00002018050020EC
:103AB00000440040F40900203D0000206005002083
:103AC00070472DE9F84F04460E46174699464FF0C9
:103AD000000A94F84100202850D106B117B90120FE
:103AE000BDE8F88F00206064212084F84100FEF7D3
:103AF00099F98246A784E784A068B0F5805F04D175
:103B0000206910B90025B04602E035464FF00008A4
:103B10001EE05346002280212046CDF8009001F09F
:103B200075FD20B1202084F841000320D8E745B975
:103B3000B8F80000C0F308002168486008F10208E6
:103B400003E02878216848606D1CE08C401EE0840A
:103B5000E08C0028DDD15346002240212046CDF8DC
:103B6000009001F053FD20B1202084F84100032093
:103B7000B6E7202084F841000020B1E70220AFE73B
:103B8000704700BFFEE7000010B5DFE2FE48B0F866
:103B90000201FD490C5CB1F80211481CC11700EB91
:103BA00011610912A0EB0121F74AA2F80211F748AE
:103BB000007804280BDAAA2C05D1F4480078401CC0
:103BC000F24908708AE00020F049087086E0EF486A
:103BD00000780A287BDAED480078032877DDEB4887
:103BE0000078001F062870D2DFE800F003152B3D97
:103BF0004F5C54B9E5480078401CE4490870E4483B
:103C000000782044E249087060E00020DF49087035
:103C1000DF49087000BF022C0DD10220DD49087079
:103C2000DA480078401CD9490870D9480078204407
:103C3000D74908704AE00020D4490870D449087078
:103C400000BF54B9D1480078401CD0490870D04812
:103C500000782044CE49087038E00020CB49087035
:103C6000CB49087000BF54B9C8480078401CC74908
:103C70000870C74800782044C549087026E0002035
:103C8000C2490870C249087000BFC3480480BF48D9
:103C90000078401CBD490870BD4800782044BC49EC
:103CA000087013E0BC48008800EB0420BA49088083
:103CB000B6480078401CB5490870B54800782044E3
:103CC000B349087002E002E0FFE700BF06E0AF483A
:103CD00000780A2802D10020B0490870AD48007869
:103CE00002287DD1AD4800780028FAD1A748007895
:103CF000092875DDA5480078BE2872DAA34909783D
:103D00000A390F2291FBF2F302FB1311C8B20F28FC
:103D100068D2DFE800F0081A36496A7D9AB7D4E71E
:103D2000FDFCFBFAF9009E49097801EB81019D4AEF
:103D300022F82140964909782144954A1170934907
:103D40000978491C914A117084E19549097801EB81
:103D50008101944A32F8211001EB042109B2904A02
:103D6000127802EB82028F4B23F8221088490978DF
:103D70002144874A117085490978491C834A11708A
:103D800068E18749097801EB8101864A02EB8101EC
:103D90004C807F49097821447D4A11707B4909781C
:103DA000491C7A4A117055E17D49097801EB81017E
:103DB0007C4A02EB8101498801EB0421784A1278A0
:103DC00002EB8202774B03EB820251807049097843
:103DD00021446F4A11706D490978491C6B4A02E011
:103DE000B3E139E135E1117034E16D49097801EB56
:103DF00081016C4A02EB81014C60654909782144DC
:103E0000634A117061490978491C604A117021E1C7
:103E10006349097801EB8101624A02EB810149683B
:103E200001EB04215E4A127802EB82025D4B03EB48
:103E300082025160564909782144554A117053490C
:103E40000978491C514A117004E15549097801EB80
:103E50008101544A02EB8101496801EB0441504A57
:103E6000127802EB82024F4B03EB82025160484909
:103E700009782144464A117044490978491C434A4B
:103E80001170E7E04649097801EB8101454A02EBF0
:103E90008101496801EB0461414A127802EB820218
:103EA000404B03EB82025160394909782144384A7A
:103EB000117036490978491C344A1170CAE03849F2
:103EC000097801EB8101374A02EB81010C7230491C
:103ED000097821442E4A11702C490978491C2B4A33
:103EE0001170B7E02E49097801EB81012D4A02EBF0
:103EF0008101CC60264909782144254A1170234963
:103F00000978491C214A04E080E06CE04EE01FE0A3
:103F100001E011709EE02249097801EB8101214AFC
:103F200002EB8101C96801EB04211D4A127802EB02
:103F300082021C4B03EB8202D160154909782144AF
:103F4000134A117011490978491C104A117081E017
:103F50001349097801EB8101124A02EB8101C9681A
:103F600001EB04410E4A127802EB82020D4B03EB87
:103F70008202D160064909782144054A117003493B
:103F80000978491C014A0FE0F008002024010020B4
:103F9000260100202A0100202C01002038010020E9
:103FA00028010020E8060020117053E0FD4909783F
:103FB00001EB8101FC4A02EB8101C96801EB04615C
:103FC000F84A127802EB8202F74B03EB8202D160CF
:103FD000F64909782144F54A1170F5490978491CD8
:103FE000F34A117036E0EF49097801EB8101EE4A9E
:103FF00002EB81010C82ED4909782144EB4A1170F2
:10400000EB490978491CEA4A117023E0E54909782F
:1040100001EB8101E44A02EB8101098A01EB0421F1
:1040200009B2E04A127802EB8202DF4B03EB820214
:104030001182DE4909782144DC4A1170DC49097893
:10404000491CDB4A1170D7490978491CD54A1170BF
:1040500000E000BF00BF00BFD5480078BF280CD1EA
:10406000D4480460D2480078401CD1490870CF4839
:1040700000782044CD4908705EE0CD480078C02823
:1040800010D1CC48006800EB0420CA490860C84839
:104090000078401CC6490870C44800782044C349D1
:1040A000087049E0C2480078C12810D1C1480068B2
:1040B00000EB0440BF490860BD480078401CBC4983
:1040C0000870BA4800782044B849087034E0B8480D
:1040D0000078C22810D1B748006800EB0460B549E9
:1040E0000860B3480078401CB1490870AF480078B8
:1040F0002044AE4908701FE0AD480078C3281BD1AA
:10410000AA48007884420CD101F094FCAA480088A7
:10411000401CA949088008460088012801DD0120CB
:1041200008800020A1490870A14908700120A34916
:10413000087000209B4908709D480078BE2804D173
:104140009B480078401C9A49087000BF9C48B0F812
:1041500000019B49B1F8021188427FF417ADEFE2EC
:104160009848B0F8020197490C5CB1F80211481C5C
:10417000C11700EB11610912A0EB0121914AA2F8CD
:1041800002119148007804280BDAAA2C05D18E4838
:104190000078401C8C4908708AE000208A49087029
:1041A00086E0894800780A287BDA87480078032867
:1041B00077DD85480078001F062870D2DFE800F020
:1041C00003152B3D4F5C54B97F480078401C7E4955
:1041D00008707E48007820447C49087060E0002028
:1041E000794908707949087000BF022C0DD102206E
:1041F0007749087074480078401C73490870734808
:1042000000782044714908704AE000206E49087027
:104210006E49087000BF54B96B480078401C6A4969
:1042200008706A48007820446849087038E0002027
:10423000654908706549087000BF54B96248007844
:10424000401C614908706148007820445F4908704B
:1042500026E000205C4908705C49087000BF5D489A
:10426000048059480078401C574908705748007826
:1042700020445649087013E05648008800EB04209B
:104280005449088050480078401C4F4908704F48F6
:10429000007820444D49087002E002E0FFE700BFCB
:1042A00006E0494800780A2802D100204A490870EF
:1042B00047480078022873D1474800780028FAD18F
:1042C0004148007809286BDD3F480078BE2868DA4D
:1042D0003D4909780A390F2291FBF2F302FB1311D1
:1042E000C8B20F287ED2DFE800F0081A36498A9D4E
:1042F000BAD7FBF9F8F7F6F5F4003849097801EB7D
:104300008101374A22F821403049097821442F4A57
:1043100011702D490978491C2B4A117094E12F49DD
:10432000097801EB81012E4A32F8211001EB0421BA
:1043300009B22A4A127802EB8202294B23F8221092
:10434000224909782144214A11701F490978491CE2
:104350001D4A117078E12149097801EB8101204A59
:1043600002EB81014C80194909782144174A1170E8
:1043700015490978491C144A117065E117490978F3
:1043800001EB8101164A02EB8101498801EB04210E
:10439000124A127802EB8202114B03EB820222E0F6
:1043A000CDE153E128010020E8060020260100208D
:1043B0002401002030010020C0000020380100202E
:1043C000F0080020F409002025010020270100202A
:1043D0002B0100202E01002039010020290100209E
:1043E000D80700202FE15180DA4909782144D94AC1
:1043F0001170D9490978491CD74A117024E1D7496D
:10440000097801EB8101D64A02EB81014C60D14968
:1044100009782144CF4A1170CF490978491CCE4A06
:10442000117011E1CD49097801EB8101CC4A02EB11
:104430008101496801EB0421C84A127802EB82022B
:10444000C74B03EB82025160C24909782144C14A3B
:104450001170C1490978491CBF4A1170F4E0BF4985
:10446000097801EB8101BE4A02EB8101496801EB49
:104470000441BA4A127802EB8202B94B03EB820282
:104480005160B44909782144B24A1170B24909789F
:10449000491CB14A1170D7E0B049097801EB81019C
:1044A000AF4A02EB8101496801EB0461AB4A127823
:1044B00002EB8202AA4B03EB82025160A549097804
:1044C0002144A44A1170A4490978491CA24A1170D8
:1044D000BAE095E081E063E045E027E013E0FFE724
:1044E0009E49097801EB81019D4A02EB81010C7222
:1044F000984909782144974A117097490978491CCD
:10450000954A1170A0E09549097801EB8101944A20
:1045100002EB8101CC608F49097821448D4A1170EA
:104520008D490978491C8C4A11708DE08B490978B6
:1045300001EB81018A4A02EB8101C96801EB042188
:10454000864A127802EB8202854B03EB8202D1602D
:104550008049097821447F4A11707F490978491CB4
:104560007D4A117070E07D49097801EB81017C4A38
:1045700002EB8101C96801EB0441784A127802EB31
:104580008202774B03EB8202D160724909782144A1
:10459000704A117070490978491C6F4A117053E0D4
:1045A0006E49097801EB81016D4A02EB8101C9680E
:1045B00001EB0461694A127802EB8202684B03EB5B
:1045C0008202D160634909782144624A11706249CC
:1045D0000978491C604A117036E06049097801EB9E
:1045E00081015F4A02EB81010C825A49097821441A
:1045F000584A117058490978491C574A117023E0EC
:104600005649097801EB8101554A02EB8101098A7B
:1046100001EB042109B2514A127802EB8202504B9D
:1046200003EB820211824B4909782144494A1170F7
:1046300049490978491C484A117048490978491C78
:10464000464A117000E000BF00BF00BF424800783A
:10465000BF280CD1434804603F480078401C3E49C5
:1046600008703C48007820443A4908705EE03A48B7
:104670000078C02810D13B48006800EB042039497D
:10468000086035480078401C33490870314800788C
:1046900020443049087049E02F480078C12810D1E3
:1046A0003048006800EB04402E4908602A48007832
:1046B000401C294908702748007820442549087083
:1046C00034E025480078C22810D12648006800EB65
:1046D00004602449086020480078401C1E49087086
:1046E0001C48007820441B4908701FE01A480078D5
:1046F000C3281BD11748007884420CD101F052FA2C
:1047000019480088401C184908800846008801287C
:1047100001DD0120088000200E4908700E49087054
:1047200001201249087000200C4908700A480078DE
:10473000BE2804D108480078401C0749087000BF13
:104740000B48B0F800010A49B1F8021188427FF421
:1047500007AD10BD27010020250100202901002000
:10476000D807002034010020C200002039010020B9
:10477000F409002008B500BF0E48406940F0010070
:104780000C4948610846406900F00100009000BFF4
:1047900000BF002211460C20FDF7CAFB0C20FDF7DC
:1047A000B7FB002211460D20FDF7C2FB0D20FDF7DF
:1047B000AFFB08BD0010024000B585B0002001909D
:1047C00002900390049000BF1D48806940F02000D3
:1047D0001B4988610846806900F02000009000BFF6
:1047E00000BF00BF0846806940F0040088610846A9
:1047F000806900F00400009000BF00BF00BF0846C1
:10480000806940F0080088610846806900F008006F
:10481000009000BF00BF00224FF446610948FDF739
:10482000FBFA4FF4466001900120029000200390B3
:104830000220049001A90348FDF75EF905B000BD10
:10484000001002400008014000B595B00020119012
:104850001290139014900F9010901C2108A8FBF751
:1048600013FD20216846FBF70FFD2F482F490860F4
:10487000B320486000212D48816040F2E731C160DB
:104880000021016141618161FDF792FF08B1FCF7F0
:104890005CFF4FF48050119011A92448FEF71AF8DC
:1048A00008B1FCF752FF2148FEF749FB08B1FCF7BD
:1048B0004CFF00200F9010900FA91C48FDF736FF09
:1048C00008B1FCF742FF60200890002009900A9090
:1048D0000B900C900D900E90002208A91348FEF743
:1048E000ACFA08B1FCF731FF042208A90F48FEF723
:1048F000A4FA08B1FCF729FF002000900190029073
:10490000039004904FF400500590002007906946F2
:104910000648FDF7D1FE08B1FCF717FF0348FEF784
:104920005FFA15B000BD0000002C014040040020DB
:1049300000B58BB0242102A8FBF7A6FC0020009054
:1049400001904FF080401749086000204860002126
:10495000144881604FF6FF71C160002101618161DF
:104960000320029000200390012004900020059075
:104970000690079001200890002009900A9002A953
:104980000848FEF72DF808B1FCF7DFFE0020009084
:10499000019069460348FDF7C9FE08B1FCF7D5FE52
:1049A0000BB000BD8804002000B58BB0242102A804
:1049B000FBF76AFC00200090019018481849086035
:1049C000002048600021164881604FF6FF71C160E9
:1049D00000210161816103200290002003900120E9
:1049E0000490002005900690079001200890002078
:1049F00009900A9002A90A48FDF7F2FF08B1FCF7F6
:104A0000A4FE00200090019069460548FDF78EFE47
:104A100008B1FCF79AFE0BB000BD00000004004096
:104A2000D004002010B50B480B4908604FF46130EA
:104A30004860002108488160C16001610C2141612A
:104A400000218161C161FEF781FE08B1FCF77DFEA6
:104A500010BD0000003801401805002010B50B48BB
:104A60000B4908604FF461304860002108488160BC
:104A7000C16001610C21416100218161C161FEF7CA
:104A800065FE08B1FCF761FE10BD00000044004067
:104A90006005002010B50C480C4908604FF4165012
:104AA00048600021094881604FF40051C160002135
:104AB00001610C21416100218161C161FEF746FE67
:104AC00008B1FCF742FE10BD00480040A8050020D8
:104AD00000BFFEE700BFFEE72DE9F0478AB082463F
:104AE000DAF81860DAF81C30DAF82040DAF8241026
:104AF0003246204603F0E8FFCAF82800CAF82C1016
:104B0000DAF83860DAF83C30324600204FF0804165
:104B100003F0B4FD0446DAF82860DAF82C303246A7
:104B200003F0E0FECDE90201DAF83040DAF8343083
:104B3000224603F08FFA8046DAF81040DAF8143093
:104B4000224603F09BFDCDE90601DAF82860DAF889
:104B50002C30DAF80840DAF80C103246204603F020
:104B60008DFDCDE90201DAF83840DAF83C30DAF8A8
:104B70002860DAF82C102246304603F0A5FF804664
:104B8000DAF80040DAF80430224603F077FDCDE988
:104B90000001DDE9022303F05DFACDE90401DDE95E
:104BA000062303F057FACDE90801DAF84040DAF8B5
:104BB0004430224603F04EFACAF84000CAF84410C6
:104BC000DAF83810DAF83C00CAF83010CAF83400C5
:104BD000DAF81860DAF81C30DAF82040DAF8241035
:104BE0003246204603F070FFCAF83800CAF83C107D
:104BF000DAF84860DAF84C30DAF84040DAF8441075
:104C00003246204603F038FE07D2DAF84800DAF8D8
:104C10004C10CAF84000CAF84410DAF84840DAF8F4
:104C20004C1081F00041DAF84060DAF84430324646
:104C3000204603F021FE09D2DAF84800DAF84C10D9
:104C400081F00041CAF84000CAF844100AB0BDE83B
:104C5000F087000000221049C0E900214FF03332F4
:104C60000E49C0E9022152000D49C0E9042100218A
:104C70008161C1610022026242628262C262026399
:104C800042638263C263026442640649C0E912213E
:104C90000265426570470000000024403333E33F63
:104CA0006666F63F00408F400F4A1049C0E9002178
:104CB00052000F49C0E902210E4A0F49C0E9042100
:104CC00000218161C1610022026242628262C2628D
:104CD000026342638263C263026442640749C0E9BB
:104CE0001221026542657047CDCCCCCCCCCCFC3FC8
:104CF0009999C93F7B14AE47E17A843F00408F40C9
:104D00000F4A1049C0E9002152000F49C0E90221B1
:104D10000E4A0F49C0E9042100218161C1610022CE
:104D2000026242628262C262026342638263C2635F
:104D3000026442640749C0E9122102654265704776
:104D4000CDCCCCCCCCCCFC3F9999C93F7B14AE47A1
:104D5000E17A843F00408F407047000008B5084961
:104D60000968C9084FF47A72B1FBF2F1414300912E
:104D700000BF00BF00994A1E00920029F9D108BD6A
:104D800054000020704710B5FDF752F810BD00B573
:104D90008FB0282105A8FBF777FA14216846FBF7A6
:104DA00073FA01200590000406900020079001206E
:104DB000099002200C90C1030D914FF4E0110E9167
:104DC00005A8FDF72BFA08B1FCF7BFFC0F200090F7
:104DD00002200190002002904FF480600390002098
:104DE000049002216846FDF7F5F808B1FCF7ADFC28
:104DF0000FB000BD7047000010B50248FDF739FF45
:104E000010BD00004004002010B50248FDF731FF3E
:104E100010BD00008804002010B50248FDF729FFEE
:104E200010BD0000D004002010B502681C4B984251
:104E300008D0B0F1804F05D01A4B984202D01A4BDF
:104E4000984203D122F070024B681A43144B9842E7
:104E500008D0B0F1804F05D0124B984202D0124BCF
:104E6000984203D122F44072CB681A4322F08003A7
:104E70004C6943EA040202608B68C3620B68836278
:104E8000074B984201D10B69036301234361036916
:104E900003F001031BB1036923F00103036110BD9B
:104EA000002C0140000400400008004030B501F033
:104EB0001F05012404FA05F3046A9C430462046A92
:104EC00001F01F0502FA05F52C43046230BD30B530
:104ED0000C46816821F47F4142EA0325254329439A
:104EE000816030BD0A46816821F0700142F00703FD
:104EF000194381607047000030B5026A056A25F0E9
:104F0000010505624368846924F0700424F00304F9
:104F10000D682C4322F002028D682A430D4DA842F1
:104F200006D100BF22F00802CD682A4322F0040215
:104F3000084DA84207D123F4807323F400734D6910
:104F40002B438D692B43436084614D684563026246
:104F500030BD0000002C014030B5026A056A25F022
:104F6000100505624368846924F4E04424F4407425
:104F70000D6844EA052422F020028D6842EA0512F9
:104F80000E4DA84207D100BF22F08002CD6842EA50
:104F9000051222F04002094DA84209D123F4806392
:104FA00023F400634D6943EA85038D6943EA850371
:104FB000436084614D688563026230BD002C01400E
:104FC00030B5026A056A25F4807505624368C469D4
:104FD00024F0700424F003040D682C4322F40072C2
:104FE0008D6842EA05220F4DA84207D100BF22F486
:104FF0000062CD6842EA052222F48062094DA8428F
:1050000009D123F4805323F400534D6943EA051377
:105010008D6943EA05134360C4614D68C56302624C
:1050200030BD0000002C014030B5036A056A25F44C
:10503000805505624468C26922F4E04222F440725D
:105040000D6842EA052223F400538D6843EA0533D4
:10505000064DA84204D124F480444D6944EA8514E5
:105060004460C2614D680564036230BD002C01409C
:1050700030B50B461446026A056A25F00105056243
:10508000816921F0F00141EA041122F00A021A4379
:105090008161026230BD30B50B461446026A056A72
:1050A00025F010050562816921F4704141EA04315F
:1050B00022F0A00242EA03128161026230BD70B5A3
:1050C00005466C6A0020E085E0842046FEF700F982
:1050D00070BD70B506460025746A20684069C0F34B
:1050E000C01594F84100212805D125B10020E084A5
:1050F000204600F0C8F820684069C0F3801594F895
:105100004200222805D125B10020E085204600F08C
:1051100074F8606C40F0100060642046FEF7D8F828
:1051200070BD70B505466C6A2868006800F0200004
:10513000002842D1E08500BF00BF21680C3151E852
:10514000001F21F4807021680C3141E80002002A20
:10515000F3D100BF00BF00BF2168143151E8001F28
:1051600021F001002168143141E80002002AF3D146
:1051700000BF00BF00BF2168143151E8001F21F0BB
:1051800040002168143141E80002002AF3D100BF39
:10519000202084F84200206B01280ED100BF00BF00
:1051A00021680C3151E8001F21F0100021680C31FA
:1051B00041E80002002AF3D100BF00206063206BA9
:1051C000012804D1A18D2046FDF7EAFF02E0204628
:1051D000FEF71AFC70BD70B505466C6A012060636D
:1051E000206B012805D1A08D41082046FDF7D8FF8E
:1051F00002E02046FEF764FC70BD00BF00BF0268FD
:105200000C3252E8002F22F4907102680C3242E80E
:105210000013002BF3D100BF00BF00BF026814329F
:1052200052E8002F22F001010268143242E8001314
:10523000002BF3D100BF016B01290ED100BF00BFCD
:1052400002680C3252E8002F22F0100102680C3282
:1052500042E80013002BF3D100BF202180F8421058
:1052600000210163704710B504462068C06820F033
:1052700040002168C860202084F841002046FEF7E5
:105280007FFC002010BD00BF00BF02680C3252E856
:10529000002F22F0C00102680C3242E80013002BFC
:1052A000F3D100BF202180F841107047F8B50446C3
:1052B00094F84200222875D1A068B0F5805F0CD127
:1052C000206950B90025A66A20684068C0F308002C
:1052D0003080A06A801CA06215E0A56A0026A06844
:1052E000B0F5805F03D0A06828B9206918B920689C
:1052F0004068287004E02068406800F07F00287053
:10530000A06A401CA062E08D401E80B2E0850028AB
:1053100046D12068C06820F020002168C86020685D
:10532000C06820F480702168C8602068406920F05F
:10533000010021684861202084F842000020606359
:10534000206B012826D10020206300BF00BF216808
:105350000C3151E8001F21F0100021680C3141E8A8
:105360000002002AF3D100BF2068006800F010009E
:1053700010280AD100BF002000902068006800902B
:1053800020684068009000BF00BFA18D2046FDF757
:1053900007FF02E02046FEF737FB0020F8BD01E0E2
:1053A0000020FBE70220F9E770B50446216809698F
:1053B00021F44051E2681143226811612269A16819
:1053C0001143626941EA02052168C96841F20C6231
:1053D000914329432268D1602168496921F44071D1
:1053E000A2691143226851612D4A2168914202D17C
:1053F000FCF7CCFE01E0FCF7B9FE00EBC00101EBCD
:10540000001162689200B1FBF2F100EBC00202EB06
:10541000001263689B00B2FBF3F26423B2FBF3F269
:1054200002EBC20303EB0212A1EB8201322202EB78
:1054300001116422B1FBF2F101F0F00100EBC002B6
:1054400002EB001263689B00B2FBF3F26423B2FB31
:10545000F3F201EB021200EBC00101EB00116368F3
:105460009B00B1FBF3F100EBC00303EB0013666894
:10547000B600B3FBF6F36426B3FBF6F303EBC30607
:1054800006EB0313A1EB8301322303EB0111642329
:10549000B1FBF3F101F00F0111442268916070BD7E
:1054A0000038014077B581B0044615460298A062E5
:1054B000A58500206064222084F842002848E16B22
:1054C00088622848E16BC8622748E16B08630020C6
:1054D000E16B486302AE32682368191D2B46E06B0E
:1054E000FCF7BCFA00BF0020009020680068009024
:1054F00020684068009000BF00BF206970B100BF05
:1055000000BF21680C3151E8001F41F48070216810
:105510000C3141E80002002AF3D100BF00BF00BFF8
:105520002168143151E8001F41F001002168143155
:1055300041E80002002AF3D100BF00BF00BF21688C
:10554000143151E8001F41F040002168143141E856
:105550000002002AF3D100BF002004B070BD00009B
:1055600023510008D7510008D350000810B5034656
:1055700099629A85DA8500205864222083F84200D7
:10558000186928B11868C06840F480701C68E06031
:105590001868406940F001001C6860611868C068C4
:1055A00040F020001C68E060002010BD014691F82A
:1055B0004100212828D18868B0F5805F0BD10869A7
:1055C00048B90A6A1088C0F308000B685860086A76
:1055D000801C086205E00B6A581C086218780B688A
:1055E0005860C88C401E80B2C88458B90868C0682A
:1055F00020F080000B68D8600868C06840F0400068
:105600000B68D860002070470220FCE72DE9F843C2
:1056100004460D4617469846089E31E0701C70B34C
:10562000FCF700FCA0EB0800B04200D816B903203C
:10563000BDE8F8832068C06800F00400F8B1802D50
:105640001ED0402D1CD020680068C0F3C000B0B14F
:1056500000BF00200090206800680090206840682B
:10566000009000BF00BF2046FFF7C7FD0820606420
:1056700000BF002084F8400000BF0120D8E7FFE70A
:10568000206800682840A84201D1012000E00020E5
:10569000B842C3D00020CBE710B50248FDF7E4FEC6
:1056A00010BD00001805002010B50248FDF7DCFE13
:1056B00010BD00006005002010B50248FDF7D4FEC3
:1056C00010BD0000A805002000BFFEE7490050EA19
:1056D000C12018BF04204A0D18BF40F0010040F25D
:1056E000FF72B2EB515F08BF40F00200012808BF13
:1056F0000520704702480068C0F302207047000090
:105700000CED00E010B5002804DB0A07130E054A73
:10571000135406E00A07140E034A00F00F031B1F80
:10572000D45410BD00E400E018ED00E02DE9F04194
:105730004F1E00EBC7010446D1E9000115461E4685
:1057400037F006020DD02A46334602F097FF7F1E3F
:1057500004EBC703D3E9002302F07CFC37F0060218
:10576000F1D1022F25D0042F13D0062F18BFBDE88A
:10577000F0812A46334602F081FFD4E90A2302F081
:1057800069FC2A46334602F079FFD4E9082302F087
:1057900061FC2A46334602F071FFD4E9062302F089
:1057A00059FC2A46334602F069FFD4E9042302F08B
:1057B00051FC2A46334602F061FFD4E9022302F08D
:1057C00049FC2A46334602F059FFD4E90023BDE8DC
:1057D000F04102F03FBC0000002213461046014990
:1057E00002F0F4BC0000F03F02F034BC002213468B
:1057F0001046114602F0EABC40F2013200204FF0A0
:10580000E04103F0F6BA0000024A0020110703F05D
:10581000F0BA000001FDFFFF10B50446D1E9000118
:1058200000F002F8206010BDF8B504460D466A4647
:1058300000F024FB00987E30009000281EDC00223F
:1058400013462046294602F019FE17D0002140F6E3
:1058500008004FF0000006462046294602F0C8FB2B
:10586000044640F6080006EA00014FF0000034F05C
:10587000004004BF0220FAF736FD29E00098FF2817
:1058800028DB002108464FF0000000F4400600220B
:1058900013462046294602F0EFFF8CBF0025012564
:1058A0000220FAF720FD4FF0FF4446B1002D0CBF57
:1058B0004FF400004FF48000B04218BF084C0421A0
:1058C00008464FF00000002D04BF84F00040F8BDF2
:1058D0002046F8BD20462946BDE8F84002F088BBC6
:1058E000FFFF7F7F10B504460A46D4E9000319463E
:1058F00000F0F0FAC4E9000110BD30380A2801D2E6
:10590000012070470020704730B583B00446FAF795
:10591000E5FC05460020CDE9000002462146684628
:10592000FAF706FD2846FAF7DEFCDDE9000103B0D0
:1059300030BD00002DE9FF5F06460F46934600226A
:1059400013463046394602F097FF02D830463946B2
:1059500002E0304687F000412C4A2D4BCDE9000192
:1059600002F08CFE814600222A4B02F073FB0446B3
:105970000D460022274B2046294602F043FE01D265
:105980000024244D0022244B2046294602F074FFB7
:1059900001D20024204DBBF1000F02D01F48204B44
:1059A00002E04FF033301F4BCDE902032046294679
:1059B000DDE9022302F062FE04460D464FF0333269
:1059C000194B2046294602F045FB04460D460022AD
:1059D000164B2046294602F051FE81460022144B08
:1059E00002F038FBCDE9000102F0B4FD8046B8F5C5
:1059F000C87F01D24FF4C878B8F57A6F01D94FF457
:105A00007A68404604B0BDE8F09F00007B14AE47C2
:105A1000E17A843F0000F03F000024409A99999970
:105A20009999F13F3333F33F3333D33F000079404B
:105A30000000E03F00204FE000EB80014A4A32F8CE
:105A40002110002946D049490988491C474A11803C
:105A500000EB8001444A32F92110454A1268114492
:105A6000434A116000EB80013F4A02EB8101498803
:105A7000404A126811443F4A116000EB80013A4AE3
:105A800002EB810149683C4A126811443A4A1160AC
:105A900000EB8001344A02EB8101097A374A12682F
:105AA0001144364A116000EB80012F4A02EB81015C
:105AB000C968334A12681144314A116000EB800111
:105AC000294A02EB8101B1F910102E4A12681144E3
:105AD0002C4A1160411CC8B20C28ADDB234909884F
