:020000040800F2
:10000000F006002005010008913300087B2C000851
:10001000213000089F0B0008C93A000800000000CA
:100020000000000000000000000000009533000800
:100030000B0E00080000000093330008193400087C
:100040001F0100081F0100081F0100081F01000810
:100050001F0100081F0100081F0100081F01000800
:100060001F0100081F0100081F0100081F010008F0
:100070001F0100081F010008C90D0008D50D000868
:100080001F0100081F0100081F0100081F010008D0
:10009000BD3A00081F0100081F0100081F010008E9
:1000A0001F0100081F0100081F0100081F010008B0
:1000B0007D3400081F0100081F0100081F0100080F
:1000C0001F0100081F0100081F0100081F01000890
:1000D0001F010008B13A00081F0100081F010008B5
:1000E0001F0100081F0100081F010008DFF810D0E1
:1000F00000F0D0FA00480047853C0008AFF30080CC
:10010000F00600200648804706480047FEE7FEE765
:10011000FEE7FEE7FEE7FEE7FEE7FEE7FEE7FEE7B7
:100120007B340008ED000008202A04DB203A21FA85
:1001300002F00021704721FA02F3D040C2F1200200
:100140009140084319467047D2B201E000F8012BF4
:10015000491EFBD270470022F6E710B513460A4647
:1001600004461946FFF7F0FF204610BDF0B480EAC0
:100170000102D40F4200B2EB410F02D20246084600
:1001800011464A0042D0C30DDDB2C1F3C752AD1AC9
:10019000202D35DAC1F3160141F4000204B15242B8
:1001A000C5F1200602FA06F12A411044B3EBD05FF4
:1001B00023D0C4B1012DA0EBC35009DCF0BC4FF03B
:1001C000004202EAC352DBB200F5000000F0D7B9EA
:1001D000400000F1807000EBC350A0F1807040EA55
:1001E000D170490009E0490841EAC071A0EBC35051
:1001F00000F50000400800EBC350F0BC00F0B6B9B9
:100200006142012202EB4101001BF6E7F0BC70479E
:1002100081F00041AAE780F00040A7E780EA0102F0
:1002200010B502F00043400022D04A001FD0010E5A
:1002300001EB1261C0F35600C2F3560240F4000015
:1002400042F40002A0FB022000047F39140400D015
:10025000401C50EA124001D44000491EC2B20C06B4
:1002600004EBD010401C4008802A02D003E000209C
:1002700010BD20F00100002900DA0020184310BD55
:1002800030B480EA010202F0004530F0004221F073
:10029000004013D090B1C30DD40DC2F31601C0F3CA
:1002A0001600E41A41F4000140F400027D3491424A
:1002B00001D3641C00E04900002C02DA30BC0020AD
:1002C00070474FF400000023914201D3891A034381
:1002D00040084FEA4101F7D151B1914202D14FF0AC
:1002E000004105E002D24FF0010101E06FF0010191
:1002F00003EBC450284430BC00F038B92DE9FE4F60
:1003000081EA030404F0004421F0004100944FF01E
:10031000000B23F0004350EA01045ED052EA0304CC
:100320005BD0C3F30A54C1F30A552C44A4F2F3344E
:100330000194A0FB0254C1F3130141F48011C3F3F3
:10034000130343F4801301FB024400FB034E840AB1
:10035000970A44EA815447EA8357A4FB0768029549
:100360008D0A05FB07854FEA932C04FB0C542705E7
:10037000029D4FEA065847EA1637B5EB08056EEBC3
:10038000070C870E920E47EA811742EA8312A7FBF9
:100390000201B6EB0B0164EB00042B0D43EA0C33B6
:1003A0005E1844EB1C50DA465146E7FB0201C5F3E8
:1003B00013044FEA0B3343EA14534FEA0432019C0F
:1003C00043EA0603A4F10C040294009CCDE900B4B6
:1003D00000F012F903B0BDE8F08F00200146F9E704
:1003E000C10F80EAE0700844CA079623002100F09C
:1003F000C6B896230022114600F0C1B80EB540F2EF
:10040000334102910021CDE900110A460B4600F06C
:10041000F3F803B000BD00F0004220F00040C10D31
:10042000C0F3160040F400007F2901DA0020704775
:10043000962903DCC1F19601C84001E09639884055
:10044000002AF4D04042704720F00040C10DC0F3B4
:10045000160040F400007F2901DA00207047962939
:1004600003DCC1F19601C840704796398840704757
:1004700001F0004330B421F0004150EA010206D0FF
:100480000A0DA2F56072C1F31301002A02DC30BC30
:1004900000207047440F44EAC104C100E01830BC9A
:1004A00000EBC25000F062B8002801DBC0F1004050
:1004B000002901DBC1F1004181427047002801DBC6
:1004C000C0F10040002901DBC1F1004188427047C2
:1004D0000FB4002300B589B00CA900910B996FF0FF
:1004E0000042CB601E4B06931E4B07930423CDE9BD
:1004F00001321D4A089202466B46002000F084F942
:1005000009B05DF814FB70B586B006464FF0FF30B9
:100510000091CDE90101002015460C4604903246B9
:10052000694604A8FFF7D4FF02460498211825B1B4
:1005300008B1084600E020462860049800280DD045
:10054000002A02DD0098884208D0081B0094CDE9FB
:1005500001043246694604A8FFF7BAFF06B070BD31
:10056000410A00085F0A0008D70600080029A8BF52
:100570007047401C490008BF20F00100704710B4CC
:10058000B0FA80FC00FA0CF050EA010404BF10BC81
:10059000704749B1CCF1200421FA04F411FA0CF1AE
:1005A00018BF012121430843A3EB0C01CB1D4FEAE7
:1005B00000614FEA102042BF002010BC704700EBE2
:1005C000C35010440029A4BF10BC7047401C490010
:1005D00008BF20F0010010BC704710B5141E73F165
:1005E000000408DA401C41F1000192185B411A43F3
:1005F00001D120F0010010BD2DE9F04D92469B463F
:1006000011B1B1FA81F202E0B0FA80F220329046E4
:1006100000F052F804460F4640EA0A0041EA0B0196
:1006200053465A46084313D0114653EA010019D0E5
:10063000C8F140025046FFF777FD05460E4650468A
:100640005946424600F038F8084305D0012004E03E
:1006500020463946BDE8F08D0020054346EAE076A5
:100660002C4337430A986305E40AA0EB08000022F4
:10067000FD0A44EA47540A3002D500200146E9E762
:10068000010510196941DDE9084500196941BDE816
:10069000F04DA2E7064C074D06E0E06840F001038C
:1006A00094E8070098471034AC42F6D3FFF722FDD8
:1006B000BC410008DC410008202A04DB203A00FA93
:1006C00002F1002070479140C2F1200320FA03F3A9
:1006D000194390407047C0B24FF4F05100F0D0B9C8
:1006E0002DE9FF4F087883B09946FF2805D0491CB3
:1006F0002D2804D00024002008E000200BE0012475
:10070000F9E700EB800003EB4000491C0B78FF2B5E
:10071000F7D104B1404200230293147819461D46D4
:100720002D2C01D02B2C04D1521C2D2C13D00024A5
:100730000294AA461478FF2C0FD00A25A3FB057853
:1007400001FB05814FF0000C03FB0C11521CE31957
:100750004AEB0101EEE70124EAE7814453EA010094
:1007600002D019F5C87F06DA03980021C0E900110C
:1007700007B0BDE8F08F0025AE4E2F46DFF8B882F7
:10078000184600F000FACDE90001B9F1000002DAE4
:10079000C9F1000400E004460023A74A1AEB030B4A
:1007A00042EB045A12E0E00707D02A4633463846A7
:1007B0004146FFF7A3FD074688462A4633461046C2
:1007C0001946FFF79BFD05460E466410002CEAD142
:1007D000DDE90001B9F1000F5A46534606DA00F090
:1007E00063F93A46434600F05FF905E0FFF786FDFE
:1007F0003A464346FFF782FD029A0AB181F0004172
:10080000039AC2E90001B3E72DE9FF4F1F468DB0FF
:10081000D7E901464FF0FF382E2045464FF000093A
:100820000B90B9696D1C0E988847396A82468847D3
:100830000028F6D1BAF1FF3F0AD024F4D064002E8C
:1008400011DDBAF12B0F08D0BAF12D0F0BD102E058
:10085000404611B08DE744F48064B9696D1C0E9870
:1008600088478246761E6946600501D52D2000E046
:100870002B208DF8000001F1010B0DF1200809E09B
:10088000B9696D1C0E98884782460F9844F400742D
:10089000761E0560002E02DDBAF1300FF0D00B9904
:1008A0008A453ED144F0800406E00F99681CA9F106
:1008B000010944F400740860B9696D1C761E0E9835
:1008C000884782463028F0D02BE00B998A4505D125
:1008D000200603D444F08004761E18E0504603F04E
:1008E00021F908B30DF11301761E44F400748B4511
:1008F00008D2AAF130000BF8010B200607D5A9F1A8
:10090000010003E0200602D409F101008146A005A0
:1009100002D50F99681C0860B9696D1C0E9888474C
:100920008246002ED1DC53E0002E51DDBAF1650F76
:1009300002D0BAF1450F4BD1A00549D5B9696D1C5C
:1009400024F44074761E0E9888478246002E0CDDF3
:100950002B2804D0BAF12D0F07D144F48074B96963
:100960006D1C0E9888478246761EE00501D52D2124
:1009700000E02B2108F8011BCDF82C8021E00DF1BF
:100980002901761E44F4007488450CD2AAF1300087
:1009900010F0FF0088F8000002D10B99884509D9B2
:1009A00008F1010806E0E00501D5244801E042F223
:1009B0000F708146B9696D1C0E98884782460F9862
:1009C0000560002E04DD504603F0ACF80028D6D1B7
:1009D000F9690E988847FF208BF8000088F800001E
:1009E0000020069007904B466A4608A906A8FFF724
:1009F00077FEA00502D46FF001002AE714F0240F5F
:100A00000AD0E00714D1DDE906123868031D3B6007
:100A10000068C0E900120BE0DDE90601FFF728FDE0
:100A20000146E00704D13868021D3A6000680160A1
:100A300028460EE7000014400000F03FF1D8FFFF09
:100A4000426842B1016811F8013B23B1521EC0E96E
:100A50000012184670470121C160881E7047426825
:100A60005AB1C368016843B983688B4205D0491EF7
:100A7000521CC0E90012002070474FF0FF30704751
:100A80007F2801D9002208E0064A02EB5002C00785
:100A9000127800D1120902F00F02012090400840A4
:100AA000704700007C4100082DE9F04D81EA030405
:100AB00004F0004B21F0004514464FF0000A23F0EB
:100AC000004150EA050220D054EA01021DD0C5F3CE
:100AD0000A570246C5F31303C1F31300C1F30A56C4
:100AE00040F4801543F48013A7EB0608101BD6468C
:100AF00008F2FD3873EB050002D308F1010801E0AC
:100B000092185B41B8F1000F03DA00200146BDE8FE
:100B1000F08D00204FF48011064684460EE0171B2E
:100B200073EB050705D3121B63EB050306434CEA81
:100B3000010C49084FEA300092185B4150EA010766
:100B4000EDD152EA030012D082EA040083EA0501E3
:100B5000084305D0101BAB4106D20122002306E05A
:100B600000224FF0004302E06FF0010253101AEB35
:100B700006004CEB085110EB0A0041EB0B01BDE8FD
:100B8000F04DFFF72ABD0EB540F23342029200222B
:100B9000CDE900221346FFF72FFD03B000BDFEE7AD
:100BA00070B50C0015D0144A144D00BF10F1FF4F62
:100BB00001D380F0004001461046FFF72FFB294685
:100BC000FFF7D4FA44B10E490E4A884207DA0846C4
:100BD00008E00D4A0D4DE9E70D490E4AF5E7904250
:100BE00000DD10460C49FFF719FB0C49FFF7BEFA70
:100BF000BDE87040FFF728BCDF4F55400000C843F8
:100C0000000096430000E144A01AE74000806D44D4
:100C10000000164400803B453333933F00004843B7
:100C2000022803D2024951F8200070470020704783
:100C30003C0000202DE9FF5F9A46DDE90F788B46E6
:100C40000646DDF8389000F005FF05461EE0012F4E
:100C500008D100F0FFFE411B414503D9002004B03C
:100C6000BDE8F09F59463046029A03F099F90A20F0
:100C700000F0E8FD58467168FFF7CAFA20F000401E
:100C80005146FFF711FC01D214B105E00024DEE764
:100C900000F0E0FE0400DAD000F0DCFE011B494564
:100CA000D5D30120DBE72DE9FF4F83B08A46DDE98C
:100CB0001176DDF8588000F0CDFE019000250398F4
:100CC000FFF7AEFF4FF4000B0090B8F1010F0DD10C
:100CD00000F0C0FE0199411A1798814206D90024FC
:100CE0005046109A059903F05BF922E0DAF8040007
:100CF000814601460598FFF78BFA20F00040044634
:100D00001499FFF7D1FB18D21DB900F0A3FE05001E
:100D100014D000F09FFE411B159881420ED3012490
:100D20005046109A059903F03BF90599039800F095
:100D300043F807B02046BDE8F08F002548460099EB
:100D4000FFF766FA20F0004926F0004627F000473A
:100D500031462046FFF7A8FB06D85E4502DB314648
:100D600020460AE000200AE039464846FFF79CFB8F
:100D700012D25F45F6DB39464846FFF781FA044652
:100D800013990698FFF744FA2146FFF747FA13999B
:100D9000FFF7ECF9044600E0069C13992046FFF7A4
:100DA00083FB00D2139C50462246059903F0F8F8C5
:100DB000052000F047FD88E7022802D2014A42F8E8
:100DC000201070473C000020014800F02BBC0000C0
:100DD000E0010020014800F025BC00009C0100203B
:100DE00030B590F840500124AC40C56B6C6004688D
:100DF00063604368102B036803D099600068C26089
:100E000030BD9A600068C16030BD704772B6FEE7C1
:100E100090F82020012A07D0022A05D0416A41F427
:100E20008021416201207047006842690A434261A3
:100E300000207047F0B590F820500468A468012D98
:100E400005D0022D03D0416A41F4802157E014F00F
:100E5000406F01D1E5004FD5C4F301640125A540E1
:100E60001D608D684FF4C0739DB1CE6835434E68E8
:100E700045EAC605066803EB0417F5514FF4C27541
:100E8000076805EB04150E697E51097D012905D01F
:100E900009E00E88CD6845EA4655EBE701684E59F2
:100EA00046F480764E511179D579567941EA05613B
:100EB00095792D0445EA062529434FF4C676056841
:100EC00006EB0416A9511178D57841EA05619578A9
:100ED00052782D0445EA022211434FF4C47502688A
:100EE00005EB04155151006803EB0411425842F020
:100EF000010242500020F0BD416A41F400114162FC
:100F00000120F0BD10B590F820300268012B07D009
:100F1000022B05D0416A41F480214162012010BDBD
:100F2000D2F8000240F00100C2F80002087D00F093
:100F30001F0301209840D2F81C328343C2F81C32B0
:100F4000CB69B3B9D2F80C328343C2F80C328C8926
:100F50004B6864F31F434C6902EBC404C4F840328D
:100F60000C890B6864F31F434C6902EBC404C4F89A
:100F70004432CB69012B16D1D2F80C320343C2F8AC
:100F80000C320C884B6864F31F434C6902EBC404B9
:100F9000C4F840320C89CB6864F31F434C6902EB00
:100FA000C404C4F844328B69002BD2F804320FD049
:100FB00053EA0003C2F804320B69002BD2F8143252
:100FC00008D00343C2F81432096A012904D008E0AA
:100FD0008343EFE78343F5E7D2F81C120143C2F8DD
:100FE0001C12D2F8000220F00100C2F8000200201A
:100FF00010BD704770B590F82040012C05D0022C30
:1010000003D0416A41F4802128E0046809B32469CF
:10101000A40720D04FF4D874056804EB01142D59AF
:1010200015F00405956005682D591AD0ED08556036
:1010300005682C5904F00204D4604FF4DA74056892
:1010400004EB01142E5906F00F06082E0CD30825C8
:101050000DE0E468DCE7416A41F4001141620120DF
:1010600070BD6D0D1560E3E72D5905F00F05156195
:1010700005682D59C5F30725956105682C59240C81
:1010800054614FF4DC72046802EB0112A4581C7026
:101090000468A458240A5C700468A458240C9C704A
:1010A0000468A258120EDA704FF4DE72046802EB84
:1010B0000112A4581C710468A458240A5C710468C5
:1010C000A458240C9C710468A258120EDA710068AE
:1010D00029B1016941F020010161002070BDC168A2
:1010E00041F02001C160F8E72DE9F05F0546006896
:1010F00000244669D0F804908768D0F80CB0D0F886
:1011000010A0D0F81880F10748D0F90714D00121B9
:101110008160B80703D5284600F00FFA0CE0780785
:1011200002D54FF4006407E0380702D54FF480542D
:1011300002E0284600F000FAF80516D529684FF4B9
:1011400080708860B80503D5284600F0F8F90CE0F7
:10115000780502D544F4005407E0380502D544F47C
:10116000804402E0284600F0E9F9F80316D5296822
:101170004FF480308860B80303D5284600F0E1F9C9
:101180000CE0780302D544F4004407E0380302D5AC
:1011900044F4803402E0284600F0D2F9300707D545
:1011A0005FEACB6004D52968102044F40074C8605D
:1011B00070074FF0080707D55FEA0B7004D5286861
:1011C000C760284600F05AF9B00706D52868C068FD
:1011D000800702D0284600F053F9700607D55FEA71
:1011E000CA6004D52968102044F480640861B00600
:1011F00007D55FEA0A7004D528680761284600F021
:101200006BF9F00606D528680069800702D02846E9
:1012100000F063F9B00308D55FEAC96005D5296815
:1012200010204860284600F059F9F00307D55FEA1E
:10123000097004D528684760284600F083F9300417
:1012400046D55FEA497040D5F00504D55FEAC8701D
:1012500001D044F00104B00504D55FEA887001D5DF
:1012600044F00204700504D55FEA487001D544F0EB
:101270000404300529D518F0700F26D008F070004E
:10128000402815D006DC102809D020280AD03028A4
:1012900016D10AE050280ED0602811D10EE044F09B
:1012A00008040DE044F010040AE044F0200407E0D4
:1012B00044F0400404E044F0800401E044F480740D
:1012C0002868816921F070018161296804204860E3
:1012D000002C05D0686A204368622846FFF789FE23
:1012E000BDE8F09F70B5040003D094F8200010B161
:1012F00004E0012070BD204600F082F820680168FB
:1013000041F00101016000F0A5FB0546052604E05F
:1013100000F0A0FB401B0A2811D820684068C007D5
:10132000F6D02068016821F00201016000F092FB14
:1013300005460BE000F08EFB401B0A2806D9606AC8
:1013400040F40030606284F82060D2E72068406892
:101350008007EFD4207E0128206801683DD021F06D
:1013600080010160607E01282068016838D021F08A
:1013700040010160A07E01282068016833D021F07F
:1013800020010160E07E0128206801682ED041F034
:1013900010010160207F01282068016829D021F018
:1013A00008010160607F01282068016824D021F0D5
:1013B00004010160D4E902010843D4E90412114395
:1013C00008436168491E08432168C86100206062C3
:1013D000012084F82000002070BD41F08001C0E7AA
:1013E00041F04001C5E741F02001CAE721F01001BA
:1013F000CFE741F00801D4E741F00401D9E700004C
:1014000010B586B00021009101910291039100680E
:10141000174988422AD11748C16941F00071C1615A
:10142000C16901F000710491816941F00401816199
:101430008069114C00F0040004904FF400600090AB
:101440006946204600F010FAA01400900220019096
:10145000032003906946204600F006FA0022114658
:10146000142000F063FB142000F052FB06B010BD06
:101470000064004000100240000801407047000076
:1014800010B5134B134A0021FFF7B4FD1148104962
:10149000104B42680C39C2F3072048600C313433DA
:1014A0001F2808D07F2805D1100E01D0184607E06C
:1014B0000878587010BD100E06D006480449543004
:1014C000BDE8104001F0D2BE087883F8210010BDBD
:1014D0002C00002024020020704770477047000055
:1014E00070B5044690F82000012804D0606A40F4EA
:1014F0000020606218E0022084F820002068016863
:1015000021F00101016000F0A5FA05460EE000BFE0
:1015100000F0A0FA401B0A2808D9606A40F40030A5
:101520006062052084F82000012070BD20684068BA
:10153000C007EDD1606270BD70477047704770475B
:1015400070477047704710B590F8211000220229AB
:1015500005D00421816380F82020012010BD01689E
:101560000B6823F00E030B6001680B6823F0010386
:101570000B6090F84030C46B012101FA03F3636003
:1015800080F8211080F82020104610BD10B590F88A
:1015900021100024022903D00421816301243DE0AD
:1015A00001680A6822F00E020A6001680A6822F0E7
:1015B00001020A601A4A0168914201D1012121E029
:1015C000174A1432914201D110211BE0144A2832EB
:1015D000914201D1891515E0114A3C32914201D165
:1015E00089140FE00E4A5032914202D14FF48031FB
:1015F00008E00B4A6432914202D14FF4801101E0BD
:101600004FF08071064A083A5160012180F821109C
:10161000002180F82010416B01B18847204610BDA1
:10162000080002402DE9F05FC16B0C6801680B688F
:10163000D0F840C0042202FA0CF2494DDFF824A190
:10164000494E4A4FDFF828B1DFF828E122422CD07A
:101650005A072AD50A68920603D40A6822F00402BF
:101660000A600168A94201D1042219E0514501D163
:10167000402215E0B14202D14FF4806210E0B9423D
:1016800002D14FF480420BE0594502D14FF4802241
:1016900006E0714502D14FF4800201E04FF0806214
:1016A0002F4908394A60C16A3BE04FF0020808FA46
:1016B0000CF818EA040F4FF000094FF0010235D082
:1016C0005FEA837832D50B689B0605D40B6823F05C
:1016D0000A030B6080F821200168A94201D102228F
:1016E00019E0514501D1202215E0B14202D14FF459
:1016F000007210E0B94202D14FF400520BE059459C
:1017000002D14FF4003206E0714502D14FF40012CD
:1017100001E04FF00072124908394A6080F82090C9
:10172000816A00291AD0BDE8F05F0847082505FA4C
:101730000CF5254212D01B0710D50B6823F00E03C1
:101740000B6090F84010C36B02FA01F1596082639C
:1017500080F8212080F82090016BE2E7BDE8F09F3F
:10176000080002401C0002403000024044000240D9
:10177000580002406C00024030B528B308C8134935
:1017800014221944B1FBF2F18900C163104981634D
:10179000022141771A6843F6F0718A43D0E90014B8
:1017A0002143D0E902452C43214304692143446984
:1017B00021438469214311431960002141630122BF
:1017C00042770177084630BD012030BDF8FFFDBFEC
:1017D0000000024070B5044690F820000025012862
:1017E0000CD0012084F8200094F821600020012E04
:1017F00006D084F820000225284670BD022070BD66
:10180000022684F82160A0632068066826F001069D
:1018100006602046FFF7E4FAE06A002820680168C5
:1018200002D041F00E0106E021F0040101602068C1
:10183000016841F00A0101602068016841F001017E
:101840000160D9E770B5044600F004F90546601C54
:1018500002D004480078044400F0FCF8401BA04289
:10186000FAD370BD100000202DE9F84FDFF8B891D1
:101870000024A9F1040B23460F2709F1040AABF158
:10188000040EC9E00125A5402A40AA427DD1674E39
:10189000D1F804C0ACEB0608B44532D014DCBCF17E
:1018A000030F3AD009DCBCF1000F2AD0BCF1010FC4
:1018B0001CD0BCF1020F31D11DE0BCF1110F17D0CB
:1018C000BCF1120F2AD119E0B8F5881F19D006DC37
:1018D000B8F5803F15D0B8F5801F1FD111E0B8F5DD
:1018E000001F0ED0B8F5041F18D10AE0CB6815E030
:1018F000CB681B1D12E0CB6808330FE0CB680C33BC
:101900000CE08B682BB1012B4FF0080303D045612D
:1019100004E0042302E0056100E00023FF2A01D86F
:10192000064601E000F104064FEA840501D9A5F15D
:101930002005D6F8008007FA05FC28EA0C0803FA0F
:1019400005F548EA0508C6F800804D68ED0062D547
:10195000374DAE6946F00106AE61AD6924F003066D
:1019600005F001050095334D06EB050CDCF8085039
:10197000A607360F07FA06F825EA0805DFF8B8804B
:10198000404503D14FF0000817E044E0DFF8AC8099
:10199000404502D14FF001080FE0DFF8A480404538
:1019A00002D14FF0020808E0DFF89880404502D1EC
:1019B0004FF0030801E04FF0040808FA06F848EA7F
:1019C0000508CCF808804D68D9F80060ED024D4656
:1019D00001D5164300E096432E604D68DAF80060AA
:1019E000AD02554601D5164300E096432E604D6882
:1019F000DBF80060AD035D4601D5164300E0964379
:101A00002E604D68DEF80060ED03754601D5164383
:101A100000E096432E60641C0D682A46E5407FF482
:101A200031AFBDE8F88F000008040140000011103C
:101A3000001002400000014000080140000C01407D
:101A400000100140001401400AB10161704709040F
:101A5000FBE700000148806870470000100000208C
:101A600002488168027811448160704710000020AC
:101A7000074810B5016841F010010160032000F033
:101A800075F80F2000F006F800F024F8002010BDD3
:101A90000020024070B50D4D04464FF47A7128784D
:101AA000B1FBF0F00A490968B1FBF0F000F0DCFA94
:101AB00048B9102C07D200222146501E00F036F8FB
:101AC00000206C6070BD012070BD0000100000207F
:101AD0001C0000200C4808B5816941F001018161BA
:101AE000816901F001010091C16941F08051C1613A
:101AF000C06900F0805000900448416821F0E06126
:101B000041F00071416008BD00100240000001403A
:101B1000002809DB00F01F020121914040098000EC
:101B200000F1E020C0F8001170470000F0B40E4B47
:101B30001B680C46C3F30223C3F10705042D00D92B
:101B40000425191D072901D2002300E0DB1E012610
:101B500006FA05F1491E214099409E40761E164026
:101B60003143F0BC01F0B1BF0CED00E0064900F0DC
:101B7000070208684FF6FF03184040EA0220034AB4
:101B800010430860704700000CED00E00000FA050B
:101B90002DE9F0470F46050061D0434E306800F054
:101BA0000700B84209D2306820F00700384330609F
:101BB000306800F00700B84251D128683B4C8107DB
:101BC00012D5400703D5606840F4E0606060287873
:101BD000000703D5606840F4605060606068A968E1
:101BE00020F0F000084360602878C00728D06868BB
:101BF000012810D02168022810D0890700292EDA88
:101C0000616821F0030101436160FFF723FF804613
:101C100041F288390DE021688903EFE78901EDE79A
:101C2000FFF718FFA0EB0801494502D90320BDE8E2
:101C3000F0876068696800F00C00B0EB810FEFD1AD
:101C4000306800F00700B8420BD9306820F0070078
:101C500038433060306800F00700B84201D00120FE
:101C6000E5E72878400705D56068E96820F4E0607A
:101C7000084360602878000706D56068296920F469
:101C8000605040EAC100606000F038F86168084ABE
:101C9000C1F30311515CC84006490860064800685A
:101CA000FFF7F8FE0020C2E70020024000100240CB
:101CB000D14000081C000020140000200448054901
:101CC00000684968044AC1F30221515CC84070476A
:101CD0001C00002000100240E140000804480549B3
:101CE00000684968044AC1F3C221515CC84070478A
:101CF0001C00002000100240E14000080E4A51681C
:101D00000E4801F00C03042B11D0082B0FD10C4806
:101D1000C1F38343C903C05C0AD55168084AC1F3C3
:101D20004041921E515C054A5043B0FBF1F07047B0
:101D300004494843704700000010024000127A0036
:101D4000C140000800093D002DE9F84F040070D0A3
:101D50002078C04DC00749D06868C0F381000128D1
:101D600007D06868C0F38100022809D16868C00301
:101D700006D52868800339D560680028E7D035E0AB
:101D80006068B0F5803F0BD010B1B0F5A02F11D036
:101D9000286820F480302860286820F4802002E041
:101DA000286840F480302860606890B1FFF752FEE8
:101DB00006460AE0286840F480202860F0E700BF6B
:101DC000FFF748FE801B642873D828688003F7D586
:101DD0000CE0FFF73FFE064605E000BFFFF73AFEC6
:101DE000801B6428F0D828688003F7D420789A4EA6
:101DF00080074FF001094FF0000839D5686810F0EE
:101E00000C0F07D06868C0F38100022809D1686808
:101E1000C00306D42868800714D52069012808D19A
:101E200010E02069B0B1C6F80090FFF713FE074636
:101E300005E00AE1FFF70EFEC01B0228C4D828689F
:101E40008007F7D52868616920F0F80040EAC100F2
:101E500028600DE0C6F80080FFF7FCFD074604E0AF
:101E6000FFF7F8FDC01B022823D828688007F7D4A5
:101E7000207800072CD57948A169D9B1C0F8009025
:101E8000FFF7E8FD074604E0FFF7E4FDC01B02286A
:101E90000FD8686A8007F7D571484FF4FA51006887
:101EA000B0FBF1F0009000BF0098411E0091FAD203
:101EB0000EE080E0C0F80080FFF7CCFD074604E0AC
:101EC000FFF7C8FDC01B022875D8686A8007F7D4E1
:101ED0002078400760D5E8690027C00008D4E86989
:101EE00040F08050E861E869012700F080500090E0
:101EF0005C480168C90513D40168834641F48071C8
:101F00000160FFF7A7FD824606E000BFFFF7A2FDD4
:101F1000A0EB0A0064284ED8DBF80000C005F5D518
:101F2000E06801280AD008B1052813D0286A20F0FB
:101F300001002862286A20F0040002E0286A40F0CC
:101F400001002862E06841F2883B98B1FFF782FD0A
:101F500082460BE0286A40F004002862EEE700BFEA
:101F6000FFF778FDA0EB0A0159455AD8286A800787
:101F7000F6D50CE0FFF76EFD824605E0FFF76AFD3F
:101F8000A0EB0A0159454CD8286A8007F6D41FB146
:101F9000E86920F08050E861E06988B36968C1F3BE
:101FA0008101022944D00228C6F8608004D0FFF7DE
:101FB00051FD044638E034E0FFF74CFD074604E0ED
:101FC000FFF748FDC01B02282BD828688001F7D4F2
:101FD000206AB0F5803F05D16868A16820F4003020
:101FE00008436860D4E908010843696821F4741162
:101FF00008436860C6F86090FFF72CFD044606E0D1
:1020000025E000BFFFF726FD001B022809D828683D
:102010008001F7D51BE000BFFFF71CFD001B022865
:1020200002D90320BDE8F88F28688001F4D40EE0BF
:102030000128F7D06868226A00F48031914204D107
:10204000616A00F47010884201D00120EAE70020A4
:10205000E8E70000001002400000424280044242D3
:102060001C0000200070004010B5401EB0F1807FC1
:1020700001D3012010BD4FF0E02460610F216017F3
:1020800001F023FD0020A06107202061002010BD89
:102090007047704770B590F83C20012A26D0012483
:1020A00080F83C40022280F83D2003685A689D6811
:1020B00022F070060A6832435A600D4B02689A4259
:1020C00008D0B2F1804F05D00A4B9A4202D00A4B99
:1020D0009A4204D1496825F080031943916080F841
:1020E0003D40002180F83C10084670BD022070BDC4
:1020F000002C0140000400400008004010B504001E
:1021000003D094F83D0010B107E0012010BD00207D
:1021100084F83C00204600F01FF8022084F83D00BF
:10212000211D206801F0B0F9012084F8460084F8F0
:102130003E0084F83F0084F8400084F8410084F8B1
:10214000420084F8430084F8440084F8450084F891
:102150003D00002010BD000008B5174A016817486F
:10216000914207D1816941F400618161806900F485
:1021700000600CE0B1F1804F0BD0114A914207D1C1
:10218000C16941F00201C161C06900F00200009024
:1021900008BDC16941F00101C161C069002200F0C0
:1021A0000100009011461C20FFF7C0FCBDE808406C
:1021B0001C20FFF7ADBC0000002C014000100240C5
:1021C0000004004090F83D10012901D00120704723
:1021D000022180F83D1000680B49884208D0B0F118
:1021E000804F05D00949884202D00949884204D16C
:1021F000816801F00701062903D0016841F001015F
:102200000160002070470000002C014000040040E5
:102210000008004090F83D10012901D001207047CE
:10222000022180F83D100168CA6842F00102CA60CC
:1022300000680B49884208D0B0F1804F05D00949A9
:10224000884202D00849884204D1816801F0070120
:10225000062903D0016841F00101016000207047A8
:10226000002C0140000400400008004070B5044606
:1022700090F83C000025012817D0012684F83C6026
:10228000022084F83D002068826822F0770222F460
:102290007F4282600868502838D00DDC20284FD05B
:1022A00005DC90B3102811D14AE0022070BD30281F
:1022B00046D040280AD13BE060282FD070280DD0AE
:1022C000B0F5805F03D0B0F5005F12D0012584F82F
:1022D0003D60002084F83C00284670BDCB68D1E901
:1022E0000121206801F019F92068816841F0770127
:1022F00009E0CB68D1E90121206801F00EF92068DE
:10230000816841F480418160E1E719E0CA68496869
:10231000206801F0B7F95021206806E0CA684968D2
:10232000206801F0C0F96021206801F000F9CEE7D3
:10233000CA684968206801F0A5F940212068F4E7DF
:10234000226801461046F0E770472DE9F041044647
:102350000068C66805694FF00007A90713D5B107E3
:1023600011D5F91E0161012020772068806980075E
:10237000204602D0FFF7E8FF04E000F0A5F8204671
:1023800000F037F92777680716D5700714D521684C
:102390006FF004000861022020772068806910F443
:1023A000407F204602D0FFF7CFFF04E000F08CF81A
:1023B000204600F01EF92777280715D5300713D5DA
:1023C00021686FF008000861042020772068C06948
:1023D0008007204602D0FFF7B7FF04E000F074F852
:1023E000204600F006F92777E80616D5F00614D542
:1023F00021686FF010000861082020772068C0690C
:1024000010F4407F204602D0FFF79EFF04E000F06A
:102410005BF8204600F0EDF82777E80708D0F007D2
:1024200006D021686FF001000861204600F030F905
:10243000280608D5300606D521686FF080000861AF
:102440002046FFF725FE680608D5700606D52168E8
:102450006FF040000861204600F01BF9A8060AD57D
:10246000B00608D521686FF0200008612046BDE85D
:10247000F041FFF70EBEBDE8F081000000B585B069
:102480000021009101910291039100680B4988425B
:1024900011D10B48816941F004018161806969466D
:1024A00000F004000490402000900220019003906E
:1024B0000448FFF7D9F905B000BD00000004004052
:1024C0000010024000080140704770B5044690F8C3
:1024D0003C0000260D4601280FD0012084F83C0066
:1024E0006AB1042A1DD0082A2FD00C2A3FD0012619
:1024F000002084F83C00304670BD022070BD20688A
:1025000001F01EF82068816941F0080181612068AE
:10251000816921F004018161206881692A69114380
:1025200011E0206801F034F82068816941F400610D
:1025300081612068816921F48061816120688169FD
:102540002A6941EA02218161D2E7206801F04CF852
:102550002068C16941F00801C1612068C16921F0AA
:102560000401C1612068C1692A69114311E0206832
:1025700001F066F82068C16941F40061C16120681A
:10258000C16921F48061C1612068C1692A6941EA99
:102590000221C161ACE710B5040003D094F83D00FE
:1025A00010B107E0012010BD002084F83C00204657
:1025B00000F01EF8022084F83D00211D206800F084
:1025C00063FF012084F8460084F83E0084F83F0051
:1025D00084F8400084F8410084F8420084F8430005
:1025E00084F8440084F8450084F83D00002010BDC4
:1025F0007047704710B50446022249B104290ED035
:10260000082913D094F84100012816D0012010BDEC
:1026100094F83E000128F9D184F83E200FE094F8A8
:102620003F000128F2D184F83F2008E094F84000F0
:102630000128EBD184F8402001E084F841200122F8
:10264000206800F05DFF0F492068884203D1426C8A
:1026500042F4004242642068884208D0B0F1804FC2
:1026600005D00949884202D00849884204D18168CE
:1026700001F00701062903D0016841F00101016062
:10268000002010BD002C0140000400400008004064
:102690007047704738B5044690F84200202801D0B2
:1026A000022038BD51B14AB101202063002060638F
:1026B000204601F07BF9216B012901D0012038BDB2
:1026C00021680A684968009121680C3151E8002F9F
:1026D00042F0100241E80023002BF5D138BD000084
:1026E00070B50068164A904229D1002215480A297F
:1026F00001D2425400E042720478134D732C08D08A
:10270000672C09D0702C07D0662C05D06E2C03D016
:102710000AE07320287007E0012905D9401C01F068
:1027200008FAC5E902012C700A2206490748FFF79A
:10273000B1FF07480068016821F00401016070BD25
:102740000038014048000020000000205401002013
:102750009C01002010B504460068406994F84110BF
:10276000C0F3C010212911D180B12068143050E885
:10277000001F21F0800140E80012002AF5D1A06B73
:1027800008B1FEF7E0FE204601F045F820684069F8
:1027900094F84210C0F38010222911D180B1206832
:1027A000143050E8001F21F0400140E80012002AD8
:1027B000F5D1E06B08B1FEF7C6FE204601F004F843
:1027C000002010BD154908B5884225D1416C0A0783
:1027D00003D502681368526800924A0703D502685D
:1027E000136852680092CA0703D0026813685268DF
:1027F0000092890703D501680A6849680091FFF7CC
:10280000A9FF0A2206490548FFF744FF054800686A
:10281000016821F00401016008BD0000540100209E
:10282000480000209C010020F8B5016804460868B3
:10283000CA684B6910F00F0F4FF0000559D003F034
:10284000010602F49077374365D0C10705D0D10562
:1028500003D5616C41F001016164410705D5D907D9
:1028600003D0616C41F002016164810705D5D9078D
:1028700003D0616C41F004016164010707D502F0E7
:102880002001314303D0616C41F008016164616C47
:1028900000293AD0800604D5900602D5204600F0E3
:1028A000C8FF20684069616CC0F38010090700D43C
:1028B00060B3204600F088FF20684069400621D5BB
:1028C0002068143050E8001F21F0400140E8001259
:1028D000002AF5D1E06BA8B16D494163E06BFEF7CA
:1028E00055FE002811D0E06B416B01B0BDE8F0400F
:1028F000084783060FD593060DD52046BDE8F8405E
:1029000000F097BF2046FFF75DFFF8BD2046FFF7B8
:1029100059FF6564F8BD266B2023012E7CD1C606C5
:102920007AD5D60678D508684868009048694FF08F
:102930000206400640D5E16B086840680004000CC0
:10294000E8D0A28D8242E5D9E085886920282DD083
:1029500020680C3050E8001F21F4807140E800121C
:10296000002AF5D12068143050E8001F21F0010141
:1029700040E80012002AF5D12068143050E8001F0A
:1029800021F0400140E80012002AF5D184F84230DD
:10299000256320680C3050E8001F21F0100140E84A
:1029A0000012002AF5D1E06BFEF7CDFD6663A08D25
:1029B000E18D401A81B22AE0A08DE18D401A81B2EA
:1029C000E08D0028A6D00029A4D022680C3252E85D
:1029D000000F20F4907042E80007002FF5D1206826
:1029E000143050E8002F22F0010240E80027002FA9
:1029F000F5D184F84230256320680C3050E8002F70
:102A000022F0100240E80023002BF5D16663204637
:102A1000FFF766FEF8BDFFE705062BD5150629D59D
:102A200094F841002128F5D1A068B0F5805F01D16C
:102A30002069B0B1206A411C216221680078486099
:102A4000E08C401E0004000CE084E3D12068C168E3
:102A500021F08001C1602068C16841F04001C1607F
:102A6000D8E7206A0088C0F308004860206A801C0C
:102A70002062E5E74006CDD55006CBD5CA68204692
:102A800022F04002CA6084F8413000F0F5F8C1E756
:102A9000CB36000870B5040004D094F8410000253E
:102AA00010B106E0012070BD84F84050204600F0CF
:102AB00023F8242084F841002068C16821F40051E3
:102AC000C160204600F016FF2068016921F49041A2
:102AD00001612068416921F02A0141612068C168D3
:102AE00041F40051C1606564202084F8410084F8FD
:102AF00042006563002070BDF0B585B00024064635
:102B0000009401940294039400682D49884254D1A2
:102B10002C48816941F480418161816901F48041DF
:102B20000491816941F0040181618069264D00F0C2
:102B3000040004904FF400700090022001900120E6
:102B4000039069462846FEF78FFE2815CDE900045C
:102B5000694628460294FEF787FE1D4D1B488027D4
:102B6000C5E90004C5E902472C616C61AC612846E7
:102B7000EC61FEF701FE08B1FEF748F9F5636E62FD
:102B8000134D12484435143801C5102091C5104822
:102B900045F8104944306C61AC61EC61FEF7ECFD26
:102BA00008B1FEF733F9B5630022114625206E62A5
:102BB000FEF7BCFF2520FEF7ABFF05B0F0BD00001F
:102BC0000038014000100240000801405800024057
:102BD0009C010020704770472DE9F843044690F8A7
:102BE0004100984616460D46202802D00220BDE836
:102BF000F88385B17EB100206064212084F8410013
:102C0000FEF728FFA6848146E684A0682027B0F559
:102C1000805F02D003E00120E9E7206910B12E4671
:102C200000250EE000260CE08021204600F006FF83
:102C3000A8B9C6B116F8010B21684860E08C401EA7
:102C4000E084E08C4B464FF00002CDF80080002875
:102C5000EAD14FF04001204600F0F0FE40B184F888
:102C600041700320C3E735F8020BC0F30800E3E727
:102C700084F841700020BAE77047FEE72DE9F04F75
:102C80000446384F3848394E89B00D4614F1FF4F8D
:102C900001D3002402E0844200DD04460120FDF758
:102CA000BFFFB1463146FDF7EBFA804601462046AC
:102CB000FDF704FC03D201261DB12D4D04E00026D2
:102CC0000DB13D4600E02B4D41462046FDF7A0FAF0
:102CD00020F00040B5F5000F0ADB2946FDF7D0FAD9
:102CE0002549FDF79BFAFDF7AFFB00F5167001E0F3
:102CF0004FF4167080461EB1204F4FF0814602E01F
:102D00001F4F4FF0824649462046FDF787FA82461C
:102D100049462846FDF782FA83461A4C494638460A
:102D2000FDF77CFA054649463046FDF777FACDF8BF
:102D30001C8002900123C826CDE90045CDE905633A
:102D4000114A5B46CDE90342524610490120FDF786
:102D5000AAFF044651460120FEF72EF809B020468E
:102D6000BDE8F08F0000704200003C42D23E71414D
:102D7000000048420000B44200007A4400002041B4
:102D80000000404043C796431EEFB4417802002044
:102D90000F4810B50D4901600321416000214FF437
:102DA00010228160C0E9031241610176012242765E
:102DB0008176C17601774177FEF794FA002803D037
:102DC000BDE81040FEF722B810BD000000640040CE
:102DD000540000200D4808B5416941F001014161EE
:102DE0004069002200F00100009011460E20FEF71D
:102DF0009DFE0E20FEF78CFE002211460F20FEF7EE
:102E000095FEBDE808400F20FEF782BE001002408C
:102E100070B586B00024184800940194029403947D
:102E2000816941F020018161816901F020010491F3
:102E3000816941F004018161816901F0040104911B
:102E4000816941F00801816180690C4E00F0080041
:102E50004FF460550490002229463046FEF7F4FDF9
:102E600001200095CDE90104022003906946304617
:102E7000FEF7FAFC06B070BD00100240000C0140E5
:102E800010B586B00024174800940194029403946E
:102E900004941349059401604721C0E901144FF6D9
:102EA000FF71C0E9031444618461FFF727F908B199
:102EB000FDF7ACFF4FF48050009069460948FFF7DA
:102EC000D5F908B1FDF7A2FF049404A905480594BB
:102ED000FFF7E0F8002801D0FDF798FF06B010BD1D
:102EE000002C01407C00002010B586B0002416485C
:102EF000009401940294039404944FF0804105944B
:102F0000016041F61F41C0E901141321C0E9031417
:102F10008461FFF7F3F808B1FDF778FF4FF48050B4
:102F2000009069460848FFF7A1F908B1FDF76EFF68
:102F3000049404A904480594FFF7ACF8002801D0D4
:102F4000FDF764FF06B010BDC400002010B58EB0C0
:102F500000240794089409940A940B941C21684651
:102F60000C94FDF7F8F81E481C4901604721C0E9A0
:102F7000011444F61F61C0E903148461FFF7BEF831
:102F800008B1FDF743FF4FF48050079007A914489C
:102F9000FFF76CF908B1FDF739FF1148FFF7FBFAAD
:102FA00008B1FDF733FF0B940BA90D480C94FFF704
:102FB00071F808B1FDF72AFF6020CDE90004029402
:102FC0000022694606480494FFF77FFA08B1FDF72E
:102FD0001DFF0348FFF752FA0EB010BD0004004079
:102FE0000C0100200D4810B50B4901604FF416513B
:102FF000416000214FF40052C0E902120C22C0E9E6
:1030000004128161C161FFF745FD002803D0BDE8CE
:103010001040FDF7FBBE10BD0038014054010020F8
:10302000FEE700002DE9FF4F85B090460E460446AE
:10303000DDF85090FEF70EFD834D04902946304692
:10304000FDF71EF9814E3146FDF7E8F8804F0290FA
:103050000020786029464846FDF712F93146FDF711
:10306000DDF80390B8F1000F0AD0DFF8E8A10AF10B
:10307000180081467648DFF8E081007838B11BE01F
:10308000DFF8D0A1AAF1480A0AF11800F1E7DFF849
:10309000C4B10027ABF1600B29465BF82700FDF7B0
:1030A000EFF83146FDF7BAF848F827007F1C062FE5
:1030B000F2DB67490120087063496068FDF7E0F8BA
:1030C0006249FDF7ABF801460298FDF7A1F80190BF
:1030D000614D20F00040002783463E462968FDF7F9
:1030E000EDF904D2DAF80070D9F8006053E0A84690
:1030F00058462969FDF7D8F91ED845465846D8F8EC
:103100001410FDF7D1F904D2DAF81470D9F814606C
:1031100041E0DAF814000090D5E904125846DAF8D4
:10312000103000F085FD0746D9F814000090D5E96D
:103130000412D9F8103026E05FF00005584658F820
:103140002510FDF7B1F923D808EB850041685846F2
:10315000FDF7B4F91CD20AEB850008EB8506406840
:1031600000905AF8253058F825105846726800F03B
:103170005FFD074609EB85004068009059F825304F
:1031800058F825107268584600F052FD064602E0D5
:103190006D1C042DD2DB3149029D8B4519DADFF815
:1031A000B0800199D8F80400FCF7E0FF2C49C8F87A
:1031B0000400884202DC2B49884201D9C8F8041077
:1031C0002949D8F80400FDF729F82946FCF7CEFF75
:1031D0000546CDE9007600232A461946204600F030
:1031E00039FE0898012806D1FEF734FC0499411AEB
:1031F0001298814224D80220FEF724FB124E139825
:103200003146FDF73DF8114F3946FDF707F8054601
:1032100031466068FDF734F83946FCF7FFFF029944
:10322000FCF7F9FF20F000402946FDF747F9FFF4CD
:1032300026AFA068039920F00040FDF73FF9F6D3D0
:1032400009B0BDE8F08F000000003443DA0F4940B8
:10325000340000204C410008D802002035FA8E3C92
:103260000000A0400000A0C0CDCCCC3D70B504460D
:10327000088816460D4640BA1023124A124900F03B
:1032800001FF60606888102340BA104A104900F0BE
:10329000F9FEA060A888102340BA0E4A0E4900F03B
:1032A000F1FEE060E88840BAFDF7A8F80B4A0C4B45
:1032B000FDF724F8FDF7DCF82061C6F30440A076A2
:1032C00070BD000000003444000034C40000F04130
:1032D0000000F0C100004041000040C19A99999956
:1032E0009999B93FFEB50D4614460646002100F0F7
:1032F000B1FE1420FEF7A6FA0021304600F042FE8F
:103300001420FEF79FFA304600F08EFE1420FEF7E0
:1033100099FA0020FDF784FC2946FCF77CFF20F099
:1033200000402146FDF73CFC4FF07F52CDE9000202
:10333000144902910123224629463046FFF772FEC6
:103340000021304600F086FE1420FEF77BFA0121B2
:10335000304600F017FE1420FEF774FA304600F0F5
:1033600063FE1420FEF76EFA4FF47A730121C82031
:103370008DE80B00044A054B29463046FDF75AFC00
:10338000FEBD00000000404000003443CDCC4C3F67
:10339000FEE77047704700001CB500781B4C40F0FA
:1033A00090506060080A8DF8001000248DF801002C
:1033B0008DF802408DF80340662B02D0732B11D09C
:1033C0001BE01348110E130C01704370140A847033
:1033D000C2708DF804208DF805408DF806308DF808
:1033E00007100AE01046FDF72FF88DF804008DF85D
:1033F00005408DF806408DF80740054B6A46083BAE
:1034000002490448FDF716FD1CBD000040020020E3
:103410002800002054000020FEF722BB30B58FB0FA
:1034200028216846FCF797FE14210AA8FCF793FEB2
:1034300001210804CDE90010002402940225049122
:10344000CDE907504FF4E01009906846FEF77CFC88
:1034500008B172B6FEE70F20CDE90A054FF480608F
:10346000CDE90C4002210AA80E94FEF791FB00283A
:1034700001D072B6FEE70FB030BD70470148FEF7CD
:1034800064BF0000C4000020F0B50268194B1A4C5C
:103490001A4D4FF08047984205D0B84203D0A04261
:1034A00001D0A84203D122F070064A683243984204
:1034B00005D0B84203D0A04201D0A84203D122F4E3
:1034C0004074CA6822434C6922F0800222430260A1
:1034D0008A68C2620A688262984201D109690163FE
:1034E000012141610169C90703D0016921F001018E
:1034F0000161F0BD002C01400004004000080040C4
:1035000010B501F01F030121046A99408C43046245
:10351000016A9A401143016210BD10B5846842EA05
:10352000032224F47F440A432243826010BD826850
:1035300022F070020A4342F00701816070470000E8
:1035400030B5036A026A22F00102026242688469AD
:1035500024F073050C682C4323F002058B682B4381
:103560000A4DA8420BD123F00805CB6822F4407223
:103570002B434D6923F0040315438A692A434260B3
:10358000846149684163036230BD0000002C014042
:1035900030B5026A036A23F010030362436884694A
:1035A0000D6824F4E64444EA05248D6822F02002E4
:1035B00042EA05120B4DA8420ED1CD6822F08002DE
:1035C00042EA05124D6923F4406343EA85038D699D
:1035D00022F0400243EA85034360846149688163C5
:1035E000026230BD002C014030B5036A026A22F449
:1035F000807202624268C46923F4007324F0730588
:103600000C682C438D6843EA05230C4DA8420ED16B
:10361000CD6823F4006343EA05234D6922F4405248
:1036200042EA05128D6923F4806342EA0512426082
:10363000C4614968C163036230BD0000002C0140D1
:1036400030B5046A026A22F4805202624268C36999
:103650000D6823F4E64343EA05238D6824F40054FF
:1036600044EA0534064DA84204D14D6922F4804253
:1036700042EA85124260C36149680164046230BD58
:10368000002C014010B5036A046A24F001040462AE
:10369000846924F0F00444EA021423F00A020A4385
:1036A0008461026210BD10B5036A046A24F010043C
:1036B0000462846923F0A00324F4704444EA0232D3
:1036C00043EA01118261016210BD10B5406A002118
:1036D000C185C184FFF776F810BD70B5446A2068D3
:1036E000406994F84110C0F3C0100025212904D18D
:1036F00018B1E584204600F08EF82068406994F8FF
:103700004210C0F38010222904D118B1E58520466B
:1037100000F05AF8606C40F0100060642046FFF73B
:1037200051F870BD10B50146406A096809684FF04C
:10373000000289062ED4C28501680C3151E8003F91
:1037400023F4807341E80034002CF5D10168143172
:1037500051E8003F23F0010341E80034002CF5D18B
:103760000168143151E8003F23F0400341E8003480
:10377000002CF5D1202180F84210016B012909D1DC
:1037800001680C3151E8003F23F0100341E8003498
:10379000002CF5D14263016B012902D0FFF71AFA20
:1037A00010BD818DFEF79CFF10BD10B5406A012150
:1037B0004163016B012902D0FFF70DFA10BD818D25
:1037C0004908FEF78DFF10BD01680C3151E8002F4C
:1037D00022F4907241E80023002BF5D101681431E6
:1037E00051E8002F22F0010241E80023002BF5D11F
:1037F000016B012909D101680C3151E8002F22F039
:10380000100241E80023002BF5D1202180F842105E
:1038100000210163704701680C3151E8002F22F04C
:10382000C00241E80023002BF5D1202180F841108F
:10383000704708B590F84210222901D0022008BD37
:1038400082684FF480539A4201D1016921B1816AA3
:103850009A421BD04AB10AE00268816A5268C2F3F8
:1038600008020A80816A891C08E0026972B1026854
:10387000526802F07F020A70816A491C8162C18D20
:10388000491E0904090CC18503D01BE00268526877
:10389000F1E70168CA6822F02002CA600168CA68BC
:1038A00022F48072CA6001684A6922F001024A610A
:1038B000202180F8421000214163026B012A03D0CD
:1038C000FFF788F9002008BD016301680C3151E859
:1038D000002F22F0100241E80023002BF5D10168EF
:1038E0000A68D20602D50A6849680091818DFEF700
:1038F000F7FEE7E770B5044600680169E26821F465
:103900004051114301612169A0680843616908437E
:103910002168CA6841F20C639A430243CA60206876
:103920004169A26921F44071114341611E49206837
:10393000884202D1FEF7D2F901E0FEF7BFF900EBB1
:10394000C00101EB0012606864218000B2FBF0F35B
:10395000B3FBF1F36FF018067343B2FBF0F5B2FB63
:10396000F0F605EB8305322303EB0515B5FBF1F506
:10397000B6FBF1F605F0F00505EB0615B2FBF0F627
:10398000B2FBF0F0B0FBF1F06FF01802504306EB21
:10399000800003EB0010B0FBF1F0216800F00F0095
:1039A0002844886070BD00000038014038B581624D
:1039B00004468285002013466064222284F8422057
:1039C000E56B1B4AAA62E56B1A4AEA62E56B1A4A82
:1039D0002A63E26B50630A462168E06B091DFDF71C
:1039E000F9FE2068016840680090206948B12068AD
:1039F0000C3050E8001F41F4807140E80012002AAA
:103A0000F5D12068143050E8001F41F0010140E872
:103A10000012002AF5D12068143050E8001F41F050
:103A2000400140E80012002AF5D1002038BD000016
:103A300025370008AB370008DB3600082DE9F843CE
:103A4000984617460D460446089E24E0701C22D076
:103A5000FEF700F8A0EB0800B0421AD8CEB12068FB
:103A6000C168490717D5802D15D0402D13D00168A6
:103A7000C94309070FD4016800254068009020461B
:103A8000FFF7A2FE0820606484F840500120BDE8E2
:103A9000F8830320FBE72068006835EA000004D0C3
:103AA0000020B842D2D00020F1E70120F9E7000061
:103AB0000148FEF7B9BE0000540100200148FDF79F
:103AC00013BB000054000020FEE70907090E002880
:103AD00004DB00F1E02080F80014704700F00F00D4
:103AE00000F1E02080F8141D7047000001480068D4
:103AF000704700004400002002E008C8121F08C1FF
:103B0000002AFAD170477047002001E001C1121F5E
:103B1000002AFBD17047000001490860704700008F
:103B20004400002030380A2801D2012070470020CC
:103B3000704730B583B00446FFF7D8FF0546002034
:103B4000CDE90000024621466846FCF7DCFC284629
:103B5000FFF7E2FFDDE9000103B030BD2DE9F041E0
:103B600005461F4616460C461046FCF751FB80469C
:103B700031462846FCF7A2FC01D2354605E0214635
:103B80002846FCF791FC00D225460120B840401E93
:103B9000FCF726FC064621462846FCF739FB314651
:103BA000FCF73CFB4146FCF76BFBBDE8F041FCF742
:103BB00032BC00002DE9F0410F4C0E46054621684D
:103BC00040F2217048634FF4FA773846FDF73AFE29
:103BD00028463146FCF74CFC0021FFF74FF82168DE
:103BE00040F2C94048633846FDF72CFEBDE8F0417D
:103BF00001210248FFF742B80C01002000003C42BE
:103C000070B50D4609490446002304200B60C1E944
:103C100001300820C1E9033025701146204600F02C
:103C2000B1F92046BDE8704000F0FEB94002002026
:103C30002DE9F0410E4607461D4614461146304612
:103C4000DDF81880FCF730FC02D12846BDE8F08191
:103C500021463046FCF7DCFA044631463846FCF78C
:103C6000DAFA2146FCF70CFB044629464046FCF7ED
:103C7000CFFA2146FCF7D2FA2946BDE8F041FCF71D
:103C800075BA00008CB0FDF7F3FEFFF7C7FBFFF736
:103C9000BFF8FFF79FF8FFF7F3F8FFF725F9FFF7F5
:103CA000A1F9FFF775F8FFF751F900200121CDE9DF
:103CB00008010A91029003900490059007900690E5
:103CC0000E200B9002A95548FDF71CF95348FDF74B
:103CD00007FC02215148FDF79BF85148FEF79AFA7C
:103CE0005048FEF76FFA5048FEF76CFA00214E4834
:103CF000FEF780FC4FF4FA60FDF7A4FD00227F215F
:103D00004A48FFF77DFF0A20FDF79CFD4748012246
:103D100020301F210646FFF773FF0A20FDF792FDB2
:103D2000424800F069F9304600F066F90A20FDF7D4
:103D300089FD0A223E493F48FEF7ACFC3E48016837
:103D4000086820F0040008603C4C3D4D0023CDE99C
:103D500000541A461946354800F07CF8394F0021C6
:103D60003A46304600F01CF90520FDF76BFD0023B4
:103D7000CDE900541A4619462C4800F06BF83A4633
:103D80000021304600F00CF9274940F2C94009688B
:103D900048632D4C20783028FCD020786E2818D02D
:103DA00004DC66281CD067282BD108E070280BD0D3
:103DB000732826D100212548FEF760FF21E0D4E9D1
:103DC0000201FFF7F7FE1CE0D4E9020100F0C0F8A1
:103DD00017E0D4E90201FCF74BFB0146002205E0A5
:103DE000D4E90201FCF744FB014601220F48FFF72A
:103DF00079FAD4E90201FCF73BFB01460020FCF70D
:103E0000DBFF4FF0FF352B46012211490948FEF731
:103E1000E3FE0028F7D130202070BBE754000020DB
:103E2000C40000207C0000200C010020580200206B
:103E300048000020540100209C0100200000904018
:103E400000002041000034430000002000003C42FC
:103E5000BE4000082DE9FC5F9146DDE90C85314E3E
:103E6000314F9A468B46044610233246394648461F
:103E7000FFF774FE000A8DF8000010233246394621
:103E80004846FFF76BFE294E294F8DF8010010239D
:103E9000324639465046FFF761FE000A8DF80200AF
:103EA0001023324639465046FFF758FE214E8DF812
:103EB00003001023324600214046FFF74FFE000A60
:103EC0008DF804001023324600214046FFF746FEDD
:103ED000194E8DF805001023324600212846FFF7C1
:103EE0003DFE000A8DF806001023324600212846C8
:103EF000FFF734FE8DF807001023104A104958468A
:103F0000FFF72CFE4FF0807141EA002021780E4B24
:103F100008430C496A4648600C48FCF78BFFBDE833
:103F2000FC9F000000004841000048C10000F04133
:103F30000000F0C10000FA430000A0400000404132
:103F4000000040C14002002020000020540000205A
:103F500010B5FCF78DFA0121FEF790FE074940F2FB
:103F6000BD60096848634FF4FA70FDF76BFCBDE86B
:103F7000104000210248FEF781BE00000C01002025
:103F800000003C4210B504460846FCF732FA0246EF
:103F90002046BDE81040732347F20501FFF7FCB946
:103FA0002DE9F04190460A46114F06463946104623
:103FB000FCF734F90F4D2946FCF762F904463946FF
:103FC0004046FCF72BF92946FCF75AF905466623CB
:103FD000224647F216013046FFF7DEF92A46304600
:103FE000BDE8F041662347F21701FFF7D5B900009D
:103FF000DA0F4940000034431CB5002100910191C3
:1040000001218DF800100078044940F0C060044B95
:1040100048606A460348FCF70DFF1CBD40020020C3
:1040200020000020540000201CB5002100910191C7
:104030000078054940F04070044B48606A460448E7
:10404000FCF7F8FE1CBD000040020020200000200C
:10405000540000201CB5002200928DF8001001923F
:104060000078054940F08060044B48606A46044887
:10407000FCF7E0FE1CBD00004002002020000020F4
:10408000540000202DE9F041012407469C400E46D3
:104090001046641EFCF7BCF805462046FCF7A9F95B
:1040A00004463846FCF7A5F92946FCF7B7F821463F
:1040B000FCF7E6F83146BDE8F041FCF757B8AA0135
:1040C0000202030405060708090A0B0C0D0E0F1067
:1040D00010000000000000000001020304060708B1
:1040E0000900000000010203040000000000164364
:1040F0000000A042000070420000A0410000A0406B
:10410000000000000000803F9A99194066666640F2
:10411000000000410000584100002040CDCC4C3F41
:10412000CDCC4C3FCDCC4C3F6666E63F0000804096
:104130000000A040000016430000A04200007042B2
:104140000000A0410000A04000000000000000406E
:10415000000040400000A040000040410000D84165
:10416000000020413333333F3333333F3333333F66
:10417000CDCCCC3F0000604000009040DDDDDDDDB7
:10418000DCBBBBDDDDDDDDDDDDDDDDDD98888888E8
:10419000888888887777777777888888855555568F
:1041A00066666666666666666668888883333332E6
:1041B00022222222222222222228888DDC4100086B
:1041C0000000002048000000F83A000824420008DF
:1041D00048000020A8060000083B0008300000004E
:1041E00000000000000000000000000001000000CE
:1041F000100000000000000000127A000000000023
:1042000000000000000000000000000000000000AE
:10421000000000000000000000000000000000009E
:04422000000000009A
:04000005080000ED02
:00000001FF
